:020000040800F2
:10000000B80E0020F5010008553D0008E133000856
:10001000513D0008F50F0008E54900080000000008
:10002000000000000000000000000000ED46000895
:10003000F90F000800000000C1460008EF46000864
:100040000F0200080F0200080F0200080F0200084C
:100050000F0200080F020008611300080F020008D9
:100060000F02000875130008891300080F0200082A
:100070000F0200080F0200080F0200080F0200081C
:100080000F0200080F0200080F0200080F0200080C
:100090000F0200080F0200080F0200080F020008FC
:1000A0000F0200080F0200080F0200080F020008EC
:1000B0000F0200080F0200080F0200080F020008DC
:1000C0000F0200080F0200080F0200080F020008CC
:1000D0000F020008C54900080F020008D5490008B2
:1000E0000F0200080F0200080F0200080F020008AC
:1000F0000F0200080F0200080F0200080F0200089C
:100100000F0200080F0200080F0200080F0200088B
:100110000F0200080F020008F94600080F0200084D
:100120000F0200080F0200080F0200080F0200086B
:1001300000F002F800F04FF80AA090E8000C8244AA
:100140008344AAF10107DA4501D100F044F8AFF287
:10015000090EBAE80F0013F0010F18BFFB1A43F0A5
:10016000010318478CDE0000ACDE0000103A24BF0B
:1001700078C878C1FAD8520724BF30C830C144BF0C
:1001800004680C607047000000230024002500264E
:10019000103A28BF78C1FBD8520728BF30C148BFEA
:1001A0000B607047642900F00D81732900F06384AF
:1001B000002070471FB59DE8030000F08BFB00F0A6
:1001C00075FC04000020002109F0F6FF401C60606F
:1001D0001FBD10B510BD00F096FC1146FFF7EAFFF9
:1001E00008F0ECFB00F0B4FC03B4FFF7F2FF03BC33
:1001F00004F0A7FC0948804709480047FEE7FEE7EE
:10020000FEE7FEE7FEE7FEE7FEE7FEE7FEE7FEE7C6
:1002100004480549054A064B70470000F7460008A8
:1002200031010008B8040020B80E0020B8060020F4
:10023000B8060020704770B5064600F02FFB056831
:1002400006F10B0020F00704B4429CBF002070BDF3
:100250002B466A68BAB11068A04210D304F10801B5
:1002600088423CBF5068586007D3516810194160FC
:100270001168091B016058601460101D70BD1346A1
:100280005268002AE7D12146284600F00FFB0028DB
:10029000DED170BD70B50446051F00F0FFFA00689E
:1002A000002C14BF446870BD002C18BFAC423CBF8A
:1002B00020466468F8D301680A18AA4218BF45604E
:1002C00003D12A6805461144016028684119A142FA
:1002D0001CBF6C6070BD616869602168084428605B
:1002E00070BD10B5044600F0D1FA0068005DC0068C
:1002F00002D504F1200010BD204610BD0FB4044902
:1003000010B503AA029800F0BBFB10BC5DF814FB0B
:10031000100000200FB41CB5074B06AA7B446946A9
:100320000090059800F075FB0020694600F084FB02
:100330001CBC5DF814FB0000190700000FB41CB5CD
:100340000C0007AA009001D02044401E074B7B44BC
:1003500069460190069800F05CFB002C03D06946CA
:10036000002000F069FB1CBC5DF814FBF1060000E6
:1003700070B50C460546012A05D02878800600D5C0
:10038000EA69002302E0012305E05B1C934202D2EC
:10039000E05C0028F9D1A869E618C01AA861286AAB
:1003A000184428622846AFF3008004E0D5E9012113
:1003B00014F8010B9047B442F8D32846AFF30080FD
:1003C00070BD00002DE9F041064600241068752933
:1003D000314616A510D0AFF30080002802DA404263
:1003E00013A507E031688A0701D512A502E0490785
:1003F00004D511A5012401E0AFF3008000210A22F9
:1004000006F1240709E0B0FBF2FCB0FBF2F302FBBB
:100410001C00303078541846491C0028F3D123467C
:100420002A463046BDE8F04100F095BA00000000D1
:100430002D0000002B000000200000002DE9F05FDF
:10044000894604464FF0000ADFF824B1FB44C0F8A7
:1004500020A02046E168884700287DD0252806D0C6
:10046000D4E901219047206A401C2062F1E7002571
:100470005F462046E16888472028064607DB312E84
:1004800005D2B81910F8200C08B10543F1E7A80708
:1004900001D525F00405C4F81CA00027C4F818A055
:1004A0002A2E09D0304604F045FB38B304EB870808
:1004B000303EC8F8186019E059F8041B204604EBD8
:1004C00087029161E1688847012F064618D1E069EB
:1004D000002820DA25F020051DE0D8F8180000EBF0
:1004E000800006EB40003038C8F818002046E1686C
:1004F0008847064604F01EFB0028EED1012F0AD0E3
:100500002E2E08D12046E16888477F1C0646022F20
:1005100045F02005C4DBA069002803DA404245F01D
:100520000105A061E80701D025F01005A6B1A6F1EC
:100530004100192802D8203645F400654A46314664
:10054000204625604D46FFF72DFE60B1012807D0FB
:10055000ED1D25F0070000E007E000F1080978E74D
:1005600005F1040975E730467AE7206ABDE8F09F97
:10057000B3DA0000401ECAB210F8011F8A4202D04E
:100580000029F9D10020704710B5431E13F8014F20
:10059000002CFBD105E011F8014B002C03F8014BB6
:1005A00003D0521EF7D20021197010BD30B5054698
:1005B0000B462A4613F8014B12F8010B08B1A04272
:1005C000F8D01CB1002802D06D1CF1E7284630BDE0
:1005D00040EA0103024630B59B0710D14FF00134C9
:1005E00000E008C208C91D1B9D4315EAC41FF8D0CE
:1005F00013F0FF0102F8011B0DD01B0AF8E711F8F8
:10060000013B002B02F8013B05D011F8013B002B08
:1006100002F8013BF3D130BD10B5431C02E010F8E5
:10062000011B71B18107FAD14FF0013202C88C1A57
:100630008C4314EAC211F9D0C01A0A0603D0C01EB6
:1006400010BDC01A10BD0A0401D0801E10BD0902E1
:10065000FCD0401E10BD40EA010370B59B072ED1AF
:100660004FF00136042A2AD308C810C99D1B9D43A8
:10067000121F15EAC61517D0D8B2E1B2401A50EAD7
:10068000056110D198B2A1B2401A50EA05410AD1D1
:1006900023F07F4024F07F41401A50EA052102D127
:1006A000180EA0EB146070BDA342DBD018BA21BABB
:1006B000884201D9012070BD4FF0FF3070BD0AB9EA
:1006C000002070BD10F8013B11F8014B63B1A3424B
:1006D0000AD1521E08D010F8013B11F8014B1BB192
:1006E000A34201D1521EEDD1181B70BD421E12F85B
:1006F000013F002BFBD111F8013B002B02F8013B1D
:10070000F9D17047032A40F2308010F0030C00F05A
:10071000158011F8013BBCF1020F624498BF11F83B
:1007200001CB00F8013B38BF11F8013BA2F10402F4
:1007300098BF00F801CB38BF00F8013B11F003036C
:1007400000F02580083AC0F0088051F8043B083AD0
:1007500051F804CBA0E80810F5E7121D5CBF51F872
:10076000043B40F8043BAFF30080D20724BF11F8EC
:10077000013B11F801CB48BF11F8012B24BF00F851
:10078000013B00F801CB48BF00F8012B704710B5C2
:10079000203AC0F00B80B1E81850203AA0E8185079
:1007A000B1E81850A0E81850BFF4F5AF5FEA027C3A
:1007B00024BFB1E81850A0E8185044BF18C918C0A9
:1007C000BDE810405FEA827C24BF51F8043B40F84A
:1007D000043B08BF7047D20728BF31F8023B48BF2F
:1007E00011F8012B28BF20F8023B48BF00F8012B6D
:1007F00070474FF000020429C0F0128010F0030C83
:1008000000F01B80CCF1040CBCF1020F18BF00F803
:10081000012BA8BF20F8022BA1EB0C0100F00DB8B2
:100820005FEAC17C24BF00F8012B00F8012B48BF10
:1008300000F8012B70474FF0000200B513469446B4
:100840009646203922BFA0E80C50A0E80C50B1F128
:100850002001BFF4F7AF090728BFA0E80C5048BF3C
:100860000CC05DF804EB890028BF40F8042B08BFDA
:10087000704748BF20F8022B11F0804F18BF00F8D6
:10088000012B7047704770477047704710B500F0F4
:100890000DF9001D10BD00BF2199000000487047F0
:1008A00060040020704770477047704738B50446B1
:1008B0000A4600206946AFF30080002808BF38BD13
:1008C00002460099204600F0F9F8012038BD0120C9
:1008D00000F012B9F8B5AFF30080054600200C46D1
:1008E000102000BF0646A819A0420DD9324669461D
:1008F0000020AFF30080070008BF00F0FDF800986B
:10090000A04218BF0546C419FFF7C8FF0560074697
:10091000F01D20F007004619284600F00AF8B442FE
:1009200008BFF8BDA21B31463868BDE8F84000F0AA
:10093000C5B800210160C0E9011070471020704760
:1009400010B500F0B7F8006810BD10B5044600F00F
:10095000B1F8046010BD2DE9F0470D469946924666
:10096000044600F124080168880604D5E06921F0F6
:100970001001216000E00120A84201DD471B00E0DA
:100980000027A1697A1902EB0900081AA0612078F2
:10099000C00602D42046AFF30080002608E0D4E968
:1009A00001211AF806009047206A401C761C20623C
:1009B0004E45F4DB2078C0060AD52046AFF3008010
:1009C00006E0D4E9012130209047206A401C2062D3
:1009D000381EA7F10107F4DC07E0D4E9012118F87B
:1009E00005009047206A401C2062281EA5F10105E1
:1009F000F3DC2046AFF300802078000602D5022009
:100A0000BDE8F0870120FBE701694A1C0261087814
:100A1000704700B58FB0CDE901310021059105493E
:100A20007944CDE9031011466846FFF707FD0FB082
:100A300000BD0000E5FFFFFF0A6802F8010B0A6035
:100A40007047D1E900239A4202D2531C0B60107008
:100A5000704710B5436913B1AFF3008001E0FFF7B1
:100A600087FC012010BD127800F124010A700022D9
:100A70004A700122EDE711684FF0FF32E9E700000C
:100A8000074B70B50D467B44FFF7C3FF044628466D
:100A900000F02EF810B14FF0FF3070BD204670BD51
:100AA00087460000004870475804002000487047FF
:100AB000780400200048704758040020034640682E
:100AC0008C46002818BF88423CBF03464068F8D3D4
:100AD00018681844884207D00CF1030020F0070082
:100AE000001D411A521A0146081D0A60FFF7D2BBC9
:100AF000007B00F08000704710B500F037F8BDE8CB
:100B0000104000F02EB87546FFF7CCFFAE4605004A
:100B10006946534620F00700854618B020B5FFF718
:100B200077FBBDE820404FF000064FF000074FF084
:100B300000084FF0000B21F00701AC46ACE8C009FB
:100B4000ACE8C009ACE8C009ACE8C0098D46704704
:100B500010B50446AFF300802046BDE81040FFF713
:100B600043BB002801D003F0ECBF704710B501284B
:100B700005D0002103A000F061F8012010BD09A1FB
:100B8000F8E7000053494752544D454D3A204F7500
:100B900074206F662068656170206D656D6F727975
:100BA000000000003A2048656170206D656D6F722D
:100BB0007920636F72727570746564004FF0013C48
:100BC00050F8042B51F8043B9A4221D1A2EB0C03BC
:100BD000934313EACC1317D150F8042B51F8043B7C
:100BE0009A4215D1A2EB0C03934313EACC130BD119
:100BF00050F8042B51F8043B9A4209D1A2EB0C03A4
:100C0000934313EACC13DBD04FF00000704700BFD2
:100C1000D01A01BAB1FA81F101F0180122FA01F0FB
:100C2000CB40C1F12001DBB2C0B2C01A2CFA01F3F3
:100C3000D11A914311EAC311E6D1704770B5054648
:100C40000C460A2000E06D1C03F07DFF35B12878CA
:100C50000028F8D102E0641C03F075FF14B120787D
:100C60000028F8D1BDE870400A2003F06CBF70B5D1
:100C7000044600252068806800F00100F0B120687B
:100C8000806820F001002168886001F011FA0546B3
:100C90000EE001F00DFA401B022809D9A06A40F0CD
:100CA0001000A062E06A40F00100E062012070BD27
:100CB0002068806800F001000028EAD10020F6E7F3
:100CC00038B504460025002000902068806800F0B8
:100CD000010080BB2068806840F0010021688860C6
:100CE000164800681649B0FBF1F0009002E0009849
:100CF000401E009000980028F9D101F0D9F905466E
:100D000013E001F0D5F9401B02280ED9A06A40F08B
:100D10001000A062E06A40F00100E06200BF002025
:100D200084F8240000BF012038BD2068806800F0EE
:100D300001000028E5D00020F6E7000008000020B0
:100D400040420F002DE9F047074689469046DDF8FE
:100D500020C0002100220024002600250020044697
:100D60000246014645E0002601E0491C761C61452B
:100D700002D2585C2028F8D0614500D13BE0ACEBB2
:100D80000100022807D3585C0D2804D1481C185CC8
:100D90000A2800D12CE0585C0A2800D128E01EB1B6
:100DA0006FF02B00BDE8F087585C3D2806D1601C31
:100DB0000446022802D96FF02B00F3E7585C7F2825
:100DC00006DC585CDFF8E4A01AF800007F2802D1A6
:100DD0006FF02B00E6E7585CDFF8D0A01AF80000AF
:100DE000402803DA14B16FF02B00DBE7521C00BF80
:100DF000491C6145B7D300BF1AB90020C8F80000EC
:100E0000D0E7D00800EB40004FEA400A02F00700AC
:100E100000EB40004000C01D0AEBD002121B0FB1D6
:100E2000914504D2C8F800206FF02900BAE70324E6
:100E30000020064602463D4631E018780D2805D0D0
:100E400018780A2802D01878202800D125E01878D0
:100E5000DFF858A01AF80000402801D1012000E076
:100E60000020241A1878DFF844A01AF8000066F36E
:100E70009F100646501C024604280DD1002214B1D2
:100E8000300C05F8010B012C02D9300A05F8010BD2
:100E9000022C01D905F8016B00BF491E5B1C00291B
:100EA000CBD1E81BC8F8000000207BE783DE0008F8
:100EB0002DE9F04F07468946099C00250026AC46DF
:100EC000A846AA4600211CB900201060BDE8F08F9A
:100ED0000320B4FBF0F04FF0030BB4FBFBFE0BFB65
:100EE0001E4BBBF1000F02D04FF0010B01E04FF0A1
:100EF000000B00EB0B06B6F1804F05D34FF0FF302F
:100F000010606FF02900E1E7B600701C814500D346
:100F100027B9701C10606FF02900D7E70320B4FBDD
:100F2000F0F000EB40060025394629E013F801CB2C
:100F300013F8018B13F801AB2D484FEA9C0B10F806
:100F40000B0001F8010B4FEA0C1000EB281000F029
:100F50003F00DFF89CB01BF8000001F8010B4FEADE
:100F6000880000EBAA1000F03F001BF8000001F819
:100F7000010B0AF03F001BF8000001F8010BED1C0B
:100F8000B542D3D3A5422DD213F801CB681CA042A1
:100F900002D213F8010B00E0002080461448CCF385
:100FA000850B10F80B0001F8010B4FEA0C1000EB59
:100FB000281000F03F00DFF838B01BF8000001F8FF
:100FC000010B681CA04207D23F2000EA88001BF8F2
:100FD000000001F8010B02E03D2001F8010B3D206B
:100FE00001F8010BC81B10600020087000BF6DE7FE
:100FF00043DE000800BFFEE77047000010B54FF465
:1010000000710248FFF7F5FB10BD000058020020F8
:1010100070B50546002400BF00F088F980B90DA125
:101020000E48FFF7C3FA044654B13A212046FFF7B1
:10103000A1FA044614B1641C204670BD0020FCE7F0
:10104000052000F037FE281EA5F101018DB2E3D185
:1010500000BFF2E74950442C000000005802002075
:1010600000B585B000BF3B48806940F004003949B5
:1010700088610846806900F00400009000BF00BF4E
:101080004FF480400190012002900320049001A9B8
:10109000314800F055FE002210212F4801F002F8DF
:1010A000FA2000F007FE012210212B4800F0FAFF81
:1010B0004FF4FA7000F0FEFDFFF7A0FF27A0FFF746
:1010C0001DF903E04FF4FA7000F0F4FD27A128A009
:1010D00000F0D4F80028F5D127A0FFF70FF903E0BE
:1010E0004FF4FA7000F0E6FD20A12AA000F0C6F847
:1010F0000028F5D12BA0FFF701F903E04FF4FA70B7
:1011000000F0D8FD19A12BA000F0B8F80028F5D107
:101110002CA0FFF7F3F803E04FF4FA7000F0CAFDDB
:101120002FA131A000F0AAF80028F5D137A0FFF7D1
:10113000E5F803E04FF4FA7000F0BCFD3BA13DA0E0
:1011400000F09CF80028F5D146A0FFF7D7F805B0CD
:1011500000BD00000010024000080140312E20B206
:10116000E2CAD44154C6F4B6AF0D0A004F4B00009A
:1011700041540D0A00000000322E20C9E8D6C357A2
:10118000694669C4A3CABDA3A843574D4F4445A3AC
:10119000A90D0A0041542B43574D4F44453D310D95
:1011A0000A000000332E2041542B4357444843503B
:1011B0000D0A000041542B4357444843503D312C05
:1011C000310D0A00342E20C1ACBDD357694669C821
:1011D000C8B5E3A3A843574A4150A3A90D0A00008C
:1011E000474F54204950000041542B43574A415027
:1011F0003D22353038222C227777772E373931331C
:101200003538343236220D0A00000000352E20BD5C
:10121000A8C1A2544350C1ACBDD3A3A84349505365
:1012200054415254A3A90D0A00000000434F4E4EF2
:101230004543540041542B43495053544152543D6B
:1012400022544350222C226D717474732E6865638E
:101250006C6F7564732E636F6D222C313838330DCB
:101260000A000000362E20455350383236362049C9
:101270006E6974204F4B0D0A000000002DE9F0410B
:1012800004460D46C8262046FFF7C6F987B24FF63A
:10129000FF733A4621460F4802F038F813E000F099
:1012A00045F868B90C490DA0FFF728F829460A4807
:1012B000FFF77CF920B1FFF7A1FE0020BDE8F08127
:1012C0000A2000F0F7FC301EA6F10101CEB2E6D1F3
:1012D0000120F3E748010020580200202573000098
:1012E00030B589B004460D46FFF788FE2A4609A1AD
:1012F00001A8FFF70FF80BA101A8FFF7BFFF30B956
:101300004FF6FF732A462146074801F0FFFF09B058
:1013100030BD000041542B43495053454E443D25B8
:10132000640D0A003E000000480100200A480088C1
:1013300008B9012070470848008808490988884290
:1013400003D1002004490880F4E7034800880349DA
:1013500008800120EEE70000380000203A0000205D
:1013600010B5012000F0DEFC01200149086010BD2D
:101370001404014010B5082000F0D4FC08200149F5
:10138000086010BD1404014010B5102000F0CAFC24
:1013900010200149086010BD1404014070B50446D6
:1013A000B3F5804F13D1D1E9000540EA05108D68EF
:1013B00040EA05208D6928438D8940EA054054F8AC
:1013C0002250064E3540284344F8220003E06FF0D7
:1013D000704044F82200002070BD00000000F0CFF3
:1013E00070B50246086852F8200020F001000E682F
:1013F00042F826008868082801D1402300E0002335
:10140000486818438E683043CE6830430E693043D5
:101410004E693043CE6930430E6A30434E6A3043E2
:101420008E6A3043CE6A30430E6B40EA0604886908
:101430000443486B0443074D45F4806545F4E025BB
:10144000086852F82000A84320430E6842F826009E
:10145000002070BD7FFB080010B50346D1E90004F1
:1014600040EA04108C6840EA04208C8940EA044475
:10147000088A401E44EA0054087D801E44EA006049
:101480008C692043541C53F8244004F0404420430A
:10149000541C43F82400002010BD0000F8B5044699
:1014A00000260020009000BF94F82400012801D1FC
:1014B0000220F8BD012084F8240000BF2046FFF779
:1014C000D6FB0646002E62D1A06A20F4885040F078
:1014D0000200A062022000F09BFE30490968B1FBC7
:1014E000F0F04000009002E00098401E009000984C
:1014F0000028F9D12046FFF7E3FB2068806840F020
:1015000008002168886000F0D3FD054611E000F076
:10151000CFFD401B0A280CD9A06A20F0020040F041
:101520001000A06200BF002084F8240000BF01204A
:10153000BFE72068806800F008000028E7D1206835
:10154000806840F004002168886000F0B1FD054625
:1015500011E000F0ADFD401B0A280CD9A06A20F074
:10156000020040F01000A06200BF002084F82400B8
:1015700000BF01209DE72068806800F0040000287B
:10158000E7D1A06A20F0020040F00100A06200BF95
:10159000002084F8240000BF30468AE708000020BD
:1015A00038B5024600230020009000BF92F82400C6
:1015B000012801D1022038BD012082F8240000BF9B
:1015C0004868072812D21068406B0C79641E04EB3F
:1015D00084051F24AC40A0430D796D1E05EB8505E5
:1015E0000C68AC4020431468606327E048680D280D
:1015F00012D21068006B0C79E41F04EB84051F24E1
:10160000AC40A0430D79ED1F05EB85050C68AC409F
:1016100020431468206311E01068C06A0C790D3C07
:1016200004EB84051F24AC40A0430D790D3D05EB70
:1016300085050C68AC4020431468E06208680A28FD
:1016400012D31068C0680C780A3C04EB44050724E8
:10165000AC40A0430D780A3D05EB45058C68AC40D5
:1016600020431468E0600FE0106800690C7804EB18
:1016700044050724AC40A0430D7805EB45058C6874
:10168000AC402043146820610868102802D0086824
:10169000112827D1174C1068A0421ED1106880680D
:1016A00000F40000F0B91068806840F4000014688D
:1016B000A0600868102815D10F4800680F4CB0FBD7
:1016C000F4F000EB80004000009002E00098401E23
:1016D000009000980028F9D104E0906A40F02000C2
:1016E0009062012300BF002082F8240000BF18464A
:1016F00061E70000002401400800002040420F0084
:1017000001460868C06C70472DE9F0410446002787
:1017100000250026A84614B90120BDE8F081A06884
:1017200010B1207D00B100BFA06A30B90020E06296
:1017300084F82400204600F097F82046FFF797FA37
:101740000746A06A00F01000002873D1002F7ED158
:10175000A06A20F4885040F00200A0623F4AD4E919
:101760000001904208D1E069B0F5402F02D14FF45A
:10177000002002E0E06900E0E0690143207B41EAEB
:1017800040000643A068B0F5807F02D0A068012821
:1017900002D14FF4807000E000200543207D012835
:1017A00011D1207B38B9A069401E4FF4006141EA95
:1017B0004030054307E0A06A40F02000A062E06AE4
:1017C00040F00100E0622068406820F4694028434E
:1017D00021684860206880682149084030432168BA
:1017E0008860A068B0F5807F02D0A068012802D18F
:1017F0004FF4807000E00020B0F5807F03D1208A94
:10180000401E4FEA00582068C06A20F4700040EA89
:1018100008002168C8622068806812490840B04208
:1018200009D10020E062A06A20F0020040F001002F
:10183000A06211E00BE0A06A20F0020040F010006E
:10184000A062E06A40F00100E062012704E0A06AC3
:1018500040F01000A062012738465EE7003C0140DE
:10186000FDF7E1FFFE0E1FFF70470000F8B50446CC
:101870000D46002600200090002700F019FC0646C7
:101880002068806800F4807050B1A06A40F02000A9
:10189000A06200BF002084F8240000BF0120F8BD32
:1018A0002068406800F48070F8B92068C06A00F4CD
:1018B0007000D0B912E0681C80B125B100F0F8FBCF
:1018C000801BA8420AD9A06A40F00400A06200BFB1
:1018D000002084F8240000BF0320E0E720680068AF
:1018E00000F002000028E6D050E0022000F090FC5A
:1018F00036490968B1FBF0F021680969344A1140A2
:1019000091B92168C9689211114069B921680969C2
:10191000304A114031B92168C9689211114009B9A2
:10192000142117E0292115E021680969294A11408D
:1019300021B92168C9689211114041B12168096932
:10194000254A114029B92168C968114009B95421B3
:1019500000E0FC2100FB01F715E0681C80B125B117
:1019600000F0A6FB801BA8420AD9A06A40F0040040
:10197000A06200BF002084F8240000BF03208EE78F
:101980000098401C00900098B842E6D36FF0120017
:1019900021680860A06A40F40070A0622068806836
:1019A00000F46020B0F5602F0DD1207B58B9A06AFB
:1019B00020F48070A062A06A00F4805018B9A06A78
:1019C00040F00100A062002069E70000080000204C
:1019D00024499224922449124992240070B5044665
:1019E000002500BF94F82400012801D1022070BD19
:1019F000012084F8240000BF2046FFF761F9054666
:101A0000002D77D1A06A40F20121884340F4807014
:101A1000A0623C492068884208D13B48006800F435
:101A2000702008B9012002E0002000E0012078B118
:101A3000A06A20F48010A0622068406800F48060F2
:101A400000B3A06A20F4005040F48050A06219E076
:101A5000A06A40F48010A0622B49091F20688842C8
:101A600003D028492068884204D12748006800F440
:101A7000806000E0002028B1A06A20F4005040F40B
:101A80008050A062A06A00F4805020B1E06A20F08B
:101A90000600E06201E00020E06200BF002084F860
:101AA000240000BFC01E216808602068806800F420
:101AB0006020B0F5602F16D112492068884208D105
:101AC0001148006800F4702008B9012002E00020ED
:101AD00000E0012038B12068806840F4A00021684F
:101AE00088600CE006E02068806840F4801021687F
:101AF000886004E000BF002084F8240000BF28466E
:101B000075E70000002801400424014070B5044638
:101B1000002594F82100022803D00420A0630125A9
:101B2000C1E02068006820F00E002168086020688D
:101B3000006820F00100216808605C492068884244
:101B400052D95A4978392068884201D1012047E0AA
:101B5000564964392068884201D1102040E0534939
:101B600050392068884201D1801539E04F493C390D
:101B70002068884201D1801432E04C49283920681D
:101B8000884202D14FF480302AE048491439206855
:101B9000884202D14FF4801022E0444920688842F4
:101BA00001D140041CE042492068884201D1012053
:101BB00016E03F4914312068884201D110200FE01F
:101BC0003B4928312068884201D1801508E0384916
:101BD0003C312068884201D1801401E04FF480300C
:101BE0003349091F086051E030497839206888423C
:101BF00001D1012047E02D4964392068884201D194
:101C0000102040E0294950392068884201D18015D0
:101C100039E026493C392068884201D1801432E0FD
:101C2000224928392068884202D14FF480302AE0C6
:101C30001E4914392068884202D14FF4801022E0F6
:101C40001A492068884201D140041CE018492068E4
:101C5000884201D1012016E01549143120688842DC
:101C600001D110200FE0124928312068884201D1AB
:101C7000801508E00E493C312068884201D180146B
:101C800001E04FF48030094980394860012084F830
:101C9000210000BF002084F8200000BF606B10B15D
:101CA0002046616B8847284670BD000080000240D6
:101CB0000804024010B50446A0B203F0B1F810BD0C
:101CC00010B50446142003F0ABF8012C0DD0082CFD
:101CD00006D0102C1BD110210E4800F0D1F916E0CF
:101CE00008210C4800F0CCF911E001210A4800F06D
:101CF000C7F901280AD10948007808B9012000E095
:101D000000200649087000200549087000BF00BF88
:101D100010BD000000180140000801400000002034
:101D20000100002010B5044604480068204020B19E
:101D3000024804602046FFF7C3FF10BD14040140B1
:101D40002DE9F847024600239C467BE14FF001084D
:101D500008FA03F4D1F8008008EA0400A0427DD11B
:101D6000DFF8F4A2D1F80480A8EB0A09D0453AD0F4
:101D700014DCB8F1030F50D009DCB8F1000F31D0FA
:101D8000B8F1010F1CD0B8F1020F49D120E0B8F131
:101D9000110F18D0B8F1120F42D11EE0B9F5881F0B
:101DA00025D006DCB9F5803F20D0B9F5801F37D1AA
:101DB0001AE0B9F5001F18D0B9F5041F30D117E0AB
:101DC000D1F80CC02DE0D1F80C8008F1040C28E00B
:101DD000D1F80C8008F1080C23E0D1F80C8008F150
:101DE0000C0C1EE000BF00BF00BF00BF00BF00BF63
:101DF000D1F80880B8F1000F02D14FF0040C0BE0CD
:101E0000D1F80880B8F1010F03D14FF0080C14612C
:101E100002E04FF0080C546103E04FF0000C00E0CA
:101E200000BF00BFFF2801D8904601E002F104087E
:101E30004646FF2802D84FEA830803E0A3F10808CA
:101E40004FEA88084746D6F800804FF00F0909FA94
:101E500007F928EA09080CFA07F900E07AE048EAED
:101E60000908C6F80080D1F8048008F08058B8F15D
:101E7000805F6FD100BFDFF8E481D8F8188048F0A8
:101E80000108DFF8D891C9F81880C846D8F818803A
:101E900008F00108CDF8008000BF00BF4FEAB93854
:101EA0004FEA930958F829504FEA83784FEA187996
:101EB0004FF00F0808FA09F825EA0805DFF8A081B5
:101EC000424502D14FF0000824E0DFF898814245F6
:101ED00002D14FF001081DE0DFF88C81424502D1AC
:101EE0004FF0020816E0DFF88481424502D14FF03E
:101EF00003080FE0DFF87881424502D14FF0040873
:101F000008E0DFF87081424502D14FF0050801E09A
:101F10004FF006084FEA83794FEA197908FA09F871
:101F200048EA0505DFF850814FEA930948F829503F
:101F3000D1F8048008F48038B8F5803F0BD1DFF881
:101F40003C81D8F8008048EA0008DFF83091C9F8F1
:101F500000800AE075E0DFF82481D8F8008028EAE4
:101F60000008DFF81891C9F80080D1F8048008F45F
:101F70000038B8F5003F0ED1DFF8008108F1040801
:101F8000D8F8008048EA0008DFF8F09009F1040969
:101F9000C9F800800DE0DFF8E48008F10408D8F803
:101FA000008028EA0008DFF8D49009F10409C9F894
:101FB0000080D1F8048008F48018B8F5801F0ED195
:101FC000DFF8B88008F10808D8F8008048EA00086F
:101FD000DFF8A89009F10809C9F800800DE0DFF8E2
:101FE0009C8008F10808D8F8008028EA0008DFF88B
:101FF0008C9009F10809C9F80080D1F8048008F430
:102000000018B8F5001F0ED1DFF8708008F10C0839
:10201000D8F8008048EA0008DFF8609009F10C0960
:10202000C9F800800DE0DFF8548008F10C08D8F8FA
:10203000008028EA0008DFF8449009F10C09C9F88B
:1020400000805B1CD1F8008028FA03F8B8F1000F7B
:102050007FF47CAEBDE8F88700001110001002404C
:1020600000080140000C0140001001400014014034
:1020700000180140001C014008000140000401401C
:10208000024693680B400BB1012000E0002070472E
:1020900010B5C26821EA020302EA010443EA0443DC
:1020A000036110BD0AB1016101E00B0403617047D7
:1020B00001480068704700001800002003480068CD
:1020C0000349097808440149086070471800002056
:1020D0002000002010B50848006840F010000649B4
:1020E0000860052000F080F80F2000F007F800F0ED
:1020F0002BF8002010BD00000020024070B50446FF
:102100000E4800784FF47A71B1FBF0F00C49096881
:10211000B1FBF0F5284600F091FD08B1012070BD3B
:10212000102C07D200222146501E00F01EF8054850
:10213000046001E00120F2E70020F0E72000002029
:10214000080000201C0000207047014608460028B7
:1021500009DB00F01F0301229A4043099B0003F1B1
:10216000E023C3F8002100BF70472DE9F05F8046EF
:102170000D461646002702F04BFC074639462A4614
:10218000334601F00700C0F1070ABAF1040F02D983
:102190004FF0040A01E0C0F1070AD14600F1040A39
:1021A000BAF1070F02D24FF0000A01E0A0F1030AD2
:1021B000D4464FF0010A0AFA09FAAAF1010A0AEA1A
:1021C000020A0AFA0CFA4FF0010B0BFA0CFBABF106
:1021D000010B0BEA030B4AEA0B042146404602F0CE
:1021E0001FFCBDE8F09F000000BF00F00702064B97
:1021F00019684FF6FF031940044B0B4343EA0221D1
:10220000014B196000BF70470CED00E00000FA05BB
:102210002DE9F04385B0064642A30FCB01AC0FC4B5
:1022200044A0006800904FF000080025002700241B
:10223000A146042E36D004DC012E3BD0022E6BD1F9
:102240005FE0082E32D0102E66D13B48446800680B
:1022500000F0807000B301A8C4F38341475C04F42C
:10226000803070B134484068C0F340401DF80080B1
:1022700004F4803040B13148B0FBF8F000FB07F5C2
:1022800002E02F4807FB00F52B48406800F480006F
:10229000B0F5800F01D1A94603E068000321B0FB2F
:1022A000F1F93AE000F0D2F9814636E000F0CEF9DB
:1022B000814632E02048046A04F44070B0F5807F23
:1022C00005D104F0020010B14FF4004918E004F405
:1022D0004070B0F5007F07D11748406A00F0020057
:1022E00010B149F640490BE004F44070B0F5407F6E
:1022F00006D11148006800F4003008B14FF22449BB
:102300000BE000F093F90C494968C1F38131491C95
:102310004900B0FBF1F900E000BF00BF484605B03E
:10232000BDE8F08302030405060708090A0B0C0D3B
:102330000E0F1010010200000010024000127A007F
:1023400000093D00F8B5044600260025207800F07D
:10235000010000286BD000274348C06900F080507E
:1023600070B900BF4048C06940F080503E49C86124
:102370000846C06900F08050009000BF00BF0127F0
:102380003A48006800F48070B0B93848006840F4FA
:10239000807036490860FFF78BFE064606E0FFF7BF
:1023A00087FE801B642801D90320F8BD2F480068F0
:1023B00000F480700028F2D02B48006A00F44075C9
:1023C0002DB3A08800F44070A84220D02648006AAF
:1023D00020F440750120264908600020086022484A
:1023E000056205F0010090B1FFF762FE064608E0C5
:1023F000FFF75EFE801B41F28831884201D903203D
:10240000D3E71948006A00F002000028F0D016480F
:10241000006A20F440706168084313490862012F84
:1024200004D10846C06920F08050C86100BF207800
:1024300000F00200022807D10B48406820F4404019
:10244000A168084308494860207800F0100010286F
:1024500007D10548406820F48000616908430249BB
:1024600048600020A1E7000000100240007000401A
:102470004004424270B504460D460CB9012070BDBF
:102480005A48006800F00700A8420ED2574800687A
:1024900020F007002843554908600846006800F00E
:1024A0000700A84201D00120E9E7207800F00200EF
:1024B00002281DD1207800F00400042805D14C48E2
:1024C000406840F4E0604A494860207800F0080025
:1024D000082805D14648406840F4605044494860A7
:1024E0004348406820F0F000A16808434049486034
:1024F000207800F0010078B36068012806D13C48DC
:10250000006800F4003090B90120B8E76068022844
:1025100006D13748006800F0007040B90120AEE7EE
:102520003348006800F0020008B90120A7E73048EE
:10253000406820F00300616808432D494860FFF7B8
:10254000B7FD064609E0FFF7B3FD801B41F2883175
:10255000884202D9032092E707E02548406800F04E
:102560000C006168B0EB810FEDD12048006800F0ED
:102570000700A8420ED91D48006820F00700284334
:102580001A4908600846006800F00700A84201D018
:10259000012074E7207800F00400042807D11448D3
:1025A000406820F4E060E168084311494860207801
:1025B00000F00800082808D10D48406820F4605059
:1025C000216940EAC1000A49486000F03FF8084923
:1025D0004968C1F30311074A515CC84006490860C5
:1025E00006480068FFF78AFD002048E70020024007
:1025F00000100240A4AE0008080000201C000020CB
:1026000001480068704700000800002000B5FFF78F
:10261000F7FF04494968C1F30221034A515CC840ED
:1026200000BD000000100240B4AE000800B5FFF786
:10263000E7FF04494968C1F3C221034A515CC8401D
:1026400000BD000000100240B4AE0008F0B585B037
:102650000FF26C0C9CE8E01001A8A0E8E0101CA5AB
:102660002D68009500210022002300240020194D30
:10267000696801F00C05F5B1042D02D0082D19D1BF
:1026800001E0154819E001ADC1F38346AC5D01F4EA
:10269000803555B10F4D6D68C5F340451DF80520D7
:1026A0000D4D6543B5FBF2F302E00C4D04FB05F361
:1026B000184602E000BF084800BF00BF05B0F0BDEB
:1026C00002030405060708090A0B0C0D0E0F101073
:1026D000010200000010024000127A0000093D00D3
:1026E000F8B504460CB90120F8BD207800F00100CF
:1026F000002878D0F848406800F00C0004280CD07E
:10270000F548406800F00C00082811D1F2484068F4
:1027100000F48030B0F5803F0AD1EF48006800F443
:10272000003000285FD0606800285CD10120DBE722
:1027300000BF6068B0F5803F06D1E748006840F40C
:102740008030E549086028E0606858B9E2480068D0
:1027500020F48030E04908600846006820F48020BA
:1027600008601AE06068B0F5A02F0BD1DA48006865
:1027700040F48020D84908600846006840F4803062
:1027800008600AE0D448006820F48030D24908602C
:102790000846006820F48020086000BF606888B1A7
:1027A000FFF786FC054606E0FFF782FC401B642825
:1027B00001D9032098E7C848006800F400300028D9
:1027C000F2D010E0FFF774FC054606E0FFF770FC5E
:1027D000401B642801D9032086E7BF48006800F445
:1027E00000300028F2D1207800F00200022857D1F2
:1027F000B948406800F00C0050B1B748406800F09C
:102800000C00082818D1B448406800F4803098B90A
:10281000B148006800F0020020B12069012801D011
:10282000012061E7AC48006820F0F800616940EAE7
:10283000C100A949086033E02069E8B10120A74937
:102840000860FFF735FC054606E0FFF731FC401B4A
:10285000022801D9032047E79F48006800F00200E2
:102860000028F2D09C48006820F0F800616940EA36
:10287000C1009949086013E0002098490860FFF7FB
:1028800017FC054606E0FFF713FC401B022801D9A0
:10289000032029E79048006800F002000028F2D1E8
:1028A000207800F0080008282DD1A069B8B10120D7
:1028B0008B490860FFF7FCFB054606E0FFF7F8FBD5
:1028C000401B022801D903200EE78348406A00F02C
:1028D00002000028F2D0012001F0F4FE13E00020F5
:1028E0007F490860FFF7E4FB054606E0FFF7E0FBE1
:1028F000401B022801D90320F6E67748406A00F021
:1029000002000028F2D1207800F00400042873D1DE
:1029100000277148C06900F0805070B900BF6E4850
:10292000C06940F080506C49C8610846C06900F039
:102930008050009000BF00BF01276A48006800F483
:102940008070B0B96748006840F4807065490860DD
:10295000FFF7AEFB054606E0FFF7AAFB401B642825
:1029600001D90320C0E65F48006800F480700028A9
:10297000F2D000BFE068012806D15748006A40F055
:1029800001005549086227E0E06858B95248006ADA
:1029900020F00100504908620846006A20F0040057
:1029A000086219E0E06805280BD14B48006A40F046
:1029B0000400494908620846006A40F001000862C4
:1029C0000AE04548006A20F00100434908620846D1
:1029D000006A20F00400086200BFE068A0B1FFF7C1
:1029E00067FB054609E0FFF763FB401B41F28831B6
:1029F000884202D9032077E622E03748006A00F0D7
:102A000002000028EFD012E0FFF752FB054608E075
:102A1000FFF74EFB401B41F28831884201D9032069
:102A200062E62D48006A00F002000028F0D1012F74
:102A300005D12948C06920F080502749C86100BFEE
:102A4000E069C8B32448406800F00C00082860D052
:102A5000E069022848D1002020490866FFF728FBDA
:102A6000054606E0FFF724FB401B022801D903209E
:102A70003AE61948006800F000700028F2D1206A98
:102A8000B0F5803F07D11448406820F40030A168B9
:102A9000084311494860D4E9080108430E494968D0
:102AA00021F4741108430C49486001200B49086661
:102AB000FFF7FEFA054607E03DE0FFF7F9FA401B95
:102AC000022801D903200FE60348006800F00070D7
:102AD0000028F2D02FE00000001002400000424227
:102AE0008004424200700040002014490866FFF74D
:102AF000DFFA054606E0FFF7DBFA401B022801D9A2
:102B00000320F1E50E48006800F000700028F2D1C3
:102B100011E0E069012800D1E6E50948466806F4BD
:102B20008031206A814204D106F47011606A8142CA
:102B300001D00120D8E50020D6E500000000424287
:102B40000010024070B504460E4615461CB1A0693F
:102B5000B0F5807F01D1012070BD94F8410028B903
:102B6000002084F84000204600F020F804F108011D
:102B70002068FEF735FC3146A2682068FEF76CFC41
:102B80002946236BD4E90102FEF708FCA1682068FE
:102B900050F8210040F00100A268216841F82200AD
:102BA000012084F841000020D6E7000010B586B06F
:102BB000044600BF1E48406940F480701C494861CB
:102BC0000846406900F48070019000BF00BF00BF5C
:102BD0000846806940F0200088610846806900F05E
:102BE0002000019000BF00BF00BF0846806940F090
:102BF000400088610846806900F04000019000BFF5
:102C000000BF4CF203700290022003900120049058
:102C10000320059002A90748FFF792F84FF680704D
:102C2000029002A90448FFF78BF806B010BD00001F
:102C300000100240001401400018014070B5044625
:102C40002546681EB0F1807F01D301200FE0681E89
:102C50004FF0E02148610F214FF0FF3001F0E0FE1E
:102C600000204FF0E021886107200861002070BD3E
:102C700070477047704710B5044620680069C0F37C
:102C80004000D8B12068C068C0F34000B0B16FF018
:102C9000020021680861012020772068806900F027
:102CA000030018B12046FFF7E5FF05E0204600F0DD
:102CB000ADF8204600F0ABF80020207720680069CE
:102CC000C0F38000D8B12068C068C0F38000B0B104
:102CD0006FF0040021680861022020772068806975
:102CE00000F4407018B12046FFF7C4FF05E020460D
:102CF00000F08CF8204600F08AF800202077206849
:102D00000069C0F3C000D8B12068C068C0F3C0003B
:102D1000B0B16FF0080021680861042020772068B6
:102D2000C06900F0030018B12046FFF7A3FF05E0DB
:102D3000204600F06BF8204600F069F8002020776C
:102D400020680069C0F30010D8B12068C068C0F3E3
:102D50000010B0B16FF010002168086108202077E2
:102D60002068C06900F4407018B12046FFF782FF68
:102D700005E0204600F04AF8204600F048F8002020
:102D800020772068006900F0010058B12068C06811
:102D900000F0010030B16FF00100216808612046A9
:102DA00000F036F820680069C0F3C01058B1206800
:102DB000C068C0F3C01030B16FF0800021680861B6
:102DC0002046FFF755FF20680069C0F3801058B116
:102DD0002068C068C0F3801030B16FF040002168F7
:102DE0000861204600F042F820680069C0F34010F6
:102DF00058B12068C068C0F3401030B16FF02000B7
:102E0000216808612046FFF734FF10BD7047704706
:102E100010B504461149206888421ED11048007838
:102E200060B100BF20210F48FFF732F900BF00BF9B
:102E30004FF480710B48FFF72BF90EE000BF012221
:102E400020210948FFF72EF900BF00BF00224FF4F0
:102E500080710448FFF726F900BF10BD0010004044
:102E600000000020000C014000180140704770472E
:102E70002DE9F0470446206805682068C668206888
:102E800047694FF00008C14605F00F08B8F1000F80
:102E90000AD105F0200038B106F0200020B120460C
:102EA00001F05CFCBDE8F087B8F1000F71D007F0CD
:102EB000010018B906F4907000286AD005F00100EE
:102EC00030B106F4807018B1E06B40F00100E063AF
:102ED00005F0040030B107F0010018B1E06B40F0DC
:102EE0000200E06305F0020030B107F0010018B104
:102EF000E06B40F00400E06305F0080048B106F024
:102F0000200010B907F0010018B1E06B40F0080094
:102F1000E063E06B68B305F0200028B106F0200004
:102F200010B1204601F01AFC20684069C0F38019F6
:102F3000E06B00F0080010B9B9F1000F22D0204674
:102F400001F0ECFB2068406900F04000B0B120685F
:102F5000406920F0400021684861606B50B118481A
:102F6000616B4863606BFEF7D1FD10B1606B416B24
:102F700088470CE02046FFF77AFF08E02046FFF77D
:102F800076FF04E02046FFF772FF0020E06389E748
:102F9000FFE705F0800030B106F0800018B1204650
:102FA00001F0AAFC7EE705F0400030B106F04000D9
:102FB00018B1204601F0C2FB74E700BF72E70000C1
:102FC0000947000810B504460CB9012010BDA069DE
:102FD00000B100E000BF94F8390028B9002084F85F
:102FE0003800204600F028F8242084F839002068B2
:102FF000C06820F400502168C860204601F0FEFB44
:103000002068006920F490402168086120684069C8
:1030100020F02A00216848612068C06840F4005010
:103020002168C8600020E063202084F8390084F81B
:103030003A000020CAE7000010B586B004465049A7
:10304000206888424AD100BF00BF4E48806940F0E6
:1030500004004C4988610846806900F00400019032
:1030600000BF00BF00BF00BF00BF0846806940F03E
:10307000040088610846806900F00400019000BFE8
:1030800000BF00BF00BF00BF0846806940F4804019
:1030900088610846806900F48040019000BF00BF4D
:1030A00000BF4815029002200390012004900320E5
:1030B000059002A93448FEF743FE4FF48060029069
:1030C0000020039002A93048FEF73AFE2520FFF7C2
:1030D0003CF8032211462520FFF747F82B492068CA
:1030E00088424AD100BF00BF2648806940F00800EE
:1030F000244988610846806900F00800019000BFFB
:1031000000BF00BF00BF00BF0846806940F0080054
:1031100088610846806900F00800019000BF00BF88
:1031200000BF00BF00BF0846C06940F48020C861EE
:103130000846C06900F48020019000BF00BF00BFB6
:1031400008150290022003900120049003200590AE
:1031500002A90F48FEF7F4FD4FF400600290002032
:10316000039002A90A48FEF7EBFD2720FEF7EDFFCA
:10317000032211462720FEF7F8FF06B010BD00001D
:1031800000380140001002400008014000480040A3
:10319000000C014010B5034693F83A0020282FD1C7
:1031A00001B10AB9012010BD00BF93F83800012811
:1031B00001D10220F7E7012083F8380000BF9962AF
:1031C0009A85DA850020D863222083F83A0000BF70
:1031D000002083F8380000BF1868C06840F4807091
:1031E0001C68E0601868406940F001001C6860617C
:1031F0001868C06840F020001C68E0600020D2E73A
:103200000220D0E710B504463349206888423BD1FC
:103210003248008800F4004088BB3048008800F441
:10322000804070B12E4800780A2803D000202B4936
:10323000088024E02948008840F40040274908809D
:103240001DE0274800780D2806D12448008840F466
:1032500080402249088012E0214800781F490988EF
:10326000C1F30D011F4A50541C480088401C1B49E3
:10327000088008460088C72801DD00200880012258
:1032800017491948FFF786FF18492068884222D15C
:1032900017480088FF280FDB0020154908804FF4ED
:1032A00000711448FDF7A5FA4FF6FF730A2212A128
:1032B000144800F02BF809E0134801780C48028804
:1032C0000088401C0A4B18800A48815401220E498C
:1032D0000C48FFF75FFF10BD0038014014000020CC
:1032E0001600002040000020080100200048004097
:1032F0003800002058020020CAFDBEDDD2E7B3F638
:1033000000000000480100203C0000202DE9F84F9B
:1033100004460E46174699464FF0000A94F83900C5
:1033200020285AD106B117B90120BDE8F88F00BF97
:1033300094F83800012801D10220F6E7012084F832
:10334000380000BF0020E063212084F83900FEF738
:10335000AFFE8246A784E784A068B0F5805F04D101
:10336000206910B90025B04602E035464FF000084C
:1033700000BF002084F8380000BF1BE05346002245
:1033800080212046CDF8009001F0E6FA08B1032034
:10339000CBE745B9B8F80000C0F3080021684860E1
:1033A00008F1020803E02878216848606D1CE08C71
:1033B000401EE084E08C0028E0D1534600224021EA
:1033C0002046CDF8009001F0C7FA08B10320ACE721
:1033D000202084F839000020A7E70220A5E77047E5
:1033E00000BFFEE710B5044684F001022021034827
:1033F000FEF758FE0248047010BD0000001801409E
:103400002100002010B50446207B012802D120684D
:10341000FCF740FF002020606060A060207310BDBA
:103420000246002301230DE002F07F000870D2095C
:103430002AB1087840F080000870491C01E0184665
:1034400070475B1C042BEFDD4FF0FF30F8E770B5E1
:1034500004460E460025206898B9012020733046A6
:10346000FCF7E9FE20602068E0B100206060A66003
:1034700003E00020216848556D1CA068A842F8D8D8
:1034800010E00220207303E00020216848556D1CE5
:10349000A068A842F8D800206060A068B04201D2BD
:1034A0000020206070BD00002DE9FF4F83B08246F0
:1034B0008B469146159C0025002002900F27019015
:1034C0004846FDF7A9F80FFA80F8B9F1000F03D1CB
:1034D000012007B0BDE8F08F08F10200384487B240
:1034E000109808B145F00205129878B145F004052E
:1034F0001298FDF791F8C0B202901398FDF78CF87E
:1035000001460298001D0844384487B2119820B142
:10351000012804D0022808D104E000BF07E045F0EC
:103520000C0504E045F0140501E00220D1E700BFDE
:10353000149808B145F02405BAF1000F02D0BBF190
:10354000000F01D10320C4E745F0C0055046FDF748
:1035500063F806465846FDF75FF83044001D3844CE
:1035600087B239462046FFF772FF206808B9042069
:10357000AFE739462068FDF73CF910216268501C1E
:10358000606020688154D4E90023D118781FFFF7C8
:1035900047FF00B201900198002804DA2046FFF7A7
:1035A00031FF052095E761680198084460600021BB
:1035B0006268501C60602068815404216268501C5D
:1035C0006060206881544D216268501C60602068F2
:1035D000815451216268501C6060206881545421DC
:1035E0006268501C6060206881546268501C606092
:1035F0002068815404216268501C606020688154F6
:103600006168481C6060206845540698010A626839
:10361000501C6060206881540698C1B26268501CDA
:10362000606020688154C8F307216268501C6060A4
:10363000206881546268501C6060206800F8028035
:10364000D4E90012881842464946FCF79DFF60689D
:103650004044606005F00400B8B30026139808B930
:1036600038A013901298FCF7D7FF86B2310A62682F
:10367000501C6060206881546268501C6060206843
:103680008654D4E90012881832461299FCF77CFF60
:103690006068304460601398FCF7BEFF86B2310A60
:1036A0006268501C6060206881546268501C6060D1
:1036B00020688654D4E90012881832461399FCF722
:1036C00063FF60683044606000BF05F08000C8B1EF
:1036D0005046FCF7A1FF86B2310A6268501C606058
:1036E000206881546268501C606020688654D4E968
:1036F0000012881832465146FCF746FF6068304495
:10370000606000BF05F04000C8B15846FCF784FF78
:1037100086B2310A6268501C606020688154626819
:10372000501C606020688654D4E900128818324624
:103730005946FCF729FF60683044606000BF0020F4
:10374000C7E60000000000002DE9FF4F83B083466C
:1037500017469946139C00250026002002900190F0
:103760008046BBF1000F03D1012007B0BDE8F08F08
:1037700000260AE00498805D232803D00498805D29
:103780002B2801D10220F0E7761C0498805D0028E8
:10379000F0D148F03008119808B148F0010806EB64
:1037A0000900851C109820B1012804D002280AD1F4
:1037B00005E000BF09E048F00208AD1C05E048F054
:1037C0000408AD1C01E00320CFE700BF8FB33878B9
:1037D000022821D14FF0000A00BF50460AF1010A29
:1037E000385C7D28F9D1AAF1030A0AF1070002909A
:1037F0000298A9EB000AE81CA0EB0A012046FFF79B
:1038000026FE206808B90420AFE7EA1CA2EB0A01F3
:103810002068FCF7EEFF19E0691D2046FFF717FE50
:10382000206808B90420A0E7691D2068FCF7E1FFC3
:103830000CE0FFE7691D2046FFF709FE206808B984
:10384000042092E7691D2068FCF7D3FF6168481CDB
:103850006060206800F80180D4E9000281182846E1
:10386000FFF7DEFD01900198002804DA2046FFF7FB
:10387000C9FD052079E76168019808446060C6F3D6
:1038800007216268501C6060206881546268501C87
:10389000606020688654D4E9001288183246049982
:1038A000FCF772FE606830446060109860B14FEAC7
:1038B0001B216268501C6060206881546268501C43
:1038C0006060206800F802B0C7B1387802280BD1D8
:1038D000D4E9001288183946029AFCF713FF616890
:1038E00002980844606009E0D4E9001288184A464A
:1038F0003946FCF707FF606848446060002034E701
:103900002DE9F04190B004460D4616469846169FA4
:1039100023460CA2302104A80095FCF70FFD0120DE
:103920000021CDE9000133460A4604A9CDE902078A
:103930000A20FFF709FF18B1012010B0BDE8F0819F
:103940000020FAE7247379732F25732F25732F74C2
:1039500068696E672F70726F70657274792F706FFF
:10396000737400002DE9FF5F8046174699460E9C50
:103970000026B246B3460025B8F1000F03D101205E
:1039800004B0BDE8F09F0BE057F8250008B902200D
:10399000F6E757F82500FCF73FFE0644681CC5B261
:1039A0004D45F1DB09EB4900801C00EB060A0AF1EA
:1039B00005012046FFF74BFD206808B90320DFE72B
:1039C00082216268501C606020688154D4E9000242
:1039D00081185046FFF724FD0FFA80FBBBF1000F62
:1039E00004DA2046FFF70EFD0420C9E7606858445A
:1039F00060604FEA18216268501C60602068815442
:103A00006268501C6060206800F80280002524E095
:103A100057F82500FCF700FE0646C6F3072162684A
:103A2000501C6060206881546268501C606020688F
:103A30008654D4E90023D01857F825103246FCF7F5
:103A4000A3FD6068304460600198C1B26268501C98
:103A5000606020688154681CC5B24D45D8DB0020E9
:103A60008EE7F0B504460D4626460123002010607F
:103A7000002114E0775C07F07F07106807FB030064
:103A80001060705C00F0800008B9481CF0BDDB01DC
:103A9000B3F5001F02D36FF00100F7E7491CA942FC
:103AA000E8DB4FF0FF30F1E701464878022801D00B
:103AB00001207047887810B18878012801D1C87832
:103AC000F7E7FF20F5E700002DE9FC5F81460D4692
:103AD00014461E46DDE90C8B99F8000000F00F0A31
:103AE000002001900AF008000090CAF341008BF812
:103AF000000001AA042109F10100FFF7B2FF4844C8
:103B0000471C0198022802D30AF0010010B1FF20DF
:103B1000BDE8FC9F7878397840EA01202080208831
:103B2000801C0199884201D9FF20F1E754A1B81CFB
:103B3000FCF73CFD08B10F20EAE79BF8000020B13C
:103B400001283DD0022877D13BE0009808B1FF2042
:103B5000DEE72188481CFCF76EFB2860286808B95E
:103B6000FF20D5E72288511C2868FCF742FE2288F6
:103B7000B91C2868FCF7C6FD0198801E2188401AF0
:103B8000A8F80000B8F80010481CFCF754FB30609F
:103B9000306820B92868FCF77DFBFF20B8E7B8F84B
:103BA0000020511C3068FCF724FEB8F80020B4F85F
:103BB00000C0BB1C0CEB03013068FCF7A3FD4FE019
:103BC00000BF2088801C0199884201D9FF209FE70F
:103BD0002088C01C395C2088801C385C41EA0021A8
:103BE0000E9801800E9808B9FF2091E72188481CA3
:103BF000FCF721FB2860286808B9FF2088E72288A5
:103C0000511C2868FCF7F5FD2288B91C2868FCF7D0
:103C100079FD0198001F2188401AA8F80000B8F823
:103C20000010481CFCF707FB3060306828B9286892
:103C3000FCF730FBFF206BE710E0B8F80020511CC8
:103C40003068FCF7D6FDB8F80020B4F800C03B1D82
:103C50000CEB03013068FCF755FD01E0FF2057E74E
:103C600000BF2B212846FCF785FC20B923212846DC
:103C7000FCF780FC08B1FF204AE7002048E700007D
:103C8000246372657100000001464878022801D063
:103C900001207047887820B9C8780A2801D100200F
:103CA000F7E70120F5E70000F8B50446FF27207884
:103CB0000511012D01DB0E2D01DD3846F8BD032D68
:103CC00024D1002000906A460421601CFFF7C9FE41
:103CD0002044461C0098022803D3207800F00100FD
:103CE00008B1FF20EAE77078317840EA0120801CB3
:103CF0000099884201D9FF20E0E706A1B01CFCF73B
:103D000055FC08B10F2700E0032700E02F46384696
:103D1000D4E7000024637265710000000146FF20B3
:103D20008A78A2B9CA78142A11D10A7932B1012A43
:103D300005D0022A04D0802A06D103E000BF00BFCC
:103D4000002003E0012001E0022000BF00BF704717
:103D500000BFFEE770470000F0B58BB005460026B7
:103D600000242846FCF758FCC7B20DB11C2F02DA1C
:103D700001200BB0F0BD06E0A85D01A98855002028
:103D8000A855701CC6B2BE42F6DB002001A98855BA
:103D90000026002455E001A8805D2B2810D008DC07
:103DA000202814D023282ED0252825D026283FD1FE
:103DB00030E02F2812D03D2833D03F2838D114E0EE
:103DC000281923A1FCF792FCE01CC4B236E02819A4
:103DD00020A1FCF78BFCE01CC4B22FE028191EA127
:103DE000FCF784FCE01CC4B228E028191BA1FCF7F6
:103DF0007DFCE01CC4B221E0281919A1FCF776FC77
:103E0000E01CC4B21AE0281916A1FCF76FFCE01CF4
:103E1000C4B213E0281914A1FCF768FCE01CC4B27A
:103E20000CE0281911A1FCF761FCE01CC4B205E00C
:103E300001A8805D2855601CC4B200BF00BF701C83
:103E4000C6B2BE42A7DB0020285500BF91E70000A4
:103E50002532420025323000253246002533460007
:103E60002532350025323300253236002533440013
:103E70002DE9F04FC9B005460C4616461F460DF514
:103E8000A47898E8000F0020489055B14CB13F4805
:103E9000864206D32FB1B9F1000F02D0BAF1780FE4
:103EA00003DA012049B0BDE8F08F402118A8FCF7E3
:103EB000C2FC3846FCF7B0FB05903B4648AA4021BF
:103EC000009018A8FCF73EFF482106A8FCF7B3FCB9
:103ED000BBF1000F09D02EA033462FA248218DE858
:103EE000310006A8FCF72AFA09E029A0334630A2DF
:103EF00048218DE81101039506A8FCF71FFA40211F
:103F000028A8FCF798FC06A8FCF786FB059018A8E3
:103F1000FCF782FB049028A8009006AA18A8DDE907
:103F2000041301F029F900204890402138A8FCF73B
:103F300082FC28A8FCF770FB059028AB48AA40211A
:103F4000009038A8FCF7B4FF38A8FFF705FFBBF1D5
:103F5000000F0CD038A80EA12B461DA2CDE90046BB
:103F6000CDE9021051464846FCF7E8F90CE038A8C4
:103F700007A12B46244ACDE901860094CDE9031020
:103F800051464846FCF7DAF900208BE79554415D2D
:103F9000736861310000000025640A25730A70729D
:103FA0006F64756374732F25730A25730000000016
:103FB00025640A25730A70726F64756374732F2504
:103FC000732F646576696365732F25730A25730003
:103FD00076657273696F6E3D2573267265733D70E9
:103FE000726F647563747325253246257326657474
:103FF0003D2564266D6574686F643D25732673697D
:10400000676E3D2573000000A8DF000800B595B07D
:104010000020119012901390149003A802900FA00A
:104020000FA312A23821009003A8FCF787F903A977
:1040300016A0FCF763F911A8012302AA0021009041
:104040001420FFF78FFC38B9129A91B21198FDF73E
:1040500047F911A8FFF7D6F915B000BD64657600E1
:10406000723548313734754A42360000247379730B
:104070002F25732F25732F7468696E672F70726FE9
:1040800070657274792F73657400000053756273E4
:10409000637269626520546F7069633A2025730DFD
:1040A0000A00000030B5B3B000202F90309031905E
:1040B00032900125A02107AA32A3CDE90032CDE933
:1040C000021031A33C4A3DA13FA0FFF7D1FE07AB50
:1040D0003AA22CA13FA0FCF711F92FA800210291D0
:1040E0000391CDE90410084601214B0225A2CDE938
:1040F000001007A931A0FFF7D7F900283BD1309A6B
:1041000091B22F98FDF7ECF8FA20FCF781FF0446F6
:10411000002C2CD02046FFF7C7FD022827D12046CF
:10412000FFF7C2FC06281DD2DFE800F003080C10E0
:10413000141834A0FCF7E2F8002517E036A0FCF7CD
:10414000DDF813E03BA0FCF7D9F80FE042A0FCF744
:10415000D5F80BE048A0FCF7D1F807E04FA0FCF73A
:10416000CDF803E058A0FCF7C9F800BF00BF2FA8A6
:10417000FFF748F902E05BA0FCF7C0F8284633B02F
:1041800030BD0000646576004D6E46766231525057
:10419000656D687262566B336445524B616E427A4C
:1041A000555856795A486C534D444E765358526977
:1041B000566A4D3D0000000000CF9D7472354831B5
:1041C0003734754A42360000323031382D31302DC7
:1041D000333100004F6E654E45545F4465764C693F
:1041E0006E6B0D0A4E414D453A2025732C095052F5
:1041F0004F49443A2025732C094B45593A25730DF4
:104200000A000000546970733A09C1ACBDD3B3C948
:10421000B9A60D0A000000005741524E3A09C1AC40
:10422000BDD3CAA7B0DCA3BAD0ADD2E9B4EDCEF30A
:104230000D0A00005741524E3A09C1ACBDD3CAA77E
:10424000B0DCA3BAB7C7B7A8B5C4636C69656E74B0
:1042500069640D0A000000005741524E3A09C1AC92
:10426000BDD3CAA7B0DCA3BAB7FECEF1C6F7CAA7C2
:10427000B0DC0D0A000000005741524E3A09C1ACB3
:10428000BDD3CAA7B0DCA3BAD3C3BBA7C3FBBBF2E1
:10429000C3DCC2EBB4EDCEF30D0A00005741524E21
:1042A0003A09C1ACBDD3CAA7B0DCA3BAB7C7B7A897
:1042B000C1B4BDD328B1C8C8E7746F6B656EB7C70A
:1042C000B7A8290D0A0000004552523A09C1ACBDF9
:1042D000D3CAA7B0DCA3BACEB4D6AAB4EDCEF30D40
:1042E0000A0000005741524E3A094D5154545F5054
:1042F00061636B6574436F6E6E65637420466169BC
:104300006C65640D0A00000010B58CB004463021C5
:104310006846FCF790FA26A12046FCF759F93021AF
:104320006846FCF788FA2848027828A16846FBF717
:10433000F1FF69462046FCF7D9F930216846FCF7C1
:104340007AFA2848027828A16846FBF7E3FF694615
:104350002046FCF7CBF930216846FCF76CFA284878
:10436000B0F9002027A16846FBF7D4FF6946204634
:10437000FCF7BCF930216846FCF75DFA2748007865
:1043800008B127A000E028A0024629A16846FBF753
:10439000C1FF69462046FCF7A9F92AA12046FCF78F
:1043A000A5F92046FCF738F9C0B20CB010BD0000EA
:1043B0007B226964223A22313233222C22706172CC
:1043C000616D73223A7B0000020000202254656D6B
:1043D00070223A7B2276616C7565223A25647D2CC9
:1043E00000000000030000202248756D69223A7B1E
:1043F0002276616C7565223A25647D2C00000000F0
:1044000004000020224C69676874223A7B2276619E
:104410006C7565223A25647D2C0000002100002087
:10442000747275650000000066616C7365000000C1
:10443000226C6564223A7B2276616C7565223A258E
:10444000737D00007D7D00002DE9F04F89B00746A7
:104450000020089007900690059004900024002505
:10446000804681463846FFF71FFC0446032C04D0E3
:10447000042C39D0092C4BD13EE0314804A905AABF
:1044800008ABCDE90021029006AA07A93846FFF73C
:104490001BFB0546002D26D18246BDF81400009076
:1044A000BDF8182027A0DDE90713FBF727FF0898C0
:1044B00000F050FC834632A1584600F02BFC0390DC
:1044C00031A1039800F026FC064646B1F0680128A9
:1044D00002D1FEF787FF02E00020FEF783FF584677
:1044E00000F0ECFB00BF00BF3846FFF7CDFB10B972
:1044F00026A0FBF703FF0EE03846FFF70FFC18B9C4
:104500002AA0FBF7FBFE02E02FA0FBF7F7FE02E07C
:104510004FF0FF3500BF00BFFCF770FD681C10B9FD
:1045200009B0BDE8F08F0F2C01D0032C05D10798FE
:10453000FBF7B0FE0898FBF7ADFE00BFF0E7000008
:104540003E000020746F7069633A2025732C20743C
:104550006F7069635F6C656E3A2025642C20706112
:10456000796C6F61643A2025732C207061796C6FCF
:1045700061645F6C656E3A2025640D0A00000000DE
:10458000706172616D7300006C65640054697073D2
:104590003A094D515454205075626C697368205328
:1045A000656E64204F4B0D0A000000005469707363
:1045B0003A094D51545420537562736372696265B0
:1045C000204F4B0D0A000000546970733A094D5199
:1045D0005454205375627363726962652045727228
:1045E0000D0A000030B5C5B00020419042904390C4
:1045F0004490002400251AA0FBF780FE4FF4807140
:1046000001A8FCF718F901A8FFF77EFE0446002C6C
:1046100024D041A80023224619A1009019A0FFF739
:104620006FF9C0B908E001A8415D429A501C429060
:1046300041988154681C05B2A542F4DB429A91B2BC
:104640004198FCF74DFE12A04299FBF757FE41A896
:10465000FEF7D8FE02E012A0FBF750FE45B030BDD9
:10466000546970733A094F6E654E65745F53656E99
:1046700064446174612D4D5154540D0A00000000D2
:1046800064657600723548313734754A4236000029
:1046900053656E642025642042797465730D0A00A9
:1046A0005741524E3A094544505F4E657742756610
:1046B000666572204661696C65640D0A0000000041
:1046C0007047000008B508490968C9084FF47A72B4
:1046D000B1FBF2F14143009100BF00BF00994A1EB7
:1046E00000920029F9D108BD08000020704710B5DC
:1046F000FDF7E4FC10BD704710B50248FEF7BBFAA9
:1047000010BD00001002002070B505466C6A002044
:10471000E085E0842046FEF7AAFB70BD0168C96809
:1047200021F490710268D1600168496921F00101AA
:1047300002685161202180F83A10704710B5044694
:104740002068C06820F040002168C860202084F8FC
:1047500039002046FEF743FE002010BD70B5044628
:1047600094F83A00222847D1A068B0F5805F0CD1B8
:10477000206950B90025A66A20684068C0F3080087
:104780003080A06A801CA06215E0A56A0026A0689F
:10479000B0F5805F03D0A06828B9206918B92068F7
:1047A0004068287004E02068406800F07F002870AE
:1047B000A06A401CA062E08D401E80B2E085C8B9AE
:1047C0002068C06820F020002168C8602068C068A8
:1047D00020F480702168C8602068406920F00100E2
:1047E00021684861202084F83A002046FEF70AFD3F
:1047F000002070BD0020FCE70220FAE770B50446F7
:104800002168096921F44051E2681143226811616D
:104810002269A1681143626941EA02052168C968F9
:1048200041F20C62914329432268D16021684969B1
:1048300021F44071A2691143226851612D4A216817
:10484000914202D1FDF7F2FE01E0FDF7DFFE00EB41
:10485000C00101EB001162689200B1FBF2F100EBC4
:10486000C00202EB001263689B00B2FBF3F2642308
:10487000B2FBF3F202EBC20303EB0212A1EB8201E3
:10488000322202EB01116422B1FBF2F101F0F001DE
:1048900000EBC00202EB001263689B00B2FBF3F274
:1048A0006423B2FBF3F201EB021200EBC00101EB57
:1048B000001163689B00B1FBF3F100EBC00303EB55
:1048C00000136668B600B3FBF6F36426B3FBF6F399
:1048D00003EBC30606EB0313A1EB8301322303EBC7
:1048E00001116423B1FBF3F101F00F0111442268BF
:1048F000916070BD00380140014691F839002128CF
:1049000028D18868B0F5805F0BD1086948B90A6A78
:104910001088C0F308000B685860086A801C0862A1
:1049200005E00B6A581C086218780B685860C88C40
:10493000401E80B2C88458B90868C06820F0800062
:104940000B68D8600868C06840F040000B68D86009
:10495000002070470220FCE72DE9F04104460D4697
:1049600017469846069E21E0701CF8B12EB1FDF75F
:104970009FFBA0EB0800B04218D92068C06820F463
:10498000D0702168C8602068406920F0010021686B
:104990004861202084F8390084F83A0000BF0020E4
:1049A00084F8380000BF0320BDE8F081206800686B
:1049B0002840A84201D1012000E00020B842D3D015
:1049C0000020F1E710B50248FEF752FA10BD0000D2
:1049D0000801002010B50248FEF74AFA10BD000099
:1049E0004801002000BFFEE7490050EAC12018BF7F
:1049F00004204A0D18BF40F0010040F2FF72B2EBF4
:104A0000515F08BF40F00200012808BF0520704731
:104A100002480068C0F30220704700000CED00E07F
:104A200010B5002804DB0A07130E054A135406E0EC
:104A30000A07140E034A00F00F031B1FD45410BDC5
:104A400000E400E018ED00E02DE9F0414F1E00EB1E
:104A5000C7010446D1E9000115461E4637F006029B
:104A60000DD02A46334605F095FE7F1E04EBC703A2
:104A7000D3E9002305F0B6FB37F00602F1D1022F8F
:104A800025D0042F13D0062F18BFBDE8F0812A4689
:104A9000334605F07FFED4E90A2305F0A3FB2A463E
:104AA000334605F077FED4E9082305F09BFB2A4640
:104AB000334605F06FFED4E9062305F093FB2A4642
:104AC000334605F067FED4E9042305F08BFB2A4644
:104AD000334605F05FFED4E9022305F083FB2A4646
:104AE000334605F057FED4E90023BDE8F04105F058
:104AF00079BB0000002213461046014905F02EBC88
:104B00000000F03F05F06EBB002213461046114630
:104B100005F024BC40F2013200204FF0E04106F0E5
:104B20007BB90000024A0020110706F075B90000A9
:104B300001FDFFFF30380A2801D201207047002014
:104B4000704700BF704700BF7047FEB507460C4670
:104B500015461E4600940195029669463846FCF7B4
:104B60001FFDFEBD10B5044607230122214607485C
:104B7000FFF7EBFF0548FCF731FF0A210348FCF77C
:104B800075FE0248FCF7BCFD80B210BD8801002014
:104B90002DE9F04107460C460025002608E038467E
:104BA000FFF7E0FF0544052000F03AF9701CC6B29B
:104BB000A642F4DBB5FBF4F0BDE8F08100B58BB0A4
:104BC000182101A8FBF737FE00BF00BF214880690C
:104BD00040F004001F4988610846806900F0040025
:104BE000009000BF00BF00BF00BF00BF0846806943
:104BF00040F4004088610846806900F4004000905D
:104C000000BF00BF00BF022001908003039001A8F5
:104C1000FDF798FB022007900320089007A90E4893
:104C2000FDF78EF80D480E4908600020486000210D
:104C30000B488160017301210161002101758161CF
:104C40004FF46021C161FCF75FFD0548FCF726FCCD
:104C50000BB000BD0010024000080140003C0140C4
:104C60008801002000B585B000BF00BF11488069F1
:104C700040F008000F4988610846806900F008008C
:104C8000009000BF00BF00BF881501900120029076
:104C900003900320049001A90748FDF751F800BFD5
:104CA00000224FF480710448FDF7FCF900BF05B005
:104CB00000BD000000100240000C014070B5044629
:104CC00022E02568A08900F4807020B9A06810B1A6
:104CD000A068FFF7F3FFA08900F4807028B920696D
:104CE00018B10B49206909688847A08900F4007051
:104CF00028B9206A18B10649206A09688847204601
:104D00000349096888472C46002CDAD170BD0000A1
:104D10003400002070B505460E46AC6800E02468FB
:104D20002CB13146206A00F04FF80028F7D1204618
:104D300070BD000010B52820054909688847044661
:104D40001CB128212046FBF776FD204610BD00004F
:104D50003000002010B5044600221146204600F025
:104D600001F810BD2DE9F04780460D461646002497
:104D7000FFF7E0FF07460020124908600FB9BDE8C1
:104D8000F087404605F08AF981464946384604F0E6
:104D9000E1FA044624B93846FFF790FF0020EEE719
:104DA00066B1204605F07AF90446207830B13846DD
:104DB000FFF784FF034804600020E0E705B12C60A2
:104DC0003846DCE72C00002070B504460D462CB9AF
:104DD000AC4201D0012070BD0020FCE70DB90120DC
:104DE000F9E705E0207808B90020F4E7641C6D1CA1
:104DF0002078FBF776FA06462878FBF772FA8642A7
:104E0000F0D02078FBF76DFA06462878FBF769FAB0
:104E1000301AE0E701490860704700000C000020EC
:104E200010B504464FF47A7104FB01F000F002F86B
:104E300010BD000070B5034600224FF0E0267569F2
:104E40000D4E366803FB06F44FF0E026B16910E022
:104E50004FF0E026B06988420BD0884202D20E1A89
:104E6000324402E02E1A0E4432440146A24200D3DC
:104E700000E0EDE700BF70BD0C00002070B500241D
:104E8000002504E0601CC4B20120FFF7D3FF4FF4FB
:104E900000610F48FDF7F4F808B1642CF2DB642CD4
:104EA00001DB012511E0002404E0601CC4B20120F4
:104EB000FFF7C0FF4FF400610548FDF7E1F808B9BE
:104EC000642CF2DB642C00DB0125284670BD000059
:104ED0000020014000B585B000BF00BF0F488069C9
:104EE00040F480700D4988610846806900F4807044
:104EF000009000BF00BF00BFC814019011200290B5
:104F0000012003900320049001A90548FCF718FF35
:104F100000F072F8FFF7B2FF05B000BD00100240CC
:104F20000020014010B5002404E0601CC4B2012040
:104F3000FFF780FF4FF400611048FDF7A1F808B1BA
:104F4000642CF2DB002404E0601CC4B20120FFF7F3
:104F500071FF4FF400610948FDF792F808B9642C1D
:104F6000F2DB2820FFF766FF4FF400610348FDF7EE
:104F700087F808B1012010BD0020FCE700200140A7
:104F800070B50024002506E06006040EFFF7CAFF96
:104F90000443681CC5B2082DF6DB204670BD7CB505
:104FA00005460E4600F028F8FFF768FFF8B9002420
:104FB00005E0FFF7E5FF0DF80400601CC4B2052C06
:104FC000F7DB9DF800009DF8011008449DF80210E1
:104FD00008449DF8031008449DF80410884208D145
:104FE0009DF8000030709DF80200287001E001205B
:104FF0007CBD0020FCE7000010B500BF00224FF48C
:1050000000610948FDF74EF800BF1420FFF708FFC4
:1050100000BF0122D1020448FDF744F800BF1E2062
:10502000FFF708FF10BD00000020014000B585B06B
:1050300000BF00BF3148806940F040002F498861BF
:105040000846806900F04000009000BF00BF00BF2C
:1050500000BF00BF0846806940F0400088610846F4
:10506000806900F04000009000BF00BF00BF00BF9B
:1050700000BF0846806940F00400886108468069E6
:1050800000F00400009000BF00BF00BF102001909E
:105090001B4802900120039001A91A48FCF750FE1A
:1050A00008200190164802900120039001A915489C
:1050B000FCF746FE01200190134802900220039065
:1050C00001A91248FCF73CFE022200210A20FDF74C
:1050D0004CF80A20FDF739F8022201210920FDF7DA
:1050E00044F80920FDF731F8022211460620FDF7A9
:1050F0003CF80620FDF729F805B000BD001002407D
:1051000000002110001801400000111000080140AB
:1051100000BF054A126802F04002002AF9D0C2B26C
:10512000014B1B1D1A60704700380140F0B5044662
:10513000142C06DA01EA020523EA010685EA0600D4
:1051400019E0282C04DA81EA020787EA030012E05A
:105150003C2C0ADA01EA020501EA030787EA0506A0
:1051600002EA030787EA060005E0502C03DA81EA29
:10517000020787EA0300F0BD2DE9F04FADF5B36DEE
:1051800007460E4692469846DDF8BC9540254FF0FE
:10519000360B5C20CDF89405002404E000200DF2CD
:1051A00054510855641C402CF8DBAE421DD0AE4271
:1051B0000FDD4A463146384604F02EFE002405E055
:1051C00019F804000DF254510855641C142CF7DB37
:1051D00014E0AE4212DA002404E0385D0DF25451BE
:1051E0000855641CB442F8DB08E0002404E0385D94
:1051F0000DF254510855641CAC42F8DB002408E061
:105200000DF25450005D80EA0B000DF21451085568
:10521000641C402CF4DB002405E00DF21450005D0A
:1052200015A90855641C402CF7DB002406E01AF889
:10523000041015AA04F140001154641C4445F6DB27
:1052400008EB05014A4615A804F0E6FD002409E034
:105250000DF25450005DDDF8941548400DF2D44134
:105260000855641C402CF3DB002405E00DF2D4400B
:10527000005D0DF80400641C402CF7DB002406E000
:1052800019F8041004F140000DF80010641C142CEF
:10529000F6DB4A4605F11401684604F0BDFD0DF544
:1052A000B36DBDE8F08F00000146142901DA07480C
:1052B0000AE0282901DA064806E03C2901DA054817
:1052C00002E0502900DA0448704700009979825AB8
:1052D000A1EBD96EDCBC1B8FD6C162CA70B5044687
:1052E000002609480588408845430021084603F008
:1052F00081F803F0D5FA00BF02E004480480761C70
:10530000AE42FAD370BD0000000200200008006C1D
:1053100010B5044658488471002C58D1F0205649E5
:1053200008804FF4A07048800846808845F21051EC
:10533000884210D14FF430504F4908814FF4285023
:1053400048814FF42C5088814FF4F07008804FF45E
:10535000487048801AE04848808841F663118842C6
:105360000DD12C20444908812B2048812A20888196
:105370004FF4F07008804FF44870488006E02C200D
:105380003D4908812A2048812B2088813A4880881D
:1053900045F21031884205D03748808847F296712F
:1053A000884206D14FF4A070334908804FF4F07062
:1053B00048803148808849F60601884258D14FF428
:1053C000F0702D4908804FF44870488050E04FF449
:1053D000A07029490880F02048800846808845F25E
:1053E0001051884210D14FF43050234908814FF4B6
:1053F000285048814FF42C5088814FF44870088021
:105400004FF4F070488020E01B48808841F663111B
:10541000884205D01848808849F6060188420DD197
:105420002C20154908812A2048812B2088814FF49F
:10543000487008804FF4F070488006E02C200E4938
:1054400008812A2048812B2088810B48808845F2DA
:105450001031884205D00848808847F2967188420A
:1054600006D14FF4F070044908804FF4A0704880D2
:10547000002002F0A1FE10BD0002002070B505461C
:105480000E4614463146284602F0B4FF03F008FAEF
:1054900001490C8070BD00000008006C10B5CF20E1
:1054A00003F0F2F9002003F0E3F9C12003F0E0F982
:1054B000302003F0DDF9ED2003F0E6F9642003F07D
:1054C000D7F9032003F0D4F9122003F0D1F9812099
:1054D00003F0CEF9E82003F0D7F9852003F0C8F9EE
:1054E000102003F0C5F97A2003F0C2F9CB2003F0B5
:1054F000CBF9392003F0BCF92C2003F0B9F90020D6
:1055000003F0B6F9342003F0B3F9022003F0B0F948
:10551000F72003F0B9F9202003F0AAF9EA2003F0FC
:10552000B3F9002003F0A4F9002003F0A1F9C02092
:1055300003F0AAF91B2003F09BF9C12003F0A4F9A2
:10554000012003F095F9C52003F09EF9302003F007
:105550008FF9302003F08CF9C72003F095F9B720BC
:1055600003F086F9362003F08FF9482003F080F924
:105570003A2003F089F9552003F07AF9B12003F0BD
:1055800083F9002003F074F91A2003F071F9B620B2
:1055900003F07AF90A2003F06BF9A22003F068F90E
:1055A000F22003F071F9002003F062F9262003F0E5
:1055B0006BF9012003F05CF9E02003F065F90F209E
:1055C00003F056F92A2003F053F9282003F050F98C
:1055D000082003F04DF90E2003F04AF9082003F0EB
:1055E00047F9542003F044F9A92003F041F943207E
:1055F00003F03EF90A2003F03BF90F2003F038F9DD
:10560000002003F035F9002003F032F9002003F008
:105610002FF9002003F02CF9E12003F035F90020E8
:1056200003F026F9152003F023F9172003F020F9E1
:10563000072003F01DF9112003F01AF9062003F0EA
:1056400017F92B2003F014F9562003F011F93C2030
:1056500003F00EF9052003F00BF9102003F008F910
:105660000F2003F005F93F2003F002F93F2003F07B
:10567000FFF80F2003F0FCF82B2003F005F90020C1
:1056800003F0F6F8002003F0F3F8012003F0F0F83F
:105690003F2003F0EDF82A2003F0F6F8002003F095
:1056A000E7F8002003F0E4F8002003F0E1F8EF2031
:1056B00003F0DEF8112003F0E7F87820FFF7B0FBE5
:1056C000292003F0E1F810BD10B5FF2003F0DCF84D
:1056D000FF2003F0CDF8982003F0CAF8062003F06D
:1056E000C7F8BC2003F0D0F8012003F0C1F80F2068
:1056F00003F0BEF8612003F0BBF8FF2003F0B8F818
:10570000012003F0B5F8012003F0B2F80B2003F0FC
:10571000AFF8102003F0ACF8372003F0A9F86320AD
:1057200003F0A6F8FF2003F0A3F8FF2003F0A0F891
:10573000012003F09DF8012003F09AF8002003F007
:1057400097F8002003F094F8FF2003F091F852201E
:1057500003F08EF8012003F08BF8002003F088F8A6
:10576000402003F085F8BD2003F08EF8012003F0FF
:105770007FF8232003F07CF8452003F079F86720B8
:1057800003F076F8012003F073F8232003F070F89B
:10579000452003F06DF8672003F06AF8BE2003F09F
:1057A00073F8002003F064F8012003F061F8AB20E7
:1057B00003F05EF8602003F05BF8222003F058F855
:1057C000222003F055F8222003F052F8222003F0A3
:1057D0004FF8222003F04CF8C72003F055F836208C
:1057E00003F046F8ED2003F04FF87F2003F040F877
:1057F0000F2003F03DF8C02003F046F80F2003F01F
:1058000037F80B2003F034F80A2003F031F8FC20BD
:1058100003F03AF8082003F02BF8DF2003F034F807
:10582000002003F025F8002003F022F8002003F008
:105830001FF8002003F01CF8002003F019F82020C6
:1058400003F016F8F32003F01FF8742003F010F8AB
:10585000B42003F019F8002003F00AF8002003F048
:1058600007F8002003F004F8F72003F00DF8822079
:1058700002F0FEFFB12003F007F8002002F0F8FF6D
:10588000132002F0F5FF132002F0F2FFF22002F0E5
:10589000FBFF802002F0ECFF042002F0E9FF402033
:1058A00002F0E6FF282002F0E3FFC12002F0ECFF47
:1058B000172002F0DDFF882002F0DAFF882002F0D6
:1058C000D7FF202002F0D4FFE02002F0DDFF00200F
:1058D00002F0CEFF0A2002F0CBFF122002F0C8FF38
:1058E000102002F0C5FF0E2002F0C2FF202002F0BF
:1058F000BFFFCC2002F0BCFF072002F0B9FF06205A
:1059000002F0B6FF0B2002F0B3FF0E2002F0B0FF52
:105910000F2002F0ADFF0D2002F0AAFF152002F0CB
:10592000A7FF102002F0A4FF002002F0A1FFE12059
:1059300002F0AAFF002002F09BFF0B2002F098FF6C
:10594000132002F095FF0D2002F092FF0E2002F0CE
:105950008FFF1B2002F08CFF712002F089FF0620D0
:1059600002F086FF062002F083FF0A2002F080FF8B
:105970000F2002F07DFF0E2002F07AFF0F2002F0D0
:1059800077FF152002F074FF0C2002F071FF002059
:1059900002F06EFF2A2002F077FF002002F068FF7D
:1059A000002002F065FF012002F062FFDF2002F01C
:1059B0005FFF2B2002F068FF002002F059FF00205B
:1059C00002F056FF032002F053FF1F2002F050FFA9
:1059D0003A2002F059FF552002F04AFF362002F02B
:1059E00053FF002002F044FF112002F04DFF782009
:1059F000FFF716FA292002F047FF1420FFF710FAEC
:105A00002C2002F041FF10BD10B5ED2002F03CFF4C
:105A1000012002F02DFFFE2002F02AFFEE2002F00E
:105A200033FFDE2002F024FF212002F021FFF120CD
:105A300002F02AFF012002F01BFFDF2002F024FF0A
:105A4000102002F015FFC42002F01EFF8F2002F08C
:105A50000FFFC62002F018FF002002F009FFE2202D
:105A600002F006FFE22002F003FFE22002F000FF56
:105A7000BF2002F009FFAA2002F0FAFEB02002F0D7
:105A800003FF0D2002F0F4FE002002F0F1FE0D20D5
:105A900002F0EEFE002002F0EBFE112002F0E8FE24
:105AA000002002F0E5FE192002F0E2FE002002F0E4
:105AB000DFFE212002F0DCFE002002F0D9FE2D20C6
:105AC00002F0D6FE002002F0D3FE3D2002F0D0FE10
:105AD000002002F0CDFE5D2002F0CAFE002002F0A0
