:020000040800F2
:1000000048DD0020F902000885660008B95900089B
:1000100081660008C92C00088599000800000000CE
:1000200000000000000000000000000045900008F3
:10003000532D000800000000BF830008B59200089F
:1000400013030008130300081303000801870008C6
:100050001303000813030008130300081303000828
:100060001303000813030008130300081303000818
:100070001303000813030008130300081303000808
:1000800013030008130300081303000813030008F8
:100090001303000813030008130300086533000866
:1000A00013030008130300081303000813030008D8
:1000B000C19200081303000813030008130300088B
:1000C00013030008130300081303000813030008B8
:1000D0001303000885980008FD980008759900082A
:1000E0001303000813030008130300081303000898
:1000F0001303000813030008130300081303000888
:100100001303000813030008130300081303000877
:100110001303000813030008D1920008119300088C
:100120001303000813030008130300081303000857
:1001300000F002F800F0B6F80AA090E8000C824443
:100140008344AAF10107DA4501D100F0ABF8AFF220
:10015000090EBAE80F0013F0010F18BFFB1A43F0A5
:1001600001031847E0660100006701000A444FF0F0
:10017000000C10F8013B13F0070408BF10F8014B06
:100180001D1108BF10F8015B641E05D010F8016B4B
:10019000641E01F8016BF9D113F0080F1EBF10F8AF
:1001A000014BAD1C0C1B09D16D1E58BF01F801CBD2
:1001B000FAD505E014F8016B01F8016B6D1EF9D555
:1001C0009142D6D37047000000230024002500266A
:1001D000103A28BF78C1FBD8520728BF30C148BFAA
:1001E0000B6070476E2900F05E86702900F0618216
:1001F000662913F06880652913F06580672913F07C
:100200006280612913F0618003681B0A28BF41F0F6
:100210008001692900F09481642900F09181752999
:1002200000F08E816F2901F02E81782900F02D8257
:10023000E92900F0C181E42900F0BE81F52900F030
:10024000BB81EF2901F02B81F82900F02C82036893
:10025000DB0928BF41F08001632901F07680732912
:1002600001F07B80E32901F01383F32901F0188367
:10027000002070471FB59DE8030000F023FD00F04B
:10028000FCFA01F01BF904000020002111F06AFFC4
:10029000401C60600020002111F07AFFE0601FBD6B
:1002A00010B510BD01F09DFB1146FFF7E3FF0EF006
:1002B00051F801F0BBFB03B4FFF7F2FF03BC09F0F8
:1002C000DEFD00000B49D1F800C04A685CF8043B31
:1002D0001068184442F8040B8C4528BFA1F1DC0CCF
:1002E0008A4228BFA1F1DC02C1F800C04A6020F0B8
:1002F00000407047DCD0002009488047094800478B
:10030000FEE7FEE7FEE7FEE7FEE7FEE7FEE7FEE7C5
:10031000FEE7FEE704480549054A064B7047000022
:10032000BD9200083101000848D1002048DD0020BE
:1003300048D5002048D50020704770B5064600F02B
:10034000A5FC056806F10B0020F00704B4429CBF31
:10035000002070BD2B466A68BAB11068A04210D365
:1003600004F1080188423CBF5068586007D35168C7
:10037000101941601168091B016058601460101D5C
:1003800070BD13465268002AE7D12146284600F086
:1003900085FC0028DED170BD70B50446051F00F055
:1003A00075FC0068002C14BF446870BD002C18BF99
:1003B000AC423CBF20466468F8D301680A18AA42E0
:1003C00018BF456003D12A680546114401602868BA
:1003D0004119A1421CBF6C6070BD616869602168F1
:1003E0000844286070BD10B5044600F047FC006862
:1003F000005DC00602D504F1200010BD204610BDEE
:100400001CB50C46064B7B4469460090204600F024
:1004100072FF04460020694600F080FF20461CBDA4
:10042000130F00000FB4044910B503AA029800F09E
:1004300099FF10BC5DF814FB200000200FB41CB520
:10044000084B06AA7B4469460090059800F053FFCC
:1004500004460020694600F061FF20461CBC5DF8A0
:1004600014FB0000D50E00000FB47CB50C0009AAE7
:10047000009001D02044401E084B7B446946019007
:10048000089800F038FF05461CB10020694600F0CE
:1004900045FF28467CBC5DF814FB0000A90E000057
:1004A00070B5044685690068C10601D5302600E0B4
:1004B0002026C00707D070BDD4E9012130469047FF
:1004C000206A401C20626D1EF6D570BD70B50446D2
:1004D00085690078C00707D170BDD4E901212020CB
:1004E0009047206A401C20626D1EF6D570BD70B525
:1004F0000C460546012A05D02878800600D5EA6911
:10050000002302E0012305E05B1C934202D2E05C81
:100510000028F9D1A869E618C01AA861286A184409
:1005200028622846FFF7BCFF04E0D5E9012114F852
:10053000010B9047B442F8D32846FFF7C7FF70BDC0
:100540002DE9F0410646002410687529314616A5AC
:1005500010D000F03DFC002802DA404213A507E06D
:1005600031688A0701D512A502E0490704D511A513
:10057000012401E000F035FC00210A2206F12407E5
:1005800009E0B0FBF2FCB0FBF2F302FB1C003030E0
:1005900078541846491C0028F3D123462A46304691
:1005A000BDE8F04100F026BC000000002D00000076
:1005B0002B000000200000002DE9F0418046D21DF4
:1005C00022F007020025D2E90002F52915A614D071
:1005D000011E72F1000106DA0023D0EB030063EB89
:1005E000020211A608E0D8F800108B0701D50FA66B
:1005F00002E0490701D50EA601251146002408F1A5
:10060000240704E000F094FB30323A55641C50EAB1
:100610000102F7D12B46324621464046BDE8F04163
:1006200000F0E8BB000000002D0000002B000000DF
:1006300020000000F0B40D460188090502D5214CC8
:100640007C4402E01F4C7C440E34002100F124065F
:1006500008E002F00F071209E75D42EA03721B0986
:100660007754491C52EA0307F3D10278002312079A
:1006700004D5702D06D009B1022311342246F0BCF6
:1006800000F0B8BB01231034F8E770B504460D46FE
:100690002146106800F0A5FB024629462046BDE829
:1006A00070400023C6E7D21D22F00703D3E90023E0
:1006B000C0E70368126843F0200303600823C361A6
:1006C0000023B7E7475F01002DE9F05F8946044644
:1006D0004FF0000ADFF874B1FB44C0F820A02046B8
:1006E000E1688847002874D0252806D0D4E9012184
:1006F0009047206A401C2062F1E700265F462046B2
:10070000E16888472028054607DB312D05D2781996
:1007100010F8200C08B10643F1E7B00701D526F028
:100720000406C4F81CA00027C4F818A02A2D09D07C
:10073000284609F09DFB38B304EB8708303DC8F824
:10074000185019E059F8041B204604EB8702916108
:10075000E1688847012F054618D1E069002820DAB2
:1007600026F020061DE0D8F8180000EB800005EB0D
:1007700040003038C8F818002046E1688847054630
:1007800009F076FB0028EED1012F0AD02E2D08D1DA
:100790002046E16888477F1C0546022F46F0200668
:1007A000C4DBA069002803DA404246F00106A061DC
:1007B000F00701D026F010066C2D0BD0682D09D063
:1007C0004C2D39D06A2D35D0742D35D07A2D33D0BB
:1007D00016E038E0E1682F4620468847B8420546D3
:1007E00009D16C2F26D04FF48060E1680643204683
:1007F0008847054604E06C2F1AD04FF480700643FA
:100800000DB3A5F14100192802D8203546F4006641
:100810004A462946204626604E46FFF7E3FC80B153
:1008200001280BD0F61D26F0070000F1080956E755
:100830004020E4E78020D8E70020D6E706F104094D
:100840004DE7284652E7206ABDE8F09FD75E0100D9
:100850000B4910B5A1F17C020A4CC2E937123721CD
:1008600006E000EB104342F82130074B00FB034049
:100870000B1EA1F10101F4DC10BD0120E8E700002E
:100880007CD00020E119D666CD0D0100401ECAB211
:1008900010F8011F8A4202D00029F9D100207047C8
:1008A00010B5431E13F8014F002CFBD105E011F8E1
:1008B000014B002C03F8014B03D0521EF7D200214C
:1008C000197010BD30B505460B462A4613F8014B8A
:1008D00012F8010B08B1A042F8D01CB1002802D0D8
:1008E0006D1CF1E7284630BD40EA010310B59B07B7
:1008F0000FD1042A0DD310C808C9121F9C42F8D08A
:1009000020BA19BA884201D9012010BD4FF0FF303A
:1009100010BD1AB1D30703D0521C07E0002010BD50
:1009200010F8013B11F8014B1B1B07D110F8013BDC
:1009300011F8014B1B1B01D1921EF1D1184610BDBD
:1009400040EA0103024630B59B0710D14FF0013455
:1009500000E008C208C91D1B9D4315EAC41FF8D05A
:1009600013F0FF0102F8011B0DD01B0AF8E711F884
:10097000013B002B02F8013B05D011F8013B002B95
:1009800002F8013BF3D130BD10B5431C02E010F872
:10099000011B71B18107FAD14FF0013202C88C1AE4
:1009A0008C4314EAC211F9D0C01A0A0603D0C01E43
:1009B00010BDC01A10BD0A0401D0801E10BD09026E
:1009C000FCD0401E10BD40EA010370B59B072ED13C
:1009D0004FF00136042A2AD308C810C99D1B9D4335
:1009E000121F15EAC61517D0D8B2E1B2401A50EA64
:1009F000056110D198B2A1B2401A50EA05410AD15E
:100A000023F07F4024F07F41401A50EA052102D1B3
:100A1000180EA0EB146070BDA342DBD018BA21BA47
:100A2000884201D9012070BD4FF0FF3070BD0AB976
:100A3000002070BD10F8013B11F8014B63B1A342D7
:100A40000AD1521E08D010F8013B11F8014B1BB11E
:100A5000A34201D1521EEDD1181B70BD421E12F8E7
:100A6000013F002BFBD111F8013B002B02F8013BA9
:100A7000F9D17047032A40F2308010F0030C00F0E7
:100A8000158011F8013BBCF1020F624498BF11F8C8
:100A900001CB00F8013B38BF11F8013BA2F1040281
:100AA00098BF00F801CB38BF00F8013B11F00303F9
:100AB00000F02580083AC0F0088051F8043B083A5D
:100AC00051F804CBA0E80810F5E7121D5CBF51F8FF
:100AD000043B40F8043BAFF30080D20724BF11F879
:100AE000013B11F801CB48BF11F8012B24BF00F8DE
:100AF000013B00F801CB48BF00F8012B704710B54F
:100B0000203AC0F00B80B1E81850203AA0E8185005
:100B1000B1E81850A0E81850BFF4F5AF5FEA027CC6
:100B200024BFB1E81850A0E8185044BF18C918C035
:100B3000BDE810405FEA827C24BF51F8043B40F8D6
:100B4000043B08BF7047D20728BF31F8023B48BFBB
:100B500011F8012B28BF20F8023B48BF00F8012BF9
:100B600070474FF000020429C0F0128010F0030C0F
:100B700000F01B80CCF1040CBCF1020F18BF00F890
:100B8000012BA8BF20F8022BA1EB0C0100F00DB83F
:100B90005FEAC17C24BF00F8012B00F8012B48BF9D
:100BA00000F8012B70474FF0000200B51346944641
:100BB0009646203922BFA0E80C50A0E80C50B1F1B5
:100BC0002001BFF4F7AF090728BFA0E80C5048BFC9
:100BD0000CC05DF804EB890028BF40F8042B08BF67
:100BE000704748BF20F8022B11F0804F18BF00F863
:100BF000012B70474FF0013C50F8042B51F8043B97
:100C00009A4221D1A2EB0C03934313EACC1317D1E0
:100C100050F8042B51F8043B9A4215D1A2EB0C0377
:100C2000934313EACC130BD150F8042B51F8043B37
:100C30009A4209D1A2EB0C03934313EACC13DBD005
:100C40004FF00000704700BFD01A01BAB1FA81F12D
:100C500001F0180122FA01F0CB40C1F12001DBB212
:100C6000C0B2C01A2CFA01F3D11A914311EAC31190
:100C7000E6D17047704770477047704710B500F075
:100C80001DFC001D10BD00BFDD14010000487047B1
:100C9000ECD00020704770477047704738B5044665
:100CA0000A4600206946AFF30080002808BF38BD1F
:100CB00002460099204600F009FC012038BD0120C1
:100CC00000F088BEF8B5AFF30080054600200C4662
:100CD000102000BF0646A819A0420DD93246694629
:100CE0000020AFF30080070008BF00F073FE0098FB
:100CF000A04218BF0546C419FFF7C8FF05600746A4
:100D0000F01D20F007004619284600F00AF8B4420A
:100D100008BFF8BDA21B31463868BDE8F84000F0B6
:100D2000D5BB00210160C0E9011070471020704759
:100D300030B5B0F10A024FEA900E71F100034EEAAD
:100D4000817EB0EB0E0061EB91014FEA101E4EEA7E
:100D5000017E10EB0E0041EB11114FEA102E4EEA0E
:100D6000016E10EB0E0041EB11214FEA104E4EEADE
:100D7000014E10EB0E0041EB1141401841F1000112
:100D80004FEAD00040EA41704FEAD10110EB8005F4
:100D90004FEA810444EA907444EB01046D1944EB7A
:100DA0000404521BA3414FF0000348BF0A3200D590
:100DB00030BD401C41F1000130BD10B500F082FB98
:100DC000006810BD10B5044600F07CFB046010BD47
:100DD00009684A0501D540B27047C905FCD500B283
:100DE000704709684A0501D5C0B27047C905FCD5EE
:100DF00080B270472DE9F0470D4699469246044669
:100E000000F124080168880604D5E06921F010018A
:100E1000216000E00120A84201DD471B00E000271F
:100E2000A1697A1902EB0900081AA0612078C006AE
:100E300002D42046FFF734FB002608E0D4E9012164
:100E40001AF806009047206A401C761C20624E4526
:100E5000F4DB2078C0060AD52046FFF721FB06E028
:100E6000D4E9012130209047206A401C2062381EBE
:100E7000A7F10107F4DC07E0D4E9012118F8050027
:100E80009047206A401C2062281EA5F10105F3DC72
:100E90002046FFF71BFB2078000602D50220BDE8A4
:100EA000F0870120FBE711680268006A530501D54D
:100EB00008700AE0D30501D5088006E0130603D5C3
:100EC000C217C1E9000200E00860012070477047C6
:100ED0002DE9FF4F0C461E464FF0FF378BB0D2E98D
:100EE0000001DDF860800A908A46C1F30A5505B911
:100EF0003D46002108464FF00000BAF1000F00F413
:100F0000400005DA00EB80004FF4400101EA500098
:100F10004FEA9059B9F1010F00DDB9460A9850EA3D
:100F20004A000ED044F61050A5F2FF3545432F1469
:100F3000B8F1000F1ED07542291E1EDDC9F1000256
:100F40001CE0B8F1010F4FF0000001D0302103E0A8
:100F5000F24305E02154401CB042FBDB3046002246
:100F6000002121540B99C1F80880C1E900200FB07D
:100F7000BDE8F08FBD1B6D1CDEE74A4600DA694212
:100F800006A800F091FC06AB93E8070003AB83E8EA
:100F9000070050460A9900F098FD8DE80700A0F57B
:100FA00000501F3800900398002D0ADD42F21F0107
:100FB0004A460844002303A90390684601F001F85B
:100FC00009E0A0F500504A461F38002303A903900A
:100FD000684601F00BF88DE807000004000C03D010
:100FE0004FF0FF30410800E01046B8F1000F03D089
:100FF0000022009215461EE0751E05D4FFF798FEEC
:10100000303262556D1EF9D5B3460122084302D035
:1010100000227F1C04E02078302801D100227F1EAE
:10102000002A099784D01DE0112D07DAFFF780FE12
:10103000303262556D1C50EA0102F5D1084302D0EE
:101040000098C8B10EE00021681E05E0235C625CD8
:1010500063542254401E491C8142F7DBAB46A81B57
:10106000401E0990002004F80B000B98099AC0F864
:101070000880C0E9002B7AE711264FF0000857E7F7
:101080002DE9F04F88460446D21D22F0070191B0A9
:10109000D1E90001CDE90A0108F044FE02460B98AF
:1010A000C00F01D02D2007E02068810701D52B203B
:1010B00002E0202101EAC000032A099001D0072A9A
:1010C00005DB03464146204600F098FB0BE1207803
:1010D000800601D5E06900E00620B8F1650F814681
:1010E00006D0B8F1660F18D0B8F1670F70D131E0B3
:1010F0000020B9F1110F009001DB112301E009F18B
:1011000001030AAA01A90CA8FFF7E2FEDDE90C70B1
:10111000002609F10105834647E001204B46009077
:101120004FF000470AAA01A90CA8FFF7D1FEDDE99C
:101130000DB00C995D46002610B909F101000D189B
:10114000B9EB050003D4C0F1FF3609F10105A5EBA9
:1011500009002BE0B9F1010F01DA4FF0010900207D
:10116000B9F1110F0090484601DD112300E003465C
:101170000AAA01A90CA8FFF7ABFEDDE90C704D46E9
:1011800000268346207800070AD4AB4500DA5D4686
:1011900001A8012D04DD411911F8011C302907D0E7
:1011A0004F4502DA17F1040F04DA012082460FE0FE
:1011B0006D1EEEE7002F02DCED1B3E4403E0781CC1
:1011C000A84200DD7D1CB81B00F1010A4FF000476A
:1011D0002078000703D4AA4501DB4FF0FF3A002135
:1011E000B7F1004F0DF143088DF8431024D00220D1
:1011F0002B23002F01DA7F422D230A21021EA0F1AA
:10120000010000DC5FB197FBF1FC97FBF1F201FB01
:101210001C7C17460CF1300C08F801CDEEE7A8F164
:10122000010003702188090501D5452100E06521F1
:10123000A0F1010800F8011C09980FA9A1EB08070B
:10124000FF1D00B10120411901EBEA70A16938448A
:10125000081A401EA0612078C00602D42046FFF77D
:101260001FF9099828B1D4E901219047206A401C50
:1012700020622078C00622D52046FFF711F91EE033
:10128000002E04DBB34502DD01A8805D00E03020C4
:10129000D4E901219047206A401C2062761CAAF103
:1012A00001005FEA000A0AD100F008F9C06801688D
:1012B000405CD4E901219047206A401C2062281E2E
:1012C000A5F10105DCDC07E0D4E9012118F8010BE8
:1012D0009047206A401C2062381EA7F10107F3DC0A
:1012E0002046FFF7F3F8032011B041E601694A1CDC
:1012F00002610878704700B58FB0CDE90131002157
:10130000059105497944CDE9031011466846FFF778
:10131000DBF90FB000BD0000E5FFFFFF0A6802F82F
:10132000010B0A607047D1E900239A4202D2531C94
:101330000B601070704710B5436913B1AFF30080B4
:1013400001E0FFF7D4F8012010BD127800F124016C
:101350000A7000224A700122EDE711684FF0FF3257
:10136000E9E70000074B70B50D467B44FFF7C3FF6C
:101370000446284600F00AFB10B14FF0FF3070BD64
:10138000204670BD3B9100002DE9FF5F15468A465F
:101390000446DFF8AC80F8440027D8E900103E4648
:1013A000CDE9001010E03AF816106A4602A800F0E5
:1013B000F1FA411C07D02178890603D5E269391872
:1013C00091420DD80744761C2078800602D5E0694A
:1013D000B84205DDAE42E6DB3AF816000028E2D15D
:1013E000A069C01BA0612046FFF75AF8D8E9001099
:1013F000CDE90010002017E03AF818106A4602A85C
:1014000000F0C8FAB0F1FF3F81460BD000250DF186
:10141000080B05E0D4E901211BF8050090476D1C7D
:101420004D45F7D308F10100B0428046E4DB206A65
:10143000384420622046FFF749F8BDE8FF9F0000CE
:10144000B652010030B4002100F1240408E002F09B
:101450000705D208303542EA4372DB086554491C5F
:1014600052EA0305F3D10468002310A2250707D52B
:10147000A40600D421B1C46901230DA2641EC46175
:1014800030BCFFF7B7BC10B5044621461068FFF723
:10149000A8FC02462046BDE810400023D2E7D21D3A
:1014A00022F00701D1E90023CCE700000000000092
:1014B0003000000000487047E4D00020004870472A
:1014C00004D1002000487047E4D000200346406863
:1014D0008C46002818BF88423CBF03464068F8D3BA
:1014E00018681844884207D00CF1030020F0070068
:1014F000001D411A521A0146081D0A60FEF74CBF32
:101500002DE9F04F04460D46D21D22F0070089B0A8
:10151000D0E900974846394608F004FC0246F80F27
:1015200001D02D2307E02068810701D52B2302E09D
:10153000202101EAC0038DF820300BB1012000E02A
:101540000020032A824601D0072A04DB29462046D0
:1015500000F054F93FE12078800601D40D2500E029
:10156000E569C7F30A560D2D49DA00214FEA175BEA
:1015700008464FF00000002F00F4400007DA00EBAF
:1015800080004FF4400100EBD07001EA600081154B
:10159000012901DD4FF0FF3100224FEA850CBCF13B
:1015A000180F06D31346ACF118004FF08052C2401A
:1015B00003E04FF4801323FA0CF30CF10C0CBCF194
:1015C000200F04D3ACF1200C09FA0CF001E007FA6B
:1015D0000CF000294FF0004801DD18B90FE00ED1E2
:1015E00040450CD319EB02095F4121B9404502D1B6
:1015F0009F4329EA0209BBEB175F00D0761C2088C5
:10160000000502D57B48784402E07A4878441938CE
:1016100008AA302302F80A30037C0AF10101002EE7
:101620000AF1020A53546A4602DC4FF0300101E02D
:101630004FF031014FF001088DF8001002D0A6F2F2
:10164000FF3603E059EA470100D06B4E002D02DC63
:101650002178090704D54FF002082E218DF80110DA
:10166000C44600210BE0C7F303433F01C35C491CA0
:101670006D1E02F80830052908F1010801DA002D75
:10168000F1DC00210CE000EB1973491C1B786D1E86
:10169000082902F808304FEA091908F1010801DAAF
:1016A000002DF0DC21688B0602D516E0A8F10108B8
:1016B000E04505DD02EB080313F8013C302BF5D0C3
:1016C000B8F1000F09DD02EB080313F8013C2E2BE3
:1016D00003D1090701D4A8F10108002D05DD3E2141
:1016E00002F808106D1E08F10108407C002E02F877
:1016F000080008F1010804DA2D20764202F80800FB
:1017000002E02B2002F808000A214FF47A7086428A
:1017100008F101080BDB96FBF0F3303302F80830D8
:1017200096FBF0F308F1010800FB136601E0642E5C
:101730000CDB642096FBF0F3303302F8083096FBA4
:10174000F0F308F1010800FB136601E00A2E06DB46
:1017500096FBF1F0303002F8080008F1010896FB22
:10176000F1F001FB1060303002F80800A16908F1C7
:10177000010808EB050202EB0A00081AA0612078B4
:10178000C00602D42046FEF78BFE216A08AE01EBAC
:101790000A00206204E0D4E9012116F8010B904709
:1017A000BAF1010AF7D22078C00602D52046FEF72A
:1017B00077FE6E4609E016F8010B3E280FD0D4E9FB
:1017C00001219047206A401C2062B8F10108F2D242
:1017D0002046FEF77BFE09B00320BDE8F08F206AAB
:1017E0002844206203E0D4E90121302090476D1E97
:1017F000EBD3F8E76950010002FCFFFF2DE9F0414F
:101800001F46044603260168072A01F4006004DB32
:1018100008B116A505E016A503E008B115A500E07E
:1018200015A521F010002060A069C01EA0610FB1B5
:10183000401EA0612046FEF733FE4FB1D4E90121DE
:1018400038469047206A401C2062C01C206206E097
:10185000206AFAE7D4E9012115F8010B9047761EBA
:10186000F8D22046FEF732FEBDE8F0814E414E0030
:101870006E616E00494E4600696E660010B54369A0
:1018800013B1AFF3008001E0FFF77EFD012010BD32
:10189000128800F1240182840022C2840122EDE733
:1018A00011684FF0FF32E9E72DE9F047814616460F
:1018B0008AB0354878440DC88DE80D003248784428
:1018C000801C03AC0DC884E80D0041F69B30084431
:1018D000372190FBF1F290FBF1F5A5F1800501FBBA
:1018E00012041B3C02D56442012000E00020DFF816
:1018F00098A080460027FA44AAF1BE0A0EE0E0074D
:101900000AD03246684607EB470101230AEB810102
:1019100000F06CFB8DE8070064107F1C002CEED1FA
:10192000194F7F44AE3F19E0E80715D007EB0410CC
:101930000DF1180A90E80E008AE80E00C068F04227
:1019400001D1981908903246012306A903A800F096
:101950004DFB03AB83E807006D10641C002DE3D141
:101960004FF0010332466946B8F1000F03A802D0D8
:1019700000F027FB01E000F039FBC9E90001C9F8DC
:1019800008200AB0BDE8F0874C4E0100007B00F053
:101990008000704770B516460C460546FFF76EF995
:1019A000036893F80101012806D0FF2C0FD8185DB9
:1019B00068B101202C7070BDD3F807013246214672
:1019C00003F2071303442846BDE8704018474FF060
:1019D000FF3070BD10B500F037F8BDE8104000F0E2
:1019E0002EB87546FFF766FDAE46050069465346BC
:1019F00020F00700854618B020B5FEF78BFCBDE847
:101A000020404FF000064FF000074FF000084FF065
:101A1000000B21F00701AC46ACE8C009ACE8C009F6
:101A2000ACE8C009ACE8C0098D46704710B5044663
:101A3000AFF300802046BDE81040FEF73CBC002814
:101A400001D008F01CBA704710B5012805D000215C
:101A500003A000F021F8012010BD09A1F8E7000063
:101A600053494752544D454D3A204F7574206F6687
:101A70002068656170206D656D6F727900000000EF
:101A80003A2048656170206D656D6F727920636FD3
:101A9000727275707465640070B505460C460A2054
:101AA00000E06D1C08F0EDF935B128780028F8D178
:101AB00002E0641C08F0E5F914B120780028F8D1A0
:101AC000BDE870400A2008F0DCB95FEA400C08BFAE
:101AD00091F0000F4FEA8C234FEAC12243EA5151A3
:101AE0004FEA1C5018BF00F5F0404FEA300018BF15
:101AF00041F000415FEA6C5C00F02980BCF1FF3FDF
:101B000008BF40F080407047130C06BF12044FF02E
:101B1000100C4FF0000C130E04BF12020CF1080C55
:101B2000130F04BF12010CF1040C930F04BF9200B9
:101B30000CF1020CD30F04BF52000CF1010C114642
:101B40004FF00002A0F11F00A0EB0C00704711F055
:101B5000004F08BF704731F000413FF4D5AF0B0C88
:101B600006BF09044FF0100C4FF0000C0B0E04BF21
:101B700009020CF1080C0B0F04BF09010CF1040C55
:101B80008B0F04BF89000CF1020CCB0F04BF49007E
:101B90000CF1010CCCF12003A0EB0C0022FA03F3B2
:101BA00002FA0CF241EA030100F10100704720F053
:101BB0007F4C80EA030023F07F47ACEB070303F57B
:101BC0007C5300F0004003F1FF032DE980494FEA08
:101BD000154B09B44FEA144325EA0B4E24EA034897
:101BE0000FF2042606EB132749083E785FEA32021B
:101BF00003FB0667C7F5000707FB06F64FEA5437F5
:101C00004FEAD64606F1020607FB066CCCF1005CF3
:101C10004FEA1C472CEA074C07FB06F40CFB06F5C1
:101C200004EB15464FEA961634BF00204FF00040F3
:101C30004FEAD13706FB07FC4FEA1C4C0CFB0BF7B5
:101C4000D21B03FB0CF761EB07010CFB0EF7B0EBAB
:101C5000074072EB17420CFB08F734BFA2EB0742B8
:101C6000B2EB074261EB17414FEA0C444FEA910790
:101C700006FB07FC4FEA1C4C0CFB0BF7B0EBC74014
:101C800072EB573203FB0CF734BFA2EBC742B2EB47
:101C9000C74261EB57310CFB0EF7B0EBC70072EB9C
:101CA00057720CFB08F734BFA2EBC702B2EBC702B6
:101CB00061EB5771039F4FEA816141EA921104EB96
:101CC000CC044FEAD1374FEA826206FB07FC42EAB6
:101CD00090124FEA80604FEA1C4C0CFB0BF7D21BB2
:101CE00003FB0CF761EB07010CFB0EF7B0EB0740B1
:101CF00072EB17420CFB08F734BFA2EB0742B2EBC2
:101D0000074261EB17414FEA8C554FEA910704EB0C
:101D10009C2406FB07FC4FEA1C4C0CFB0BF7B0EBBA
:101D2000C74072EB573203FB0CF734BFA2EBC7423C
:101D3000B2EBC74261EB57310CFB0EF7B0EBC700BB
:101D400072EB57720CFB08F734BFA2EBC702B2EB81
:101D5000C70261EB577115EB4C254FEA816141EAEF
:101D600092114FEA82624FEAD13742EA901206FBA3
:101D700007FC44F100044FEA80604FEA1C4C0CFB66
:101D80000BF7D21B03FB0CF761EB07010CFB0EF703
:101D9000B0EB074072EB17420CFB08F734BFA2EB25
:101DA0000742B2EB074261EB174115EB1C154FEAF6
:101DB000813141EA92414FEA823242EA90424FEA4F
:101DC00080304FEA0C7644F1000448EA03434EEABF
:101DD0000B484FF0000EB2EB080C71EB030724BF69
:101DE000624639464EEB0E0E4FF0000B0018524182
:101DF00049414BEB0B0BB2EB080C71EB03077BF18A
:101E0000000B24BF624639464EEB0E0E4FF0000B1E
:101E10000018524149414BEB0B0BB2EB080C71EB34
:101E200003077BF1000B24BF624639464EEB0E0ED2
:101E300051EA020718BF46F0010616EB0E7655F17F
:101E4000000254F1000103D5BDE88901BDE8008816
:101E5000BDE88901BDE80048B619524141EB0101D6
:101E6000A3F10103704780807F7E7D7C7B7A797847
:101E7000777676757473727171706F6E6E6D6C6C4F
:101E80006B6A6A69686867666665646463636261F1
:101E90006160605F5F5E5E5D5D5C5C5B5B5A5A5972
:101EA00059585857575656555555545453535252DE
:101EB0005251515050504F4F4F4E4E4D4D4D4C4C36
:101EC0004C4B4B4B4A4A4A4949494848484747477F
:101ED00047464646454545444444444343434342BC
:101EE000424242414141002B9C4630D477002BD0E6
:101EF0001CB54FEA370703B44FF010004FF0100144
:101F0000BAF1000F06D0BCF1000FDCBF40F00800B2
:101F100040F008014FF000000FBCBDE810400BF18D
:101F2000010BBBF1010F08BF5FEA170722BF12F1D7
:101F3000010211F101014FF0004143F1000300F0F3
:101F4000004043EA00007047F9D35708D0E746EA5B
:101F5000064613F1400F4FEA16461FDD13F1200F1E
:101F6000DFBF16430A46002120335B42BED0C3F1D7
:101F7000200746EA064602FA07F74FEA164646EAFF
:101F80000706C3F1200722FA03F201FA07F721FA44
:101F900003F14FF0000342EA0702A7E746EA020610
:101FA00046EA06464FEA164646EA0106BCBF46EA3E
:101FB0000646360C4FF000034FF000024FF00001D0
:101FC00094E72DE9804C9A46934670B491E8380026
:101FD00007C831EA400C48BF34EA430C03D5FFF789
:101FE000E6FDFFF780FFF0BCBDE8008C2DE9804CDA
:101FF0009A46934670B491E8380007C810F0804FB5
:1020000008BF13F0804F03D100F005F8FFF76BFF16
:10201000F0BCBDE8008C20F07F4780EA030023F08D
:102020007F4C07EB0C03A3F57C5300F00040A3F1B9
:10203000FE0392F0000F00F0B38095F0000F00F067
:1020400077802DE901494FEA11404FEA144621EA11
:10205000004800FB06FC24EA064708FB06F607FBDF
:1020600008F800FB07F718EB06484CEB164C4FEA54
:10207000124B18EB07484FEA15464CEB174022EA83
:102080000B4E0BFB06FC25EA06470EFB06F607FB8C
:102090000EFE0BFB07F71EEB064E4CEB164C4FF0FB
:1020A00000061EEB074E4CEB174B18EB0B0840F1EC
:1020B000000018EB0E0B58EB000840F100008F1ADF
:1020C0004FF000013CBFC943661B14BFB5EB040CC5
:1020D00000213CBFC943F61B4FEA17444EEA8E0E5F
:1020E00027EA04454FEA1C4704FB07622CEA074C29
:1020F00005FB07F70CFB05F604FB0CFC16EB07468B
:1021000042EB174216EB0C4642EB1C421BEB060659
:1021100058EB0202414146EA9E0601D5BDE801891D
:10212000B619524141EB0101A3F10103BDE8018958
:102130004FEA14454FEA114724EA054621EA074CC5
:1021400005FB07F406FB07F70CFB06F105FB0CFC8F
:1021500011EB074144EB17444FEA124711EB0C41D6
:1021600044EB1C4422EA074C05FB07F206FB07F789
:102170000CFB06F605FB0CFC16EB074642EB174280
:1021800016EB0C4642EB1C456A1854F1000148BF9F
:102190007047B619524141EB0101A3F101037047A9
:1021A00095F0000F37D04FEA11424FEA144721EA69
:1021B000024624EA074C02FB07F106FB07F70CFB7B
:1021C00006F402FB0CFC14EB074441EB17414FEA09
:1021D000154714EB0C4441EB1C4125EA074C02FB6C
:1021E00007F506FB07F70CFB06F602FB0CFC16EBEB
:1021F000074645EB174516EB0C4645EB1C421219FA
:1022000051F1000148BF7047B619524141EB01013D
:10221000A3F1010370474FEA14454FEA114724EA3E
:10222000054621EA074C05FB07F106FB07F70CFB07
:1022300006F24FF0000605FB0CFC12EB074241EBE7
:10224000174112EB0C4251EB1C4148BF70479218EA
:1022500041EB0101A3F10103704700002DE9F041BA
:10226000074688460026364841680020884734489B
:10227000808E00F40040002850D000244BE0002560
:1022800029E02F48818905EB850007EB00105030CD
:1022900081421EDA2A48808905EB850107EB01118E
:1022A000884216DD2648018CC4EB041008EB400080
:1022B0001E3081420DDA2248008CC4EB041108EB79
:1022C0004101884205DD04EB44002844401CC6B2AD
:1022D00003E0681C85B2032DD3DB00BFCEB11948E3
:1022E0000078B04201D1002612E016480078401E66
:1022F000C2B200234146384600F026F81148067065
:102300000078401EC2B201234146384600F01CF856
:1023100003E0601C84B2052CB1DB0EE009480078B4
:1023200058B108480078401EC2B2002341463846E2
:1023300000F00AF80020034908703046BDE8F0813B
:10234000A4000020740100202DE9FC4705460E463C
:1023500014469946032094FBF0F087B2032094FBC7
:10236000F0F100FB11401FFA80F8102C01DDBDE8F0
:10237000FC87B9F1000F27D0012C25D04FF4FC6069
:10238000C7EB071C06EB4C0C0CF11C0C1FFA8CF372
:1023900008EB880C05EB0C1C0CF14E0C1FFA8CF2B0
:1023A000C7EB071C06EB4C0C0CF1010C1FFA8CF16F
:1023B00008EB880C05EB0C1C0CF1010C00901FFACB
:1023C0008CF00BF09BF926E0012C24D04FF6FF7027
:1023D000C7EB071C06EB4C0C0CF11C0C1FFA8CF322
:1023E00008EB880C05EB0C1C0CF14E0C1FFA8CF260
:1023F000C7EB071C06EB4C0C0CF1010C1FFA8CF11F
:1024000008EB880C05EB0C1C0CF1010C00901FFA7A
:102410008CF00BF073F9012C15D0002050210B4BE0
:10242000CDE900101B6853F82420F31D4FF01E0C5B
:102430000CFB073399B208EB880305EB031398B242
:1024400010230EF04BFF00BF91E70000F8000020C2
:102450002DE9FF4705460C4617464FF478404D4995
:1024600008604D4807604FF6FF70009004F1960039
:1024700083B205F1F00082B2214628460BF03EF906
:102480000020009004F1960083B205F1F00082B2C2
:102490002146284608F0F2FC002004F196018BB298
:1024A00005F1A0018AB25039009088B2214608F0A7
:1024B000E5FC0020009004F13C0083B205F1F0003F
:1024C00082B204F11E0081B2284608F0D7FC002039
:1024D000009004F1780083B205F1F00082B204F1BB
:1024E0005A0081B2284608F0C9FC1F20294908601B
:1024F00000264AE0012E25D1032096FBF0F1E01DD5
:102500001E2202FB01001FFA80F8032096FBF0F167
:1025100000FB116000EB800005EB0010801C1FFA2F
:1025200080F9002110231C48006850F82600CDE9EE
:1025300001311E23502203910090414648460EF07F
:1025400069FE20E0032096FBF0F1E01D1E2202FB55
:1025500001001FFA80F8032096FBF0F100FB1160E8
:1025600000EB800005EB00101FFA80F900205021DD
:10257000CDE900100848006850F826201023414695
:1025800048460EF0ABFE701C86B20F2EB2DBBDE8E3
:10259000FF87000034000020F80000202DE9FC41F6
:1025A000002791E1052F4ED2DFE807F0034E99E2B4
:1025B000FE00701CC6B24FF6FF700090C44802883F
:1025C000A023642100200BF099F80020F0211023B3
:1025D000C0A2CDE9001064210EF080FE04F0ECFFF3
:1025E00004466CBB00BF01221102BD4801F06EFB26
:1025F00000BF012004F0BDFF044600BF00224FF4DD
:102600008071B74801F062FB00BFACB94FF6FF70B4
:102610000090AF480288A023782100200BF06EF8CC
:102620000020F0211023AFA2CDE9001078210EF098
:1026300055FE0026012706E0204606F075FD02E063
:10264000204606F071FD2DE1701CC6B24FF6FF70FA
:1026500000909F480288A023642100200BF04EF8D0
:102660000020F0211023A2A2CDE9001064210EF079
:1026700035FE04F0A1FF04466CBB00BF012211022D
:10268000974801F023FB00BF022004F072FF0446CC
:1026900000BF00224FF48071914801F017FB00BF8A
:1026A000ACB94FF6FF70009089480288A0237821CA
:1026B00000200BF023F80020F021102389A2CDE99F
:1026C000001078210EF00AFE0026022706E02046C0
:1026D00006F02AFD02E0204606F026FDE2E04FF675
:1026E000FF7000907A480288A023642100200BF03C
:1026F00005F80020F021102382A2CDE9001064210A
:102700000EF0ECFD05F090F80446A4B94FF6FF700A
:1027100000906F480288A023782100200AF0EEFF85
:102720000020F02110237BA2CDE9001078210EF0CB
:10273000D5FD032717E04FF6FF700090644802882C
:10274000A023642100200AF0D9FF0020F0211023EB
:1027500076A2CDE9001064210EF0C0FD204606F0FF
:10276000E3FC002600274FF4966007F071FD99E026
:102770004FF6FF70009056480288A0236421002085
:102780000AF0BCFF0020F02110236FA2CDE9001059
:1027900064210EF0A3FD05F0DDF80446B4B94FF650
:1027A000FF7000904A4800E019E00288A0237821D9
:1027B00000200AF0A3FF0020F021102366A2CDE93B
:1027C000001078210EF08AFD042703E00027204640
:1027D00006F0AAFC4FF4966007F03AFD62E04FF66F
:1027E000FF7000903A480288A023642100200AF07C
:1027F00085FF0020F02110235CA2CDE900106421A8
:102800000EF06CFD0020F02110235FA2CDE9001036
:1028100078210EF063FD00BF00F063FF05465E48BF
:102820000188A942F8DD2946022005F0D3F80446C4
:1028300094BB4FF6FF70009025480288A0236421C6
:1028400000200AF05BFF0020F021102353A2CDE905
:10285000001078210EF042FD544805F0EBF80020FE
:102860001021CDE900104C48008850490988421ACF
:102870000323502138200BF00BFC40F2DC5007F012
:10288000E7FC4FF6FF70A023F022642100900020A7
:102890000AF034FFBDE8FC81FFE70027204606F080
:1028A00043FC00BF00BF4FF4C87007F0D1FC052EF9
:1028B0000AD14FF6FF70009005480288A0236421DA
:1028C00000200AF01BFF00E06CE600BF00BFE1E75C
:1028D00038080020C7EBB0B4D6B8CEC60000000060
:1028E000000C0140D6B8CEC6D5FDB3A30000000051
:1028F000C7EBB0B4D4D9B0B4D2BBB4CED6B8CEC680
:1029000000000000B6D4B1C8C1BDB4CED6B8CEC6A2
:1029100000000000B6D4B1C8B3C9B9A62CC1BDB47B
:10292000CED6B8CEC6D2BBD1F9000000B6D4B1C85D
:10293000CAA7B0DCA3ACC7EBD6D8D0C2C2BCC8EB28
:10294000D6B8CEC600000000C9FAB3C9D6B8CEC604
:10295000C4A3B0E500000000C9FAB3C9D6B8CEC61A
:10296000C4A3B0E5B3C9B9A600000000C7EBCAE430
:10297000C8EBB4A2B4E649442CB0B4456E74657299
:10298000B1A3B4E600000000303D3C204944203CA7
:102990003D32393900000000B01C0020C2BCC8EB39
:1029A000D6B8CEC6B3C9B9A600000000F400002016
:1029B0002DE9F047074689469046DDF820C0002102
:1029C000002200240026002500200446024601467D
:1029D00045E0002601E0491C761C614502D2585CA6
:1029E0002028F8D0614500D13BE0ACEB0100022883
:1029F00007D3585C0D2804D1481C185C0A2800D164
:102A00002CE0585C0A2800D128E01EB16FF02B00A2
:102A1000BDE8F087585C3D2806D1601C04460228BA
:102A200002D96FF02B00F3E7585C7F2806DC585C76
:102A3000DFF8E4A01AF800007F2802D16FF02B0025
:102A4000E6E7585CDFF8D0A01AF80000402803DA67
:102A500014B16FF02B00DBE7521C00BF491C61452D
:102A6000B7D300BF1AB90020C8F80000D0E7D008DB
:102A700000EB40004FEA400A02F0070000EB400084
:102A80004000C01D0AEBD002121B0FB1914504D2C9
:102A9000C8F800206FF02900BAE70324002006469A
:102AA00002463D4631E018780D2805D018780A28EE
:102AB00002D01878202800D125E01878DFF858A037
:102AC0001AF80000402801D1012000E00020241A5B
:102AD0001878DFF844A01AF8000066F39F10064645
:102AE000501C024604280DD1002214B1300C05F808
:102AF000010B012C02D9300A05F8010B022C01D977
:102B000005F8016B00BF491E5B1C0029CBD1E81BF7
:102B1000C8F8000000207BE70B6501082DE9F04FA5
:102B200007468946099C00250026AC46A846AA46C9
:102B300000211CB900201060BDE8F08F0320B4FB19
:102B4000F0F04FF0030BB4FBFBFE0BFB1E4BBBF195
:102B5000000F02D04FF0010B01E04FF0000B00EB33
:102B60000B06B6F1804F05D34FF0FF3010606FF0C9
:102B70002900E1E7B600701C814500D327B9701C1D
:102B800010606FF02900D7E70320B4FBF0F000EBF2
:102B900040060025394629E013F801CB13F8018BD4
:102BA00013F801AB2D484FEA9C0B10F80B0001F80D
:102BB000010B4FEA0C1000EB281000F03F00DFF88B
:102BC0009CB01BF8000001F8010B4FEA880000EBF5
:102BD000AA1000F03F001BF8000001F8010B0AF0FA
:102BE0003F001BF8000001F8010BED1CB542D3D3E8
:102BF000A5422DD213F801CB681CA04202D213F8D3
:102C0000010B00E0002080461448CCF3850B10F83F
:102C10000B0001F8010B4FEA0C1000EB281000F03C
:102C20003F00DFF838B01BF8000001F8010B681C0A
:102C3000A04207D23F2000EA88001BF8000001F8FC
:102C4000010B02E03D2001F8010B3D2001F8010BD2
:102C5000C81B10600020087000BF6DE7CB6401083E
:102C60001CB54FF6FF7007F07DFF0020F021102308
:102C700007A2CDE9001028210EF030FB0020F02142
:102C8000102306A2CDE900103C210EF027FB1CBD4D
:102C9000BDE2CBF8C4A3CABD00000000C7EBCAE484
:102CA000C8EBC3DCC2EB000010B5044622464FF46B
:102CB0008071034801F00AF80248047010BD00005A
:102CC000000C01403100002000BFFEE72DE9F0417B
:102CD0000746884615460421052000F02DF80021FE
:102CE000012007F005F880210A2006F00FFA0024E1
:102CF00005E0395D092006F0FBFF601CC4B24445C5
:102D0000F7DB0321012006F0F3FFFF2400BF0520BD
:102D100005F042FD0646601EC4B21CB106F0040078
:102D20000028F4D0222005F037FD2870212005F07E
:102D300033FD6870BDE8F08170B505460C46284645
:102D400005F02AFD064626EA0401284606F0D0FFD3
:102D500070BD70477CB54FF6FF7000903F48028809
:102D6000A023642100200AF0C9FC0020F0211023D8
:102D70003BA2CDE9001064210EF0B0FA0020F02152
:102D800010233AA2CDE9001078210EF0A7FA002016
:102D9000F02110233BA2CDE900108C210EF09EFA09
:102DA000322007F055FA3B4AAA210020FFF750FBDA
:102DB00000F097FC05464FF6FF70854200D139E0E0
:102DC000B5F57F4F03D104F0B7FB044604E00121C1
:102DD000284604F07BFB04469CB94FF6FF70009038
:102DE0001E480288A023782100200AF087FC0020DA
:102DF000F021102328A2CDE900108C210EF06EFAEC
:102E000002E0204606F090F94FF4966007F020FAB1
:102E1000254804F00FFE00201021CDE900102348C2
:102E2000008821490988421A0323502138200BF0D9
:102E30002FF900BF4FF6FF70009008480288A023CA
:102E4000642100200AF05AFC322007F001FA184AE7
:102E5000AA210020FFF7FCFA7CBD00003808002002
:102E6000C9BEB3FDD6B8CEC600000000C7EBCAE4A9
:102E7000C8EBD6B8CEC64944B0B4456E746572B7D7
:102E8000A2CBCD00303D3C204944203C3D32393975
:102E90000000000038010020C9BEB3FDD6B8CEC680
:102EA000B3C9B9A600000000F4000020B01C002047
:102EB000FC00002010B54FF400710248FDF751FEF0
:102EC00010BD000000C8002070B50546002400BFFA
:102ED00000F0F8F980B90DA10E48FDF7F3FC0446A7
:102EE00054B13A212046FDF7D1FC044614B1641CCC
:102EF000204670BD0020FCE7052000F005FD281EDF
:102F0000A5F101018DB2E3D100BFF2E74950442C95
:102F10000000000000C8002000B587B000BF6D4869
:102F2000806940F004006B4988610846806900F0C0
:102F30000400029000BF00BF102003900120049005
:102F40000320069003A9644800F018FD0022102118
:102F5000614800F0BBFEFA2000F0D6FC01221021EF
:102F60005D4800F0B3FE4FF4FA7000F0CDFCFFF7BF
:102F7000A1FF282259494B2006F089FF58A0FDF7F0
:102F800051FA13E000205AA110221346CDE9002186
:102F90000290F02228211E200BF0C6F84FF4FA70A0
:102FA00000F0B2FC4FF6FF7007F0DCFD52A150A01C
:102FB00000F030F90028E5D150A0FDF733FA13E016
:102FC000002055A110221346CDE900210290F022E5
:102FD00028211E200BF0A8F84FF4FA7000F094FCA2
:102FE0004FF6FF7007F0BEFD43A14BA000F012F9B1
:102FF0000028E5D14CA0FDF715FA13E000204EA102
:1030000010221346CDE900210290F02228211E2033
:103010000BF08AF84FF4FA7000F076FC4FF6FF7070
:1030200007F0A0FD34A144A000F0F4F80028E5D199
:1030300045A0FDF7F7F913E000204AA1102213463E
:10304000CDE900210290F02228211E200BF06CF81F
:103050004FF4FA7000F058FC4FF6FF7007F082FD55
:1030600045A11E4800F0D6F80028E5D144A0FDF7A0
:10307000D9F913E000204AA110221346CDE900211E
:103080000290F02228211E200BF04EF84FF4FA7027
:1030900000F03AFC4FF6FF7007F064FD45A147A031
:1030A00000F0B8F80028E5D150A0FDF7BBF90020EA
:1030B00054A110221346CDE900210290F0222821CC
:1030C0001E200BF031F84FF6FF7007F04BFD07B0F4
:1030D00000BD0000001002400008014000CE0020AA
:1030E000312E20B2E2CAD44154C6F4B6AF0D0A0064
:1030F00041540D0A000000004F4B0000322E20C941
:10310000E8D6C357694669C4A3CABDA3A843574DAF
:103110004F4445A3A90D0A0041542B43574D4F443A
:10312000453D310D0A000000332E2041542B4357FA
:10313000444843500D0A000041542B435744484330
:10314000503D312C310D0A00342E20C1ACBDD35777
:10315000694669C8C8B5E3A3A843574A4150A3A923
:103160000D0A0000455350383236365F57494649FC
:103170005F494E464F000000474F54204950000021
:10318000352E20BDA8C1A2544350C1ACBDD3A3A8C5
:103190004349505354415254A3A90D0A0000000062
:1031A000455350383236365F4F4E454E45545F4991
:1031B0004E464F00434F4E4E4543540041542B431F
:1031C000495053544152543D22544350222C226DB5
:1031D000717474732E6865636C6F7564732E636F9E
:1031E0006D222C313838330D0A000000362E204570
:1031F00053503832363620496E6974204F4B0D0AD1
:10320000000000004553503832363620496E69744C
:10321000204F4B002DE9F04104460D46C8262046BC
:10322000FDF7B2FB87B24FF6FF733A4621460F48CF
:1032300002F0E2FA13E000F045F868B90C490DA07D
:10324000FDF7F0F829460A48FDF73CFB20B1FFF7EF
:1032500031FE0020BDE8F0810A2000F055FB301E51
:10326000A6F10101CEB2E6D10120F3E7041D002052
:1032700000C800202573000030B589B004460D4613
:10328000FFF718FE2A4609A101A8FDF7D7F80BA100
:1032900001A8FFF7BFFF30B94FF6FF732A4621465A
:1032A000074802F0A9FA09B030BD000041542B4391
:1032B000495053454E443D25640D0A003E00000030
:1032C000041D00200A48008808B9012070470848FA
:1032D000008808490988884203D1002004490880F1
:1032E000F4E703480088034908800120EEE7000066
:1032F000080200200A02002000B587B000200390D9
:103300000490059006900190029000BF12488069D9
:1033100040F00400104988610846806900F004000C
:10332000009000BF00BF881503900C480490002057
:10333000059003A90A4800F021FB0022114617203E
:1033400000F027FD172000F014FD4FF4807000F00E
:1033500007FB07B000BD0000001002400000111084
:103360000008014010B54FF4807000F0F9FA10BD6C
:10337000014621293ED2DFE801F011131517191B70
:103380001D1F212325273D3D3D3D292B3D3D3D2D45
:103390003D3D2F313335373D3D393B0017A02BE004
:1033A00017A029E01AA027E01EA025E022A023E014
:1033B00029A021E030A01FE036A01DE043A01BE0C3
:1033C00045A019E048A017E04BA000BF53A013E0B0
:1033D00056A011E059A00FE061A00DE064A00BE041
:1033E00066A009E069A007E06DA005E071A003E018
:1033F00073A001E075A000BF00BF70474F4B0000F5
:10340000CAFDBEDDB0FCBDD3CAD5B4EDCEF300001D
:10341000B4ABB8D0C6F7C9CFC3BBD3D0CAD6D6B821
:1034200000000000C2BCC8EBD6B8CEC6CDBCCFF100
:10343000CAA7B0DC00000000D6B8CEC6CDBCCFF124
:10344000CCABB8C9A1A2CCABB5ADB6F8C9FAB2BB8A
:10345000B3C9CCD8D5F70000D6B8CEC6CDBCCFF115
:10346000CCABCAAAA1A2CCABBAFDB6F8C9FAB2BB22
:10347000B3C9CCD8D5F70000D6B8CEC6CDBCCFF1F5
:10348000CCABC2D2B6F8C9FAB2BBB3C9CCD8D5F767
:1034900000000000D6B8CEC6CDBCCFF1D5FDB3A399
:1034A000A3ACB5ABCCD8D5F7B5E3CCABC9D9A3A801
:1034B000BBF2C3E6BBFDCCABD0A1A3A9B6F8C9FA59
:1034C000B2BBB3C9CCD8D5F700000000D6B8CEC681
:1034D000B2BBC6A5C5E40000C3BBCBD1CBF7B5BD1D
:1034E000D6B8CEC600000000CCD8D5F7BACFB2A26D
:1034F000CAA7B0DC00000000B7C3CECAD6B8CEC69B
:10350000BFE2CAB1B5D8D6B7D0F2BAC5B3ACB3F63C
:10351000D6B8CEC6BFE2B7B6CEA70000C9BEB3FDCF
:10352000C4A3B0E5CAA7B0DC00000000C7E5BFD562
:10353000D6B8CEC6BFE2CAA7B0DC0000BBBAB3E5BE
:10354000C7F8C4DAC3BBD3D0D3D0D0A7D4ADCABCDC
:10355000CDBCB6F8C9FAB2BBB3C9CDBCCFF100003F
:10356000B6C1D0B420464C41534820B3F6B4ED0068
:10357000CEB4B6A8D2E5B4EDCEF30000CEDED0A72F
:10358000BCC4B4E6C6F7BAC500000000BCC4B4E6CB
:10359000C6F7C9E8B6A8C4DAC8DDB4EDCEF30000BA
:1035A000BCC7CAC2B1BED2B3C2EBD6B8B6A8B4EDDE
:1035B000CEF30000D6B8CEC6BFE2C2FA00000000CB
:1035C000B5D8D6B7B4EDCEF300000000C4A3BFE970
:1035D000B7B5BBD8C8B7C8CFC2EBD3D0CEF30000C5
:1035E00000BFFEE770B50446B3F5804F13D1D1E9B3
:1035F000000540EA05108D6840EA05208D692843E2
:103600008D8940EA054054F82250064E3540284343
:1036100044F8220003E06FF0704044F822000020DC
:1036200070BD00000000F0CF70B50246086852F887
:10363000200020F001000E6842F826008868082863
:1036400001D1402300E00023486818438E683043CE
:10365000CE6830430E6930434E693043CE69304303
:103660000E6A30434E6A30438E6A3043CE6A30432E
:103670000E6B40EA060488690443486B0443074D17
:1036800045F4806545F4E025086852F82000A84319
:1036900020430E6842F82600002070BD7FFB080022
:1036A00010B50346D1E9000440EA04108C6840EAF2
:1036B00004208C8940EA0444088A401E44EA0054ED
:1036C000087D801E44EA00608C692043541C53F836
:1036D000244004F040442043541C43F824000020BC
:1036E00010BD7CB50024002539E0AA210020FEF79A
:1036F000B5FD04464CB3012C02D14FF6FF707CBDE2
:10370000032C02D14FF47F40F9E7032C09DD0D2C87
:1037100007DA632D05DA05EB850004EB4000C01ED7
:1037200085B20D2C03D10A2095FBF0F085B20E2C4A
:1037300007D1632D05DA05EB85004FF6FF7101EA2D
:1037400040050F2C01D12846D9E70020102106237F
:103750002A46CDE90010B1215F200AF099FCC4E7A8
:1037600070B50446002594F82100022803D00420F7
:10377000A0630125C1E02068006820F00E002168E8
:1037800008602068006820F00100216808605C493A
:103790002068884252D95A4978392068884201D134
:1037A000012047E0564964392068884201D1102041
:1037B00040E0534950392068884201D1801539E0F2
:1037C0004F493C392068884201D1801432E04C498D
:1037D00028392068884202D14FF480302AE04849D5
:1037E00014392068884202D14FF4801022E0444905
:1037F0002068884201D140041CE042492068884288
:1038000001D1012016E03F4914312068884201D1DE
:1038100010200FE03B4928312068884201D18015F3
:1038200008E038493C312068884201D1801401E029
:103830004FF480303349091F086051E0304978392E
:103840002068884201D1012047E02D496439206871
:10385000884201D1102040E029495039206888422F
:1038600001D1801539E026493C392068884201D1D0
:10387000801432E0224928392068884202D14FF46E
:1038800080302AE01E4914392068884202D14FF462
:10389000801022E01A492068884201D140041CE0CF
:1038A00018492068884201D1012016E015491431D9
:1038B0002068884201D110200FE012492831206889
:1038C000884201D1801508E00E493C3120688842C9
:1038D00001D1801401E04FF48030094980394860FB
:1038E000012084F8210000BF002084F8200000BFE0
:1038F000606B10B12046616B8847284670BD0000A0
:10390000800002400804024010B50446A0B206F050
:103910009FFC10BD10B50446B4F5807F19D100BFDF
:10392000002240210B4800F0D1F900BF00BF012266
:103930004021084800F0CAF900BF00BF0122082159
:10394000054800F0C3F900BF04480078401C034953
:10395000087010BD00140140000C0140320000202E
:1039600010B5044604480068204020B102480460B5
:103970002046FFF7CFFF10BD140401402DE9F847A2
:10398000024600239C467BE14FF0010808FA03F44D
:10399000D1F8008008EA0400A0427DD1DFF8F4A24B
:1039A000D1F80480A8EB0A09D0453AD014DCB8F16C
:1039B000030F50D009DCB8F1000F31D0B8F1010F7E
:1039C0001CD0B8F1020F49D120E0B8F1110F18D086
:1039D000B8F1120F42D11EE0B9F5881F25D006DCE0
:1039E000B9F5803F20D0B9F5801F37D11AE0B9F57D
:1039F000001F18D0B9F5041F30D117E0D1F80CC062
:103A00002DE0D1F80C8008F1040C28E0D1F80C80EE
:103A100008F1080C23E0D1F80C8008F10C0C1EE032
:103A200000BF00BF00BF00BF00BF00BFD1F80880CB
:103A3000B8F1000F02D14FF0040C0BE0D1F8088070
:103A4000B8F1010F03D14FF0080C146102E04FF000
:103A5000080C546103E04FF0000C00E000BF00BF11
:103A6000FF2801D8904601E002F104084646FF28ED
:103A700002D84FEA830803E0A3F108084FEA880858
:103A80004746D6F800804FF00F0909FA07F928EAEF
:103A900009080CFA07F900E07AE048EA0908C6F8D4
:103AA0000080D1F8048008F08058B8F1805F6FD1B1
:103AB00000BFDFF8E481D8F8188048F00108DFF88B
:103AC000D891C9F81880C846D8F8188008F00108BD
:103AD000CDF8008000BF00BF4FEAB9384FEA930924
:103AE00058F829504FEA83784FEA18794FF00F08B9
:103AF00008FA09F825EA0805DFF8A081424502D155
:103B00004FF0000824E0DFF89881424502D14FF0E1
:103B100001081DE0DFF88C81424502D14FF0020818
:103B200016E0DFF88481424502D14FF003080FE030
:103B3000DFF87881424502D14FF0040808E0DFF851
:103B40007081424502D14FF0050801E04FF00608B0
:103B50004FEA83794FEA197908FA09F848EA050526
:103B6000DFF850814FEA930948F82950D1F80480D2
:103B700008F48038B8F5803F0BD1DFF83C81D8F8E5
:103B8000008048EA0008DFF83091C9F800800AE0B8
:103B900075E0DFF82481D8F8008028EA0008DFF813
:103BA0001891C9F80080D1F8048008F40038B8F5FD
:103BB000003F0ED1DFF8008108F10408D8F800803A
:103BC00048EA0008DFF8F09009F10409C9F800801C
:103BD0000DE0DFF8E48008F10408D8F8008028EA56
:103BE0000008DFF8D49009F10409C9F80080D1F881
:103BF000048008F48018B8F5801F0ED1DFF8B88073
:103C000008F10808D8F8008048EA0008DFF8A89012
:103C100009F10809C9F800800DE0DFF89C8008F17F
:103C20000808D8F8008028EA0008DFF88C9009F12D
:103C30000809C9F80080D1F8048008F40018B8F524
:103C4000001F0ED1DFF8708008F10C08D8F8008052
:103C500048EA0008DFF8609009F10C09C9F8008013
:103C60000DE0DFF8548008F10C08D8F8008028EA4D
:103C70000008DFF8449009F10C09C9F800805B1CCA
:103C8000D1F8008028FA03F8B8F1000F7FF47CAE79
:103C9000BDE8F88700001110001002400008014044
:103CA000000C0140001001400014014000180140C8
:103CB000001C0140080001400004014002469368D6
:103CC0000B400BB1012000E0002070470AB10161F8
:103CD00001E00B0403617047014800687047000071
:103CE0002800002003480068034909780844014976
:103CF00008607047280000203000002010B50848F8
:103D0000006840F0100006490860032000F080F8C9
:103D10000F2000F007F800F02BF8002010BD000085
:103D20000020024070B504460E4800784FF47A71C6
:103D3000B1FBF0F00C490968B1FBF0F5284601F041
:103D400065F808B1012070BD102C07D20022214671
:103D5000501E00F01EF80548046001E00120F2E763
:103D60000020F0E730000020180000202C00002088
:103D7000704701460846002809DB00F01F030122B6
:103D80009A4043099B0003F1E023C3F8002100BFE0
:103D900070472DE9F05F80460D461646002705F076
:103DA000D5FF074639462A46334601F00700C0F1E1
:103DB000070ABAF1040F02D94FF0040A01E0C0F17A
:103DC000070AD14600F1040ABAF1070F02D24FF0F8
:103DD000000A01E0A0F1030AD4464FF0010A0AFAF2
:103DE00009FAAAF1010A0AEA020A0AFA0CFA4FF0E1
:103DF000010B0BFA0CFBABF1010B0BEA030B4AEACC
:103E00000B042146404605F0A9FFBDE8F09F0000E5
:103E100000BF00F00702064B19684FF6FF03194078
:103E2000044B0B4343EA0221014B196000BF70476A
:103E30000CED00E00000FA0501200149086270471E
:103E400000000E422DE9F04385B0064642A30FCB99
:103E500001AC0FC444A0006800904FF0000800259A
:103E600000270024A146042E36D004DC012E3BD0CE
:103E7000022E6BD15FE0082E32D0102E66D13B4867
:103E80004468006800F0807000B301A8C4F3834167
:103E9000475C04F4803070B134484068C0F340405F
:103EA0001DF8008004F4803040B13148B0FBF8F0D8
:103EB00000FB07F502E02F4807FB00F52B484068A0
:103EC00000F48000B0F5800F01D1A94603E068003E
:103ED0000321B0FBF1F93AE000F0D2F9814636E077
:103EE00000F0CEF9814632E02048046A04F44070C4
:103EF000B0F5807F05D104F0020010B14FF4004905
:103F000018E004F44070B0F5007F07D11748406A0C
:103F100000F0020010B149F640490BE004F4407093
:103F2000B0F5407F06D11148006800F4003008B1B8
:103F30004FF224490BE000F093F90C494968C1F3B2
:103F40008131491C4900B0FBF1F900E000BF00BF1E
:103F5000484605B0BDE8F0830203040506070809DA
:103F60000A0B0C0D0E0F1010010200000010024091
:103F700000127A0000093D00F8B50446002600252D
:103F8000207800F0010000286BD000274348C0696A
:103F900000F0805070B900BF4048C06940F08050C8
:103FA0003E49C8610846C06900F08050009000BFDB
:103FB00000BF01273A48006800F48070B0B9384863
:103FC000006840F4807036490860FFF785FE0646B9
:103FD00006E0FFF781FE801B642801D90320F8BDAD
:103FE0002F48006800F480700028F2D02B48006A47
:103FF00000F440752DB3A08800F44070A84220D092
:104000002648006A20F440750120264908600020F7
:1040100008602248056205F0010090B1FFF75CFEE0
:10402000064608E0FFF758FE801B41F288318842BF
:1040300001D90320D3E71948006A00F002000028E4
:10404000F0D01648006A20F44070616808431349B4
:104050000862012F04D10846C06920F08050C86171
:1040600000BF207800F00200022807D10B4840680A
:1040700020F44040A168084308494860207800F0D7
:104080001000102807D10548406820F480006169BD
:104090000843024948600020A1E7000000100240E8
:1040A000007000404004424270B504460D460CB911
:1040B000012070BD5A48006800F00700A8420ED2E7
:1040C0005748006820F00700284355490860084613
:1040D000006800F00700A84201D00120E9E720783D
:1040E00000F0020002281DD1207800F0040004280E
:1040F00005D14C48406840F4E0604A494860207867
:1041000000F00800082805D14648406840F4605097
:10411000444948604348406820F0F000A1680843E3
:1041200040494860207800F0010078B360680128B9
:1041300006D13C48006800F4003090B90120B8E78F
:104140006068022806D13748006800F0007040B966
:104150000120AEE73348006800F0020008B90120F2
:10416000A7E73048406820F00300616808432D4904
:104170004860FFF7B1FD064609E0FFF7ADFD801B83
:1041800041F28831884202D9032092E707E02548AE
:10419000406800F00C006168B0EB810FEDD1204861
:1041A000006800F00700A8420ED91D48006820F002
:1041B000070028431A4908600846006800F0070015
:1041C000A84201D0012074E7207800F00400042800
:1041D00007D11448406820F4E060E16808431149C1
:1041E0004860207800F00800082808D10D48406891
:1041F00020F46050216940EAC1000A49486000F09B
:104200003FF808494968C1F30311074A515CC840A7
:104210000649086006480068FFF784FD002048E76B
:104220000020024000100240BE33010818000020A8
:104230002C00002001480068704700001800002092
:1042400000B5FFF7F7FF04494968C1F30221034AAB
:10425000515CC84000BD000000100240CE33010890
:1042600000B5FFF7E7FF04494968C1F3C221034ADB
:10427000515CC84000BD000000100240CE33010870
:10428000F0B585B00FF26C0C9CE8E01001A8A0E836
:10429000E0101CA52D6800950021002200230024B9
:1042A0000020194D696801F00C05F5B1042D02D00C
:1042B000082D19D101E0154819E001ADC1F383467D
:1042C000AC5D01F4803555B10F4D6D68C5F34045C7
:1042D0001DF805200D4D6543B5FBF2F302E00C4DD2
:1042E00004FB05F3184602E000BF084800BF00BF0A
:1042F00005B0F0BD02030405060708090A0B0C0D02
:104300000E0F1010010200000010024000127A008F
:1043100000093D00F8B504460CB90120F8BD20782D
:1043200000F00100002878D0F848406800F00C0048
:1043300004280CD0F548406800F00C00082811D182
:10434000F248406800F48030B0F5803F0AD1EF4871
:10435000006800F4003000285FD0606800285CD15D
:104360000120DBE700BF6068B0F5803F06D1E74879
:10437000006840F48030E549086028E0606858B97A
:10438000E248006820F48030E04908600846006890
:1043900020F4802008601AE06068B0F5A02F0BD1EF
:1043A000DA48006840F48020D84908600846006870
:1043B00040F4803008600AE0D448006820F480307F
:1043C000D24908600846006820F48020086000BFD9
:1043D000606888B1FFF780FC054606E0FFF77CFCCB
:1043E000401B642801D9032098E7C848006800F4FE
:1043F00000300028F2D010E0FFF76EFC054606E022
:10440000FFF76AFC401B642801D9032086E7BF48F8
:10441000006800F400300028F2D1207800F002009B
:10442000022857D1B948406800F00C0050B1B74895
:10443000406800F00C00082818D1B448406800F427
:10444000803098B9B148006800F0020020B12069BE
:10445000012801D0012061E7AC48006820F0F80095
:10446000616940EAC100A949086033E02069E8B108
:104470000120A7490860FFF72FFC054606E0FFF77B
:104480002BFC401B022801D9032047E79F48006806
:1044900000F002000028F2D09C48006820F0F800EC
:1044A000616940EAC1009949086013E00020984919
:1044B0000860FFF711FC054606E0FFF70DFC401B06
:1044C000022801D9032029E79048006800F0020083
:1044D0000028F2D1207800F0080008282DD1A0692A
:1044E000B8B101208B490860FFF7F6FB054606E0EE
:1044F000FFF7F2FB401B022801D903200EE7834897
:10450000406A00F002000028F2D0012004F0AAF86E
:1045100013E000207F490860FFF7DEFB054606E058
:10452000FFF7DAFB401B022801D90320F6E67748A3
:10453000406A00F002000028F2D1207800F0040068
:10454000042873D100277148C06900F0805070B909
:1045500000BF6E48C06940F080506C49C861084691
:10456000C06900F08050009000BF00BF01276A487A
:10457000006800F48070B0B96748006840F480704B
:1045800065490860FFF7A8FB054606E0FFF7A4FBB6
:10459000401B642801D90320C0E65F48006800F48E
:1045A00080700028F2D000BFE068012806D157488B
:1045B000006A40F001005549086227E0E06858B9F8
:1045C0005248006A20F00100504908620846006A1B
:1045D00020F00400086219E0E06805280BD14B4880
:1045E000006A40F00400494908620846006A40F049
:1045F000010008620AE04548006A20F001004349D2
:1046000008620846006A20F00400086200BFE06803
:10461000A0B1FFF761FB054609E0FFF75DFB401B1A
:1046200041F28831884202D9032077E622E03748F8
:10463000006A00F002000028EFD012E0FFF74CFB08
:10464000054608E0FFF748FB401B41F288318842ED
:1046500001D9032062E62D48006A00F0020000281C
:10466000F0D1012F05D12948C06920F08050274999
:10467000C86100BFE069C8B32448406800F00C007E
:10468000082860D0E069022848D100202049086647
:10469000FFF722FB054606E0FFF71EFB401B022842
:1046A00001D903203AE61948006800F0007000289C
:1046B000F2D1206AB0F5803F07D11448406820F459
:1046C0000030A168084311494860D4E90801084353
:1046D0000E49496821F4741108430C4948600120CF
:1046E0000B490866FFF7F8FA054607E03DE0FFF7DB
:1046F000F3FA401B022801D903200FE603480068A3
:1047000000F000700028F2D02FE0000000100240FE
:1047100000004242800442420070004000201449E0
:104720000866FFF7D9FA054606E0FFF7D5FA401B01
:10473000022801D90320F1E50E48006800F000705E
:104740000028F2D111E0E069012800D1E6E509482E
:10475000466806F48031206A814204D106F4701163
:10476000606A814201D00120D8E50020D6E5000032
:10477000000042420010024010B503460022002013
:10478000024A02EB81021468A0B210BD006C004026
:1047900010B503460020034800EB810094B204608A
:1047A00010BD0000006C004070B5044600250CB937
:1047B000012070BD607C20B900202074204600F0EC
:1047C0005BF802206074204600F0A2F818B10420C3
:1047D00060740120EDE7204603F058FF18B1042073
:1047E00060740120E5E72068406820F00700216838
:1047F0004860A06828B11F48006820F001001D49EA
:1048000008601C48001F006820F46070A16808431D
:104810001849091F08606068401C08B1656809E014
:104820000120FFF70FFB05461DB90420607401202D
:10483000BFE76D1E2068806820F00F0040EA154039
:10484000216888602068C06865F30F002168C8602F
:10485000204603F038FF18B1042060740120A8E757
:104860000021E17301216173A173012060740020B4
:104870009FE70000306C004030B591B00546C82479
:104880000120214908602148006A40F001001F49C9
:10489000086204E0601E84B2052005F0D9FC2CB14A
:1048A0001A48006A00F002000028F3D0ACB90820D2
:1048B000079001200A9000200E9007A8FFF72AFD1C
:1048C000012001904002029001A8FFF755FB45F23C
:1048D000510100200CF0B2F914E0042007900120EF
:1048E0000A9000200E9007A8FFF714FD0120019008
:1048F0000002029001A8FFF73FFB45F250010020A3
:104900000CF09CF911B030BD3C0442420010024052
:1049100070B5044600250CB9012070BD20684068C0
:1049200020F0080021684860FFF7D6F9054607E047
:10493000FFF7D2F9401BB0F57A7F01D90320ECE7ED
:104940002068406800F008000028F1D00020E4E76B
:1049500010B504460CB9012010BD606A38B9606812
:10496000B0F5827F00D105E00021E16102E0002185
:1049700021616161A06AB0F5005F00D100BF94F8C9
:10498000510028B9002084F85000204600F04AF871
:10499000022084F851002068006820F0400021685F
:1049A0000860A08800F48270218901F40441084362
:1049B000A18901F400610843217C01F00201084350
:1049C000217D01F001010843218B01F400710843AE
:1049D000217F01F0380108432021095D01F08001A9
:1049E0000843218D01F40051084321680860042127
:1049F000A06901EA104021684860A06AB0F5005F34
:104A000003D1A08D80B2216808612068C06920F4BC
:104A100000602168C86100206065012084F85100B1
:104A2000002099E770472DE9FF5F044688469146CC
:104A30001D460E9E012002900020019000BF94F8B8
:104A40005000012803D1022004B0BDE8F09F0120EE
:104A500084F8500000BFFFF73FF9074694F851B0C3
:104A600060680390AA46BBF1010F0BD00398B0F524
:104A7000827F04D1A06810B9BBF1040F02D00220DC
:104A800001903DE1B8F1000F03D0B9F1000F00D063
:104A900015B90120019033E194F85100042802D0A7
:104AA000052084F8510000206065C4F83890E5873F
:104AB000A587C4F83080E586A58620646064A06A76
:104AC000B0F5005F0DD100BF2068006820F40050F1
:104AD000216808602068006840F400502168086080
:104AE00000BF2068006800F04000402805D0206822
:104AF000006840F0400021680860E068B0F5006F91
:104B000056D1606810B1BAF1010F09D1206B00884D
:104B10002168C860206B801C2063E08E401EE08608
:104B20003FE02068806800F0020002281CD1E08E7F
:104B3000D0B10298012817D1206B00882168C86085
:104B4000206B801C2063E08E401EE08600200290D7
:104B5000E08E48B9A06AB0F5005F05D12068006812
:104B600040F48050216808602068806800F00100EF
:104B700068B1E08F58B12068C068A16B0880A06B55
:104B8000801CA063E08F401EE08701200290FFF7A9
:104B9000A3F8C01BB04204D3701C10B103200190D5
:104BA000AEE0E08E0028BCD1E08F0028B9D156E0FD
:104BB000606810B1BAF1010F09D1206B007821684B
:104BC0000873206B401C2063E08E401EE08640E0AE
:104BD0002068806800F0020002281CD1E08ED0B16D
:104BE0000298012817D1206B007821680873206B88
:104BF000401C2063E08E401EE08600200290E08E84
:104C000048B9A06AB0F5005F05D12068006840F49B
:104C10008050216808602068806800F0010068B159
:104C2000E08F58B12068C068A16B0870A06B401C71
:104C3000A063E08F401EE08701200290FFF74CF850
:104C4000C01BB04201D3701C00B916B903200190FB
:104C500056E0E08E0028BBD1E08F0028B8D1A06AD2
:104C6000B0F5005F10D1334601221146204600976F
:104C700004F07CF930B1606D40F002006065032003
:104C800001903DE02068C06820688068C0F3001093
:104C9000E8B1204604F010F9012814D1606D40F00D
:104CA0000200606500BF2068006820F400502168A1
:104CB00008602068006840F400502168086000BF68
:104CC0000120019003E04FF6EF70216888603A46BA
:104CD0003146204604F0DCF820B10120019020206C
:104CE00060650DE0A06850B900BF0020009020680A
:104CF000C068009020688068009000BF00BF00BFBF
:104D0000012084F8510000BF002084F8500000BF4B
:104D1000019899E670B504460E4615461CB1A06987
:104D2000B0F5807F01D1012070BD94F8410028B911
:104D3000002084F84000204600F020F804F108012B
:104D40002068FEF771FC3146A2682068FEF7A8FCD7
:104D50002946236BD4E90102FEF744FCA1682068D0
:104D600050F8210040F00100A268216841F82200BB
:104D7000012084F841000020D6E7000010B586B07D
:104D8000044600BF1E48406940F480701C494861D9
:104D90000846406900F48070019000BF00BF00BF6A
:104DA0000846806940F0200088610846806900F06C
:104DB0002000019000BF00BF00BF0846806940F09E
:104DC000400088610846806900F04000019000BF03
:104DD00000BF4CF203700290022003900120049067
:104DE0000320059002A90748FEF7C8FD4FF6807022
:104DF000029002A90448FEF7C1FD06B010BD0000F4
:104E000000100240001401400018014070B5044633
:104E10002546681EB0F1807F01D301200FE0681E97
:104E20004FF0E02148610F214FF0FF3004F096FF72
:104E300000204FF0E021886107200861002070BD4C
:104E40007047704710B504460CB9012010BD94F8A6
:104E50003D0028B9002084F83C00204600F026F8E8
:104E6000022084F83D00211D206804F071FA012021
:104E700084F8460000BF84F83E0001213F20015520
:104E8000402001554120015500BF00BF012084F89A
:104E9000420043200155442001554520015500BFE3
:104EA000012084F83D000020D0E7000038B504461A
:104EB0000E492068884217D100BF00BF0C48C06966
:104EC00040F010000A49C8610846C06900F01000AF
:104ED000009000BF00BF00BF022200213620FEF775
:104EE00058FF3620FEF745FF38BD00000010004097
:104EF00000100240014691F83D00012801D0012038
:104F00007047022081F83D000868C06840F0010049
:104F10000B68D860164B0868984213D0154B086888
:104F200098420FD00868B0F1804F0BD0124B086840
:104F3000984207D0114B0868984203D0104B08687C
:104F400098420CD10868806800F00702062A0CD04D
:104F50000868006840F001000B68186005E0086808
:104F6000006840F001000B6818600020C8E70000EE
:104F7000002C0140003401400004004000080040C3
:104F8000000C0040014600BF0868006A41F211129F
:104F9000104050B90868006A9210104028B908689B
:104FA000006820F001000A68106000BF012081F84D
:104FB0003D0000207047704710B504462068006926
:104FC000C0F34000D8B12068C068C0F34000B0B161
:104FD0006FF0020021680861012020772068806955
:104FE00000F0030018B12046FFF7E5FF05E020467A
:104FF00000F0ADF8204600F05DF900202077206831
:105000000069C0F38000D8B12068C068C0F3800098
:10501000B0B16FF004002168086102202077206899
:10502000806900F4407018B12046FFF7C4FF05E026
:10503000204600F08CF8204600F03CF90020207754
:1050400020680069C0F3C000D8B12068C068C0F310
:10505000C000B0B16FF0080021680861042020771B
:105060002068C06900F0030018B12046FFF7A3FFD5
:1050700005E0204600F06BF8204600F01BF9002008
:10508000207720680069C0F30010D8B12068C0689C
:10509000C0F30010B0B16FF0100021680861082063
:1050A00020772068C06900F4407018B12046FFF7EF
:1050B00082FF05E0204600F04AF8204600F0FAF8AA
:1050C000002020772068006900F0010058B12068B6
:1050D000C06800F0010030B16FF001002168086184
:1050E000204600F063F920680069C0F3C01058B191
:1050F0002068C068C0F3C01030B16FF08000216834
:1051000008612046FFF79CFE20680069C0F380100C
:1051100058B12068C068C0F3801030B16FF0400013
:1051200021680861204600F05BF920680069C0F33F
:10513000401058B12068C068C0F3401030B16FF023
:105140002000216808612046FFF77BFE10BD7047F4
:1051500070B504460D46164600BF94F83C00012881
:1051600001D1022070BD012084F83C0000BF36B19F
:10517000042E1BD0082E31D00C2E5ED145E02946DE
:10518000206804F045F92068806940F00800216833
:1051900088612068806920F00400216888612068A7
:1051A0008069296908432168886147E029462068A9
:1051B00004F066F92068806940F400602168886125
:1051C0002068806920F48060216888612068806997
:1051D000296940EA0120216888612FE0294620687A
:1051E00004F08CF92068C06940F008002168C861AB
:1051F0002068C06920F004002168C8612068C06987
:10520000296908432168C86118E02946206804F02C
:10521000B1F92068C06940F400602168C861206865
:10522000C06920F480602168C8612068C06929696C
:1052300040EA01202168C86100E000BF00BF00BF54
:10524000002084F83C0000BF00BF8BE710B5044687
:105250000CB9012010BD94F83D0028B9002084F855
:105260003C00204600F025F8022084F83D00211D76
:10527000206804F06DF8012084F8460000BF84F82F
:105280003E0001213F20015540200155412001559C
:1052900000BF00BF012084F8420043200155442094
:1052A00001554520015500BF012084F83D00002034
:1052B000D0E770477047000070B504460D4615B939
:1052C00094F83E000BE0042D02D13F20005D06E083
:1052D000082D02D14020005D01E04120005D012841
:1052E00001D0012070BD1DB9022084F83E000EE0FF
:1052F000042D03D102213F20015508E0082D03D1E0
:1053000002214020015502E00221412001550122E5
:105310002946206804F06AF81F492068884203D0B3
:105320001E492068884201D1012000E0002028B1F8
:105330002068406C40F400402168486416492068A9
:10534000884213D01549206888420FD02068B0F1F8
:10535000804F0BD012492068884207D0114920683D
:10536000884203D01049206888420CD120688068A8
:1053700000F00706062E0CD02068006840F00100FF
:105380002168086005E02068006840F0010021689D
:1053900008600020A6E70000002C01400034014016
:1053A0000004004000080040000C00400168B1F11A
:1053B000804F0FD10849097861B108490968491C33
:1053C000064A116011460968142903D100211160B1
:1053D000014A117070470000C0010020BC0100208C
:1053E000704770472DE9F04704462068056820683B
:1053F000C668206847694FF00008C14605F00F08ED
:10540000B8F1000F0AD105F0200038B106F02000F5
:1054100020B1204604F002F9BDE8F087B8F1000F92
:1054200071D007F0010018B906F4907000286AD016
:1054300005F0010030B106F4807018B1E06B40F067
:105440000100E06305F0040030B107F0010018B17D
:10545000E06B40F00200E06305F0020030B107F0BD
:10546000010018B1E06B40F00400E06305F00800B3
:1054700048B106F0200010B907F0010018B1E06B48
:1054800040F00800E063E06B68B305F0200028B14D
:1054900006F0200010B1204604F0C0F820684069F2
:1054A000C0F38019E06B00F0080010B9B9F1000FEB
:1054B00022D0204604F092F82068406900F04000B5
:1054C000B0B12068406920F0400021684861606BFD
:1054D00050B11848616B4863606BFEF741F910B139
:1054E000606B416B88470CE02046FFF77AFF08E0CD
:1054F0002046FFF776FF04E02046FFF772FF00200A
:10550000E06389E7FFE705F0800030B106F0800036
:1055100018B1204604F050F97EE705F0400030B1A4
:1055200006F0400018B1204604F068F874E700BFA8
:1055300072E70000C995000810B504460CB90120B7
:1055400010BDA06900B100E000BF94F8390028B98F
:10555000002084F83800204600F028F8242084F841
:1055600039002068C06820F400502168C8602046D7
:1055700004F0A4F82068006920F4904021680861D4
:105580002068406920F02A00216848612068C068CE
:1055900040F400502168C8600020E063202084F8B7
:1055A000390084F83A000020CAE7000010B586B040
:1055B00004461F492068884237D100BF1D488069D2
:1055C00040F008001B4988610846806900F0080027
:1055D000019000BF00BF00BF0846C06940F48020B2
:1055E000C8610846C06900F48020019000BF00BF78
:1055F00008150290022003900120049003200590DA
:1056000002A90D48FEF7BAF94FF40060029000209D
:10561000039002A90848FEF7B1F92720FEF7A9FB7D
:10562000032202212720FEF7B4FB06B010BD0000C4
:105630000048004000100240000C01402DE9F84FE6
:1056400004460E46174699464FF0000A94F83A0071
:1056500020285DD106B117B90120BDE8F88F00BF41
:1056600094F83800012801D10220F6E7012084F8DF
:10567000380000BF0020E063222084F83A00FEF7E3
:105680002BFB8246A785E785A068B0F5805F04D133
:10569000206910B90025B04602E035464FF00008F9
:1056A00000BF002084F8380000BF29E053460022E4
:1056B00020212046CDF8009004F0AEF808B1032078
:1056C000CBE745B920684068C0F30800A8F800009F
:1056D00008F1020811E0A068B0F5805F03D0A0686F
:1056E00028B9206918B920684068287004E020684B
:1056F000406800F07F0028706D1CE08D401EE08542
:10570000E08D0028D2D1202084F83A000020A4E7C0
:105710000220A2E710B5034693F83A0020282FD1C3
:1057200001B10AB9012010BD00BF93F8380001286B
:1057300001D10220F7E7012083F8380000BF996209
:105740009A85DA850020D863222083F83A0000BFCA
:10575000002083F8380000BF1868C06840F48070EB
:105760001C68E0601868406940F001001C686061D6
:105770001868C06840F020001C68E0600020D2E794
:105780000220D0E710B5044613492068884222D190
:1057900012480088FF280FDB0020104908804FF4D2
:1057A00000710F48FBF7DDF94FF6FF730A220DA1D8
:1057B0000F4800F021F809E00E48017807480288F8
:1057C0000088401C054B1880054881540122094976
:1057D0000748FFF79FFF10BD004800400802002067
:1057E00000C80020CAFDBEDDD2E7B3F6000000000D
:1057F000041D00200C0200202DE9F84F04460E463F
:10580000174699464FF0000A94F8390020285AD1DB
:1058100006B117B90120BDE8F88F00BF94F8380031
:10582000012801D10220F6E7012084F8380000BFEA
:105830000020E063212084F83900FEF74DFA82460B
:10584000A784E784A068B0F5805F04D1206910B90F
:105850000025B04602E035464FF0000800BF0020AA
:1058600084F8380000BF1BE0534600228021204608
:10587000CDF8009003F0D0FF08B10320CBE745B985
:10588000B8F80000C0F308002168486008F1020879
:1058900003E02878216848606D1CE08C401EE0849D
:1058A000E08C0028E0D15346002240212046CDF86C
:1058B000009003F0B1FF08B10320ACE7202084F88A
:1058C00039000020A7E70220A5E7704770B586B031
:1058D0000A26012500BF3248806940F04000304967
:1058E00088610846806900F04000019000BF00BF59
:1058F00001200290039004900320059002A92948FA
:10590000FEF73CF84FF416500CF044FB3DE000BFAE
:10591000012211462348FEF7D9F900BF142004F0F4
:1059200097FC21A00CF00AFB142004F091FC00BFAE
:10593000002201211B48FEF7C9F900BF00240AE03C
:105940001B48008800F4004000B106E0052004F088
:105950007FFC601CC4B20A2CF2DB00BF1448008834
:1059600000F4004088B112480088C5B200201049F8
:105970000880042D09D10F4800784F2805D10D4823
:1059800040784B2801D1002504E0301EA6F101012A
:10599000CEB2BCD100BF06B90125284606B070BD05
:1059A00000100240001C014041540D0A000000009C
:1059B00024000020F003002000BFFEE77CB5054670
:1059C000EF208DF8000001208DF801001A480068D2
:1059D000000E8DF8020018480068000C8DF80300D6
:1059E00015480088000A8DF80400134800788DF8E7
:1059F000050007208DF8060000208DF807000F49EC
:105A0000088012E0012004F023FC0C48008800F418
:105A1000004050B100200949088069460848FAF75B
:105A200051FF04460CB120467CBD681E80B2051EA5
:105A3000E8D100BFF8E70000F0000020EE000020F1
:105A40009019002008B54FF6FF706E23B422502144
:105A500000903C2007F052FE00206E23B42250211B
:105A600000903C2005F00AFA00206E235A225021B3
:105A70000090104605F09BF900206E2378225021FB
:105A80000090104605F093F900206E2396225021D5
:105A90000090104605F08BF908BD00001CB50446C7
:105AA00084F0010220212A48FEF710F9012C37D199
:105AB00000BF012211022748FEF708F900BF26485F
:105AC00003F006FB4FF6FF708C23F022502100906C
:105AD000002007F013FE4FF6FF708C23F0226421A4
