:020000040800F2
:1000000030080020DD010008231A00081B1A000830
:100010001F1A0008390500084925000800000000E3
:100020000000000000000000000000009F21000808
:100030003D05000800000000F11D0008A121000896
:10004000F7010008F7010008F7010008F7010008B0
:10005000F7010008F7010008F7010008F7010008A0
:10006000F7010008F7010008F7010008F701000890
:10007000F7010008F7010008F7010008F701000880
:10008000F7010008F7010008F7010008F701000870
:10009000F7010008F7010008F7010008AD050008A6
:1000A000F7010008F7010008F7010008F701000850
:1000B000F7010008F7010008F7010008F701000840
:1000C000F7010008F7010008F7010008F701000830
:1000D000F701000839250008F7010008F7010008BA
:1000E000F7010008F7010008F7010008F701000810
:1000F000F7010008F7010008F7010008F701000800
:10010000F7010008F7010008AD210008F701000819
:10011000F7010008F7010008F7010008F7010008DF
:10012000F7010008F7010008F7010008F7010008CF
:1001300000F002F800F042F80AA090E8000C8244B7
:100140008344AAF10107DA4501D100F037F8AFF294
:10015000090EBAE80F0013F0010F18BFFB1A43F0A5
:10016000010318471C9400003C940000103A24BF7F
:1001700078C878C1FAD8520724BF30C830C144BF0C
:1001800004680C607047000000230024002500264E
:10019000103A28BF78C1FBD8520728BF30C148BFEA
:1001A0000B607047642900F07B80782900F0B480F0
:1001B000002070471FB51FBD10B510BD00F08AF9B3
:1001C0001146FFF7F7FF05F055FE00F0A8F903B45C
:1001D000FFF7F2FF03BC02F0D5F9000009488047A1
:1001E00009480047FEE7FEE7FEE7FEE7FEE7FEE719
:1001F000FEE7FEE7FEE7FEE704480549054A064B31
:1002000070470000A92100083101000830020020D9
:100210003008002030040020300400207047000027
:100220000FB4044910B503AA029800F025F910BCD8
:100230005DF814FB080000202DE9F0410E4604464D
:10024000002020622046E168884730B3252805D089
:10025000D4E901219047206A401CF2E7E16820467A
:1002600000278847050018D0A5F14100192802D8B9
:1002700020354FF400673246294620462760FFF7B5
:1002800091FF40B1012804D0F61D26F0070608367C
:10029000D8E7361DD6E72846DAE7206ABDE8F081C0
:1002A0002DE9F0410646002410687529314616A54F
:1002B00010D0AFF30080002802DA404213A507E017
:1002C00031688A0701D512A502E0490704D511A5B6
:1002D000012401E0AFF3008000210A2206F1240787
:1002E00009E0B0FBF2FCB0FBF2F302FB1C00303083
:1002F00078541846491C0028F3D123462A46304634
:10030000BDE8F04100F05FB8000000002D000000E3
:100310002B0000002000000070B504460D46214669
:100320001068AFF300802188090502D50F4A7A448E
:1003300002E00E4A7A440E32002104F1240305E063
:1003400000F00F060009965D5E54491C0028F7D1A5
:1003500020780023000704D5702D02D009B10223B4
:1003600011322046BDE8704000F02DB82692000002
:100370004FF0000200B5134694469646203922BF3E
:10038000A0E80C50A0E80C50B1F12001BFF4F7AF89
:10039000090728BFA0E80C5048BF0CC05DF804EB6B
:1003A000890028BF40F8042B08BF704748BF20F8D9
:1003B000022B11F0804F18BF00F8012B70477047D7
:1003C0007047704770472DE9F0470D4699469246B1
:1003D000044600F124080168880604D5E06921F08C
:1003E0001001216000E00120A84201DD471B00E070
:1003F0000027A1697A1902EB0900081AA061207888
:10040000C00602D42046AFF30080002608E0D4E9FD
:1004100001211AF806009047206A401C761C2062D1
:100420004E45F4DB2078C0060AD52046AFF30080A5
:1004300006E0D4E9012130209047206A401C206268
:10044000381EA7F10107F4DC07E0D4E9012118F810
:1004500005009047206A401C2062281EA5F1010576
:10046000F3DC2046AFF300802078000602D502209E
:10047000BDE8F0870120FBE7074B70B50D467B44D4
:1004800000F011F80446284600F020F810B14FF0B3
:10049000FF3070BD204670BD4F23000001694A1C2B
:1004A00002610878704700B58FB0CDE901310021B5
:1004B000059105497944CDE9031011466846FFF7D7
:1004C000BBFE0FB000BD0000E5FFFFFF007B00F0AA
:1004D00080007047754600F02BF8AE46050069466F
:1004E000534620F00700854618B020B5FFF784FE7C
:1004F000BDE820404FF000064FF000074FF0000825
:100500004FF0000B21F00701AC46ACE8C009ACE8A5
:10051000C009ACE8C009ACE8C0098D46704710B509
:100520000446AFF300802046BDE81040FFF74FBE01
:1005300000487047D001002000BFFEE77047000070
:1005400000B587B0002003900490059006900190BC
:10055000029000BF1248806940F004001049886191
:100560000846806900F00400009000BF00BF8815B5
:1005700003900C4804900020059003A90A4800F05D
:10058000A3F900221146172000F0B3FB172000F05A
:10059000A0FB4FF4807000F089F907B000BD0000A7
:1005A00000100240000011100008014010B54FF487
:1005B000807000F07BF910BD70B50446B3F5804F34
:1005C00013D1D1E9000540EA05108D6840EA052005
:1005D0008D6928438D8940EA054054F82250064E23
:1005E0003540284344F8220003E06FF0704044F89F
:1005F0002200002070BD00000000F0CF70B5024660
:10060000086852F8200020F001000E6842F8260029
:100610008868082801D1402300E000234868184377
:100620008E683043CE6830430E6930434E693043A4
:10063000CE6930430E6A30434E6A30438E6A30438F
:10064000CE6A30430E6B40EA060488690443486B67
:100650000443074D45F4806545F4E025086852F8E9
:100660002000A84320430E6842F82600002070BDF9
:100670007FFB080010B50346D1E9000440EA0410EE
:100680008C6840EA04208C8940EA0444088A401EB1
:1006900044EA0054087D801E44EA00608C692043CF
:1006A000541C53F8244004F040442043541C43F8A5
:1006B0002400002010BD000070B50446002594F809
:1006C0002100022803D00420A0630125C1E0206896
:1006D000006820F00E00216808602068006820F0A3
:1006E0000100216808605C492068884252D95A4953
:1006F00078392068884201D1012047E056496439A1
:100700002068884201D1102040E0534950392068C8
:10071000884201D1801539E04F493C392068884230
:1007200001D1801432E04C4928392068884202D136
:100730004FF480302AE0484914392068884202D1B9
:100740004FF4801022E044492068884201D14004DF
:100750001CE042492068884201D1012016E03F494F
:1007600014312068884201D110200FE03B49283124
:100770002068884201D1801508E038493C31206862
:10078000884201D1801401E04FF480303349091FC1
:10079000086051E0304978392068884201D1012051
:1007A00047E02D4964392068884201D1102040E09B
:1007B000294950392068884201D1801539E02649FD
:1007C0003C392068884201D1801432E0224928391E
:1007D0002068884202D14FF480302AE01E49143943
:1007E0002068884202D14FF4801022E01A49206824
:1007F000884201D140041CE018492068884201D198
:10080000012016E0154914312068884201D11020DA
:100810000FE0124928312068884201D1801508E094
:100820000E493C312068884201D1801401E04FF428
:100830008030094980394860012084F8210000BFD8
:10084000002084F8200000BF606B10B12046616B6F
:100850008847284670BD000080000240080402401E
:1008600010B50446B4F5807F19D100BF00224021A5
:100870000B4800F0DBF900BF00BF0122402108480F
:1008800000F0D4F900BF00BF01220821054800F0A4
:10089000CDF900BF04480078401C0349087010BD22
:1008A00000140140000C01402400002010B5044653
:1008B00004480068204020B1024804602046FFF749
:1008C000CFFF10BD140401402DE9F8470246002374
:1008D0009C467BE14FF0010808FA03F4D1F8008050
:1008E00008EA0400A0427DD1DFF8F4A2D1F8048028
:1008F000A8EB0A09D0453AD014DCB8F1030F50D068
:1009000009DCB8F1000F31D0B8F1010F1CD0B8F1FB
:10091000020F49D120E0B8F1110F18D0B8F1120F31
:1009200042D11EE0B9F5881F25D006DCB9F5803F1D
:1009300020D0B9F5801F37D11AE0B9F5001F18D0C3
:10094000B9F5041F30D117E0D1F80CC02DE0D1F873
:100950000C8008F1040C28E0D1F80C8008F1080C98
:1009600023E0D1F80C8008F10C0C1EE000BF00BFA2
:1009700000BF00BF00BF00BFD1F80880B8F1000F72
:1009800002D14FF0040C0BE0D1F80880B8F1010F50
:1009900003D14FF0080C146102E04FF0080C5461D1
:1009A00003E04FF0000C00E000BF00BFFF2801D8BB
:1009B000904601E002F104084646FF2802D84FEABB
:1009C000830803E0A3F108084FEA88084746D6F8F1
:1009D00000804FF00F0909FA07F928EA09080CFA14
:1009E00007F900E07AE048EA0908C6F80080D1F883
:1009F000048008F08058B8F1805F6FD100BFDFF845
:100A0000E481D8F8188048F00108DFF8D891C9F8D7
:100A10001880C846D8F8188008F00108CDF8008082
:100A200000BF00BF4FEAB9384FEA930958F8295080
:100A30004FEA83784FEA18794FF00F0808FA09F85F
:100A400025EA0805DFF8A081424502D14FF00008F1
:100A500024E0DFF89881424502D14FF001081DE003
:100A6000DFF88C81424502D14FF0020816E0DFF832
:100A70008481424502D14FF003080FE0DFF878810E
:100A8000424502D14FF0040808E0DFF8708142458A
:100A900002D14FF0050801E04FF006084FEA8379D4
:100AA0004FEA197908FA09F848EA0505DFF8508194
:100AB0004FEA930948F82950D1F8048008F48038A7
:100AC000B8F5803F0BD1DFF83C81D8F8008048EAC8
:100AD0000008DFF83091C9F800800AE075E0DFF81F
:100AE0002481D8F8008028EA0008DFF81891C9F8B6
:100AF0000080D1F8048008F40038B8F5003F0ED12A
:100B0000DFF8008108F10408D8F8008048EA0008FE
:100B1000DFF8F09009F10409C9F800800DE0DFF872
:100B2000E48008F10408D8F8008028EA0008DFF81B
:100B3000D49009F10409C9F80080D1F8048008F4C0
:100B40008018B8F5801F0ED1DFF8B88008F10808CA
:100B5000D8F8008048EA0008DFF8A89009F10809F1
:100B6000C9F800800DE0DFF89C8008F10808D8F88B
:100B7000008028EA0008DFF88C9009F10809C9F81C
:100B80000080D1F8048008F40018B8F5001F0ED1D9
:100B9000DFF8708008F10C08D8F8008048EA0008F7
:100BA000DFF8609009F10C09C9F800800DE0DFF86A
:100BB000548008F10C08D8F8008028EA0008DFF813
:100BC000449009F10C09C9F800805B1CD1F8008041
:100BD00028FA03F8B8F1000F7FF47CAEBDE8F8877F
:100BE000000011100010024000080140000C0140FC
:100BF000001001400014014000180140001C014099
:100C00000800014000040140024693680B400BB10C
:100C1000012000E00020704710B5C26821EA0203FD
:100C200002EA010443EA0443036110BD0AB1016111
:100C300001E00B0403617047014800687047000041
:100C4000100000200348006803490978084401495E
:100C500008607047100000201800002010B50848F8
:100C6000006840F0100006490860052000F080F898
:100C70000F2000F007F800F02BF8002010BD000056
:100C80000020024070B504460E4800784FF47A7197
:100C9000B1FBF0F00C490968B1FBF0F5284600F013
:100CA0005FFC08B1012070BD102C07D20022214644
:100CB000501E00F01EF80548046001E00120F2E734
:100CC0000020F0E7180000200000002014000020A1
:100CD000704701460846002809DB00F01F03012287
:100CE0009A4043099B0003F1E023C3F8002100BFB1
:100CF00070472DE9F05F80460D461646002701F04B
:100D000025FC074639462A46334601F00700C0F164
:100D1000070ABAF1040F02D94FF0040A01E0C0F14A
:100D2000070AD14600F1040ABAF1070F02D24FF0C8
:100D3000000A01E0A0F1030AD4464FF0010A0AFAC2
:100D400009FAAAF1010A0AEA020A0AFA0CFA4FF0B1
:100D5000010B0BFA0CFBABF1010B0BEA030B4AEA9C
:100D60000B042146404601F0F9FBBDE8F09F00006E
:100D700000BF00F00702064B19684FF6FF03194049
:100D8000044B0B4343EA0221014B196000BF70473B
:100D90000CED00E00000FA0570B504460D460CB9F4
:100DA000012070BD5A48006800F00700A8420ED22A
:100DB0005748006820F00700284355490860084656
:100DC000006800F00700A84201D00120E9E7207880
:100DD00000F0020002281DD1207800F00400042851
:100DE00005D14C48406840F4E0604A4948602078AA
:100DF00000F00800082805D14648406840F46050DB
:100E0000444948604348406820F0F000A168084326
:100E100040494860207800F0010078B360680128FC
:100E200006D13C48006800F4003090B90120B8E7D2
:100E30006068022806D13748006800F0007040B9A9
:100E40000120AEE73348006800F0020008B9012035
:100E5000A7E73048406820F00300616808432D4947
:100E60004860FFF7E9FE064609E0FFF7E5FE801B54
:100E700041F28831884202D9032092E707E02548F1
:100E8000406800F00C006168B0EB810FEDD12048A4
:100E9000006800F00700A8420ED91D48006820F045
:100EA000070028431A4908600846006800F0070058
:100EB000A84201D0012074E7207800F00400042843
:100EC00007D11448406820F4E060E1680843114904
:100ED0004860207800F00800082808D10D484068D4
:100EE00020F46050216940EAC1000A49486000F0DE
:100EF0003FF808494968C1F30311074A515CC840EB
:100F00000649086006480068FFF7BCFE002048E775
:100F10000020024000100240706400080000002021
:100F20001400002001480068704700000000002005
:100F300000B5FFF7F7FF04494968C1F30221034AEE
:100F4000515CC84000BD00000010024080640008F1
:100F500000B5FFF7E7FF04494968C1F3C221034A1E
:100F6000515CC84000BD00000010024080640008D1
:100F7000F0B585B00FF26C0C9CE8E01001A8A0E879
:100F8000E0101CA52D6800950021002200230024FC
:100F90000020194D696801F00C05F5B1042D02D04F
:100FA000082D19D101E0154819E001ADC1F38346C0
:100FB000AC5D01F4803555B10F4D6D68C5F340450A
:100FC0001DF805200D4D6543B5FBF2F302E00C4D15
:100FD00004FB05F3184602E000BF084800BF00BF4D
:100FE00005B0F0BD02030405060708090A0B0C0D45
:100FF0000E0F1010010200000010024000127A00D3
:1010000000093D00F8B504460CB90120F8BD207870
:1010100000F00100002878D0F848406800F00C008B
:1010200004280CD0F548406800F00C00082811D1C5
:10103000F248406800F48030B0F5803F0AD1EF48B4
:10104000006800F4003000285FD0606800285CD1A0
:101050000120DBE700BF6068B0F5803F06D1E748BC
:10106000006840F48030E549086028E0606858B9BD
:10107000E248006820F48030E049086008460068D3
:1010800020F4802008601AE06068B0F5A02F0BD132
:10109000DA48006840F48020D849086008460068B3
:1010A00040F4803008600AE0D448006820F48030C2
:1010B000D24908600846006820F48020086000BF1C
:1010C000606888B1FFF7B8FD054606E0FFF7B4FD9C
:1010D000401B642801D9032098E7C848006800F441
:1010E00000300028F2D010E0FFF7A6FD054606E02C
:1010F000FFF7A2FD401B642801D9032086E7BF4803
:10110000006800F400300028F2D1207800F00200DE
:10111000022857D1B948406800F00C0050B1B748D8
:10112000406800F00C00082818D1B448406800F46A
:10113000803098B9B148006800F0020020B1206901
:10114000012801D0012061E7AC48006820F0F800D8
:10115000616940EAC100A949086033E02069E8B14B
:101160000120A7490860FFF767FD054606E0FFF785
:1011700063FD401B022801D9032047E79F48006810
:1011800000F002000028F2D09C48006820F0F8002F
:10119000616940EAC1009949086013E0002098495C
:1011A0000860FFF749FD054606E0FFF745FD401BD7
:1011B000022801D9032029E79048006800F00200C6
:1011C0000028F2D1207800F0080008282DD1A0696D
:1011D000B8B101208B490860FFF72EFD054606E0F7
:1011E000FFF72AFD401B022801D903200EE78348A0
:1011F000406A00F002000028F2D0012000F0FAFD61
:1012000013E000207F490860FFF716FD054606E061
:10121000FFF712FD401B022801D90320F6E67748AC
:10122000406A00F002000028F2D1207800F00400AB
:10123000042873D100277148C06900F0805070B94C
:1012400000BF6E48C06940F080506C49C8610846D4
:10125000C06900F08050009000BF00BF01276A48BD
:10126000006800F48070B0B96748006840F480708E
:1012700065490860FFF7E0FC054606E0FFF7DCFC87
:10128000401B642801D90320C0E65F48006800F4D1
:1012900080700028F2D000BFE068012806D15748CE
:1012A000006A40F001005549086227E0E06858B93B
:1012B0005248006A20F00100504908620846006A5E
:1012C00020F00400086219E0E06805280BD14B48C3
:1012D000006A40F00400494908620846006A40F08C
:1012E000010008620AE04548006A20F00100434915
:1012F00008620846006A20F00400086200BFE06847
:10130000A0B1FFF799FC054609E0FFF795FC401BEB
:1013100041F28831884202D9032077E622E037483B
:10132000006A00F002000028EFD012E0FFF784FC12
:10133000054608E0FFF780FC401B41F288318842F7
:1013400001D9032062E62D48006A00F0020000285F
:10135000F0D1012F05D12948C06920F080502749DC
:10136000C86100BFE069C8B32448406800F00C00C1
:10137000082860D0E069022848D10020204908668A
:10138000FFF75AFC054606E0FFF756FC401B022813
:1013900001D903203AE61948006800F000700028DF
:1013A000F2D1206AB0F5803F07D11448406820F49C
:1013B0000030A168084311494860D4E90801084396
:1013C0000E49496821F4741108430C494860012012
:1013D0000B490866FFF730FC054607E03DE0FFF7E4
:1013E0002BFC401B022801D903200FE603480068AC
:1013F00000F000700028F2D02FE000000010024042
:101400000000424280044242007000400020144923
:101410000866FFF711FC054606E0FFF70DFC401BD0
:10142000022801D90320F1E50E48006800F00070A1
:101430000028F2D111E0E069012800D1E6E5094871
:10144000466806F48031206A814204D106F47011A6
:10145000606A814201D00120D8E50020D6E5000075
:10146000000042420010024070B504460E46154688
:101470001CB1A069B0F5807F01D1012070BD94F846
:10148000410028B9002084F84000204600F020F8F0
:1014900004F108012068FFF7B1F83146A26820681E
:1014A000FFF7E8F82946236BD4E90102FFF784F837
:1014B000A168206850F8210040F00100A26821686E
:1014C00041F82200012084F841000020D6E7000006
:1014D00010B586B0044600BF1E48406940F48070D5
:1014E0001C4948610846406900F48070019000BFC3
:1014F00000BF00BF0846806940F0200088610846B0
:10150000806900F02000019000BF00BF00BF0846C6
:10151000806940F0400088610846806900F0400022
:10152000019000BF00BF4CF20370029002200390B4
:10153000012004900320059002A90748FFF7C4F991
:101540004FF68070029002A90448FFF7BDF906B07B
:1015500010BD0000001002400014014000180140BE
:1015600070B504462546681EB0F1807F01D3012086
:101570000FE0681E4FF0E02148610F214FF0FF306F
:1015800000F0ECFF00204FF0E021886107200861A7
:10159000002070BD10B504460CB9012010BD94F8B0
:1015A0003D0028B9002084F83C00204600F025F8D2
:1015B000022084F83D00211D206800F047FE012034
:1015C00084F8460000BF84F83E0001213F20015509
:1015D000402001554120015500BF00BF012084F883
:1015E000420043200155442001554520015500BFCC
:1015F000012084F83D000020D0E77047014691F8B3
:101600003D00012801D001207047022081F83D00F3
:101610000868C06840F001000B68D860164B086885
:10162000984213D0154B086898420FD00868B0F163
:10163000804F0BD0124B0868984207D0114B0868B6
:10164000984203D0104B086898420CD10868806813
:1016500000F00702062A0CD00868006840F001007C
:101660000B68186005E00868006840F001000B682E
:1016700018600020C8E70000002C01400034014041
:101680000004004000080040000C004070470000CB
:101690002DE9F0470446206805682068C668206880
:1016A00047694FF00008C14605F00F08B8F1000F78
:1016B0000AD105F0200038B106F0200020B1204604
:1016C00000F03CFEBDE8F087B8F1000F71D007F0E4
:1016D000010018B906F4907000286AD005F00100E6
:1016E00030B106F4807018B1E06B40F00100E063A7
:1016F00005F0040030B107F0010018B1E06B40F0D4
:101700000200E06305F0020030B107F0010018B1FB
:10171000E06B40F00400E06305F0080048B106F01B
:10172000200010B907F0010018B1E06B40F008008C
:10173000E063E06B68B305F0200028B106F02000FC
:1017400010B1204600F0FAFD20684069C0F380190E
:10175000E06B00F0080010B9B9F1000F22D020466C
:1017600000F0CCFD2068406900F04000B0B1206876
:10177000406920F0400021684861606B50B1184812
:10178000616B4863606BFEF797FF10B1606B416B54
:1017900088470CE02046FFF779FF08E02046FFF776
:1017A00075FF04E02046FFF771FF0020E06389E742
:1017B000FFE705F0800030B106F0800018B1204648
:1017C00000F08AFE7EE705F0400030B106F04000F0
:1017D00018B1204600F0A2FD74E700BF72E70000D8
:1017E000E922000810B504460CB9012010BDA0691B
:1017F00000B100E000BF94F8390028B9002084F857
:101800003800204600F028F8242084F839002068A9
:10181000C06820F400502168C860204600F0DEFD5A
:101820002068006920F490402168086120684069C0
:1018300020F02A00216848612068C06840F4005008
:101840002168C8600020E063202084F8390084F813
:101850003A000020CAE7000010B586B004462849C7
:10186000206888424AD100BF00BF2648806940F006
:101870000400244988610846806900F00400019052
:1018800000BF00BF00BF00BF00BF0846806940F036
:10189000040088610846806900F00400019000BFE0
:1018A00000BF00BF00BF00BF0846806940F4804011
:1018B00088610846806900F48040019000BF00BF45
:1018C00000BF4815029002200390012004900320DD
:1018D000059002A90C48FEF7F7FF4FF480600290D4
:1018E0000020039002A90848FEF7EEFF2520FFF72D
:1018F000F0F9032211462520FFF7FBF906B010BDD1
:1019000000380140001002400008014010B50346B5
:1019100093F83A0020282FD101B10AB9012010BD57
:1019200000BF93F83800012801D10220F7E7012019
:1019300083F8380000BF99629A85DA850020D86361
:10194000222083F83A0000BF002083F8380000BF4F
:101950001868C06840F480701C68E06018684069CE
:1019600040F001001C6860611868C06840F0200009
:101970001C68E0600020D2E70220D0E710B50446E2
:101980002049206888423BD11F48008800F400406D
:1019900088BB1D48008800F4804070B11B48007867
:1019A0000A2803D000201849088024E0164800883F
:1019B00040F40040144908801DE0144800780D28C8
:1019C00006D11148008840F480400F49088012E099
:1019D0000E4800780C490988C1F30D010C4A505497
:1019E00009480088401C0849088008460088C72824
:1019F00001DD00200880012204490648FFF786FF28
:101A000010BD0000003801400C0000200E00002036
:101A100028000020F0000020704700BFFEE700BF54
:101A2000FEE770472DE9F0410446802522265E2717
:101A300034B1012C08D0032C0AD0042C10D10BE0B7
:101A4000402511262F270BE066251B264B2707E094
:101A500099252826712703E0C02533268D2700BF4E
:101A600000BF29464F2000F07BFB2946502000F0A4
:101A700077FB0021512000F073FB3146522000F02B
:101A80006FFB3946532000F06BFB2946542000F0D1
:101A900067FB9E21582000F063FBBDE8F08170B524
:101AA0000446402534B1012C06D0032C06D0042C6A
:101AB00008D105E0302505E0382503E0502501E098
:101AC000602500BF00BF2946562000F049FB70BDCD
:101AD00030B585B0002500BF6948806940F004003A
:101AE000674988610846806900F00400009000BFE3
:101AF00000BF00BF0846806940F0080088610846C2
:101B0000806900F00800009000BF00BF00BF0846D9
:101B1000806940F0100088610846806900F010007C
:101B2000009000BF00BF00BF0846806940F0200061
:101B300088610846806900F02000009000BF00BF67
:101B400000BF0846806940F480708861084680695B
:101B500000F48070009000BF00BF00BF084680699D
:101B600040F0010088610846806900F001000090A3
:101B700000BF00BF88150190002002900120039053
:101B80000320049001A93F48FEF79EFE01221102A6
:101B90003C48FFF74BF81820019001200290039079
:101BA0000320049001A93848FEF78EFE0122182177
:101BB0003548FFF73BF8FF2001900020029003908A
:101BC0000320049001A93148FEF77EFE40200190D9
:101BD00001200390032004900120029001A92C48C9
:101BE000FEF772FE012240212948FFF71FF84FF44B
:101BF000404001900120029003900320049001A92D
:101C00002448FEF761FE01224FF440412148FFF7CE
:101C10000DF800BF2049486820F0E06040F00070F7
:101C2000486000BF00F0FAF88021122000F098FA16
:101C300010B1012005B030BD322000F09BFD0B201B
:101C400000F0A6F90446732C01D00220F2E70A2026
:101C500000F09EF90446762C01D00220EAE7002528
:101C60000AE00E4A02EB450251780C4A12F81500C0
:101C700000F076FA681C85B2A82DF2D30020D9E7CF
:101C80000010024000080140000C0140001001401B
:101C900000140140002001400000014008940008A9
:101CA0002DE9F0410446E72500260027012C06D047
:101CB000022C08D0032C0AD0042C10D10BE0E5250F
:101CC000EA265C270BE0E5255826602707E0E52596
:101CD00084264C2703E0E5259626402700BF00BF59
:101CE0002946132000F03CFA3146012000F038FA72
:101CF0003946022000F034FABDE8F0812DE9F041C8
:101D000004460425C0268027072C1DD2DFE804F0F6
:101D10001C04080C1014180024258026802713E0CA
:101D20001425802680270FE01425C02680270BE08D
:101D300014254026402707E014258026C02703E00D
:101D40001425A026402700BF00BF29463A2000F0F6
:101D500007FA3146682000F003FA3946672000F0A0
:101D6000FFF9BDE8F0812DE9F04705460E469046A3
:101D7000994605EB48001FFA80FA06EB490087B246
:101D8000B7F5447F02DDA7F5447087B2032000F069
:101D9000FFF8044604F0F0040AF00301284661F35A
:101DA0009F0004432146032000F0DAF9C5F38701C0
:101DB000192000F0D5F9CAF387011A2000F0D0F9F4
:101DC000322000F0E5F8044604F0C00407F00701F3
:101DD000304661F3DF000443C6F3C701172000F06B
:101DE000BFF9C7F3C701182000F0BAF9BDE8F087C2
:101DF0007047000008B508490968C9084FF47A72AD
:101E0000B1FBF2F14143009100BF00BF00994A1EAF
:101E100000920029F9D108BD0000002000B585B06E
:101E200000BF1E48806940F010001C4988610846C8
:101E3000806900F01000009000BF00BF00BF08469E
:101E4000806940F4807088610846806900F4807081
:101E5000009000BF00BF4FF400500190002002909E
:101E6000012003900320049001A90D48FEF72CFDEA
:101E70000820019001200290039001A90948FEF773
:101E800023FD0748406820F4700005494860084673
:101E9000406840F44010486005B000BD00100240AA
:101EA000002001400014014010B5322000F06CFC0D
:101EB00000BF012251031348FEF7B8FE00BF3220D5
:101EC00000F062FC00BF012208210F48FEF7AEFEC1
:101ED00000BF322000F058FC00BF002208210A4851
:101EE000FEF7A4FE00BF322000F04EFC00BF00222F
:101EF0004FF400510348FEF799FE00BF322000F076
:101F000043FC10BD002001400014014070B50024C6
:101F10001D48406820F470001B494860084640682E
:101F200040F40000486008251FE0322000F02CFC3F
:101F300000BF012208211548FEF778FE00BF6006A9
:101F4000040E4FF400511048FEF75EFE08B1601C0D
:101F5000C4B2322000F018FC00BF002208210B4858
:101F6000FEF764FE00BF681EC5B2002DDDDC06482A
:101F7000406820F47000044948600846406840F416
:101F800040104860204670BD002001400014014010
:101F900070B50446002500F023F8422000F070F8E8
:101FA000642000F0F1FB204600F06AF8642000F0A5
:101FB000EBFB00F03FF8642000F0E6FB00F010F8C7
:101FC000432000F05DF8642000F0DEFBFFF79EFF89
:101FD0000546FFF769FF00F02DF8284670BD0000A8
:101FE00010B500BF012208211048FEF71FFE00BFF8
:101FF00000BF012251030E48FEF718FE00BF322039
:1020000000F0C2FB00BF00224FF400510848FEF769
:102010000DFE00BF322000F0B7FB00BF00220821F8
:102020000248FEF703FE00BF10BD0000001401408F
:102030000020014010B500BF00224FF400510E48AF
:10204000FEF7F4FD00BF322000F09EFB00BF01222E
:1020500008210A48FEF7EAFD00BF322000F094FB99
:1020600000BF012251030448FEF7E0FD00BF32200B
:1020700000F08AFB10BD0000002001400014014068
:1020800070B50446002629E004F0800030B100BF9E
:10209000012251033048FEF7C9FD07E000BF0022CE
:1020A0004FF400512C48FEF7C1FD00BF6006040E3E
:1020B000322000F069FB00BF012208212748FEF70B
:1020C000B5FD00BF322000F05FFB00BF00220821F9
:1020D0002248FEF7ABFD00BF701CC6B2082ED3DB52
:1020E0001D48406820F470001B494860084640685D
:1020F00040F40000486000BF012249141648FEF772
:1021000095FD00BF322000F03FFB00BF01220821F7
:102110001248FEF78BFD00BF322000F035FB4FF474
:1021200000510D48FEF770FD08B1012500E00025C3
:1021300000BF002208210948FEF778FD00BF0648CD
:10214000406820F47000044948600846406840F444
:1021500040104860284670BD002001400014014036
:1021600070B505460C460026FFF73AFF4220FFF700
:1021700087FF00B10126642000F006FB2846FFF728
:102180007FFF00B10126642000F0FEFA2046FFF731
:1021900077FF00B10126FFF74DFF304670BD704755
:1021A00010B5FEF74FFD10BD7047000010B50A488E
:1021B0000068006900F0010060B16FF0010006499D
:1021C000096808610548017805A0FEF729F8002094
:1021D0000249087010BD0000880100202500002081
:1021E0006672616D653A25646670730D0A000000C1
:1021F00038B505460C4600BF1148C06940F00800DC
:102200000F49C8610846C06900F00800009000BF8F
:1022100000BF0C480C4908600846C56044600021B6
:1022200001618160FFF7B6F90748FFF7E7F903227C
:1022300001213220FEF75DFD3220FEF74AFD38BD58
:1022400000100240000C00408801002010B5026818
:10225000204B98420ED0204B98420BD0B0F1804FCB
:1022600008D01E4B984205D01D4B984202D01D4B02
:10227000984203D122F070024B681A43154B9842E2
:102280000ED0154B98420BD0B0F1804F08D0134BB5
:10229000984205D0124B984202D0124B984203D17B
:1022A00022F44072CB681A4322F080034C6943EA5F
:1022B000040202608B68C3620B688362054B98421C
:1022C00002D0054B984201D10B690363012343619E
:1022D00010BD0000002C014000340140000400400B
:1022E00000080040000C004070B505466C6A0020F4
:1022F000E085E0842046FFF7C9F970BD0168C96830
:1023000021F490710268D1600168496921F00101EE
:1023100002685161202180F83A10704710B50446D8
:102320002068C06820F040002168C860202084F840
:1023300039002046FFF770FB002010BD70B5044641
:1023400094F83A00222847D1A068B0F5805F0CD1FC
:10235000206950B90025A66A20684068C0F30800CB
:102360003080A06A801CA06215E0A56A0026A068E3
:10237000B0F5805F03D0A06828B9206918B920683B
:102380004068287004E02068406800F07F002870F2
:10239000A06A401CA062E08D401E80B2E085C8B9F2
:1023A0002068C06820F020002168C8602068C068EC
:1023B00020F480702168C8602068406920F0010026
:1023C00021684861202084F83A002046FFF7D6FAB9
:1023D000002070BD0020FCE70220FAE770B504463B
:1023E0002168096921F44051E268114322681161B2
:1023F0002269A1681143626941EA02052168C9683E
:1024000041F20C62914329432268D16021684969F5
:1024100021F44071A2691143226851612D4A21685B
:10242000914202D1FEF794FD01E0FEF781FD00EB41
:10243000C00101EB001162689200B1FBF2F100EB08
:10244000C00202EB001263689B00B2FBF3F264234C
:10245000B2FBF3F202EBC20303EB0212A1EB820127
:10246000322202EB01116422B1FBF2F101F0F00122
:1024700000EBC00202EB001263689B00B2FBF3F2B8
:102480006423B2FBF3F201EB021200EBC00101EB9B
:10249000001163689B00B1FBF3F100EBC00303EB99
:1024A00000136668B600B3FBF6F36426B3FBF6F3DD
:1024B00003EBC30606EB0313A1EB8301322303EB0B
:1024C00001116423B1FBF3F101F00F011144226803
:1024D000916070BD00380140014691F83900212813
:1024E00028D18868B0F5805F0BD1086948B90A6ABD
:1024F0001088C0F308000B685860086A801C0862E6
:1025000005E00B6A581C086218780B685860C88C84
:10251000401E80B2C88458B90868C06820F08000A6
:102520000B68D8600868C06840F040000B68D8604D
:10253000002070470220FCE710B50248FFF7A8F81A
:1025400010BD0000F000002000BFFEE70248006858
:10255000C0F30220704700000CED00E010B5002829
:1025600004DB0A07130E054A135406E00A07140E8B
:10257000034A00F00F031B1FD45410BD00E400E019
:1025800018ED00E000BF70472DE91C4F4FF0000927
:10259000CA46CB466E48007800287DD0042003F060
:1025A00091F86C48808841F66311884216D1694AD7
:1025B0005288A2F5A072019202EBD272C2F34F01CF
:1025C000644A1288F03A009202EBD272C2F34F00D2
:1025D0004FF4A073F02203F023FA21E05D488088D5
:1025E00045F21051884205D05A48808845F2103192
:1025F000884215D1574A5288F03A019202EBD272C2
:10260000C2F34F01534A1288A2F5A072009202EB66
:10261000D272C2F34F00F0234FF4A07203F000FA1D
:1026200003F0CEFB00BF00224FF480414A48FEF782
:10263000FDFA00BF102049490860091F0860091D04
:10264000086000BF012281024348FEF7EFFA00BF95
:1026500010204249091F086000246EE010203F4905
:1026600008603F48806800F0FF081020091F0860DC
:102670004FF6FF7000EA08281020091D086038484E
:102680008068C0B240EA08081020091F0860A81B33
:102690001B2808DDE81B00E057E01B2803DD4FF492
:1026A000784030490880701B25281FDDF01B252845
:1026B0001CDD4FF4FC602B4908804FF4A070B4FB84
:1026C000F0F08144601C4FF4A071B0FBF1F201FB0B
:1026D000120008B9002006E0601C4FF4A071B0FBA6
:1026E000F1F201FB120082440BF1010B781B0F2861
:1026F0001FDDB81B0F281CDD1F201A4908804FF46E
:10270000A070B4FBF0F08144601C4FF4A071B0FBEA
:10271000F1F201FB120008B9002006E0601C4FF442
:10272000A071B0FBF1F201FB120082440BF1010B2E
:1027300002E00C48A0F80080641CB4F5963F8DD3ED
:1027400000200349087002F0BDFFBDE81C8F0000A7
:10275000240000207801002000200140140C0140DA
:10276000001001400008006C01490860704700003B
:102770000400002010B504464FF47A7104FB01F008
:1027800000F002F810BD000070B5034600224FF0C3
:10279000E02675690D4E366803FB06F44FF0E0261F
:1027A000B16910E04FF0E026B06988420BD0884252
:1027B00002D20E1A324402E02E1A0E44324401466E
:1027C000A24200D300E0EDE700BF70BD040000208E
:1027D00000BF054A126802F04002002AF9D0C2B2D6
:1027E000014B1B1D1A6070470038014070B504464C
:1027F000002609480588408845430021084603F023
:102800007FF803F0DDFA00BF02E004480480761C84
:10281000AE42FAD370BD0000780100200008006CC1
:1028200010B5044658488471002C58D1F020564900
:1028300008804FF4A07048800846808845F2105107
:10284000884210D14FF430504F4908814FF428503E
:1028500048814FF42C5088814FF4F07008804FF479
:10286000487048801AE04848808841F663118842E1
:102870000DD12C20444908812B2048812A208881B1
:102880004FF4F07008804FF44870488006E02C2028
:102890003D4908812A2048812B2088813A48808838
:1028A00045F21031884205D03748808847F296714A
:1028B000884206D14FF4A070334908804FF4F0707D
:1028C00048803148808849F60601884258D14FF443
:1028D000F0702D4908804FF44870488050E04FF464
:1028E000A07029490880F02048800846808845F279
:1028F0001051884210D14FF43050234908814FF4D1
:10290000285048814FF42C5088814FF4487008803B
:102910004FF4F070488020E01B48808841F6631136
:10292000884205D01848808849F6060188420DD1B2
:102930002C20154908812A2048812B2088814FF4BA
:10294000487008804FF4F070488006E02C200E4953
:1029500008812A2048812B2088810B48808845F2F5
:102960001031884205D00848808847F29671884225
:1029700006D14FF4F070044908804FF4A0704880ED
:10298000002002F09FFE10BD7801002070B50546C2
:102990000E4614463146284602F0B2FF03F010FA04
:1029A00001490C8070BD00000008006C10B5CF20FC
:1029B00003F0FAF9002003F0EBF9C12003F0E8F985
:1029C000302003F0E5F9ED2003F0EEF9642003F088
:1029D000DFF9032003F0DCF9122003F0D9F981209C
:1029E00003F0D6F9E82003F0DFF9852003F0D0F9F1
:1029F000102003F0CDF97A2003F0CAF9CB2003F0C0
:102A0000D3F9392003F0C4F92C2003F0C1F90020D8
:102A100003F0BEF9342003F0BBF9022003F0B8F94B
:102A2000F72003F0C1F9202003F0B2F9EA2003F007
:102A3000BBF9002003F0ACF9002003F0A9F9C02095
:102A400003F0B2F91B2003F0A3F9C12003F0ACF9A5
:102A5000012003F09DF9C52003F0A6F9302003F012
:102A600097F9302003F094F9C72003F09DF9B720BF
:102A700003F08EF9362003F097F9482003F088F927
:102A80003A2003F091F9552003F082F9B12003F0C8
:102A90008BF9002003F07CF91A2003F079F9B620B5
:102AA00003F082F90A2003F073F9A22003F070F911
:102AB000F22003F079F9002003F06AF9262003F0F0
:102AC00073F9012003F064F9E02003F06DF90F20A1
:102AD00003F05EF92A2003F05BF9282003F058F98F
:102AE000082003F055F90E2003F052F9082003F0F6
:102AF0004FF9542003F04CF9A92003F049F9432081
:102B000003F046F90A2003F043F90F2003F040F9DF
:102B1000002003F03DF9002003F03AF9002003F013
:102B200037F9002003F034F9E12003F03DF90020EB
:102B300003F02EF9152003F02BF9172003F028F9E4
:102B4000072003F025F9112003F022F9062003F0F5
:102B50001FF92B2003F01CF9562003F019F93C2033
:102B600003F016F9052003F013F9102003F010F913
:102B70000F2003F00DF93F2003F00AF93F2003F086
:102B800007F90F2003F004F92B2003F00DF90020C2
:102B900003F0FEF8002003F0FBF8012003F0F8F842
:102BA0003F2003F0F5F82A2003F0FEF8002003F0A0
:102BB000EFF8002003F0ECF8002003F0E9F8EF2034
:102BC00003F0E6F8112003F0EFF87820FFF7D2FDCC
:102BD000292003F0E9F810BD10B5FF2003F0E4F858
:102BE000FF2003F0D5F8982003F0D2F8062003F078
:102BF000CFF8BC2003F0D8F8012003F0C9F80F206B
:102C000003F0C6F8612003F0C3F8FF2003F0C0F81A
:102C1000012003F0BDF8012003F0BAF80B2003F007
:102C2000B7F8102003F0B4F8372003F0B1F86320B0
:102C300003F0AEF8FF2003F0ABF8FF2003F0A8F894
:102C4000012003F0A5F8012003F0A2F8002003F012
:102C50009FF8002003F09CF8FF2003F099F8522021
:102C600003F096F8012003F093F8002003F090F8A9
:102C7000402003F08DF8BD2003F096F8012003F00A
:102C800087F8232003F084F8452003F081F86720BB
:102C900003F07EF8012003F07BF8232003F078F89E
:102CA000452003F075F8672003F072F8BE2003F0AA
:102CB0007BF8002003F06CF8012003F069F8AB20EA
:102CC00003F066F8602003F063F8222003F060F858
:102CD000222003F05DF8222003F05AF8222003F0AE
:102CE00057F8222003F054F8C72003F05DF836208F
:102CF00003F04EF8ED2003F057F87F2003F048F87A
:102D00000F2003F045F8C02003F04EF80F2003F029
:102D10003FF80B2003F03CF80A2003F039F8FC20C0
:102D200003F042F8082003F033F8DF2003F03CF80A
:102D3000002003F02DF8002003F02AF8002003F013
:102D400027F8002003F024F8002003F021F82020C9
:102D500003F01EF8F32003F027F8742003F018F8AE
:102D6000B42003F021F8002003F012F8002003F053
:102D70000FF8002003F00CF8F72003F015F882207C
:102D800003F006F8B12003F00FF8002003F000F87C
:102D9000132002F0FDFF132002F0FAFFF22003F0EF
:102DA00003F8802002F0F4FF042002F0F1FF40203D
:102DB00002F0EEFF282002F0EBFFC12002F0F4FF4A
:102DC000172002F0E5FF882002F0E2FF882002F0E1
:102DD000DFFF202002F0DCFFE02002F0E5FF002012
:102DE00002F0D6FF0A2002F0D3FF122002F0D0FF3B
:102DF000102002F0CDFF0E2002F0CAFF202002F0CA
:102E0000C7FFCC2002F0C4FF072002F0C1FF06205C
:102E100002F0BEFF0B2002F0BBFF0E2002F0B8FF55
:102E20000F2002F0B5FF0D2002F0B2FF152002F0D6
:102E3000AFFF102002F0ACFF002002F0A9FFE1205C
:102E400002F0B2FF002002F0A3FF0B2002F0A0FF6F
:102E5000132002F09DFF0D2002F09AFF0E2002F0D9
:102E600097FF1B2002F094FF712002F091FF0620D3
:102E700002F08EFF062002F08BFF0A2002F088FF8E
:102E80000F2002F085FF0E2002F082FF0F2002F0DB
:102E90007FFF152002F07CFF0C2002F079FF00205C
:102EA00002F076FF2A2002F07FFF002002F070FF80
:102EB000002002F06DFF012002F06AFFDF2002F027
:102EC00067FF2B2002F070FF002002F061FF00205E
:102ED00002F05EFF032002F05BFF1F2002F058FFAC
:102EE0003A2002F061FF552002F052FF362002F036
:102EF0005BFF002002F04CFF112002F055FF78200C
:102F0000FFF738FC292002F04FFF1420FFF732FCB6
:102F10002C2002F049FF10BD10B5ED2002F044FF57
:102F2000012002F035FFFE2002F032FFEE2002F019
:102F30003BFFDE2002F02CFF212002F029FFF120D0
:102F400002F032FF012002F023FFDF2002F02CFF0D
:102F5000102002F01DFFC42002F026FF8F2002F097
:102F600017FFC62002F020FF002002F011FFE22030
:102F700002F00EFFE22002F00BFFE22002F008FF59
:102F8000BF2002F011FFAA2002F002FFB02002F0E1
:102F90000BFF0D2002F0FCFE002002F0F9FE0D20D8
:102FA00002F0F6FE002002F0F3FE112002F0F0FE27
:102FB000002002F0EDFE192002F0EAFE002002F0EF
:102FC000E7FE212002F0E4FE002002F0E1FE2D20C9
:102FD00002F0DEFE002002F0DBFE3D2002F0D8FE13
:102FE000002002F0D5FE5D2002F0D2FE002002F0AB
:102FF000CFFE5D2002F0CCFE002002F0C9FEB12021
:1030000002F0D2FE802002F0C3FE002002F0C0FEDB
:103010008B2002F0BDFE002002F0BAFE962002F0E6
:10302000B7FE002002F0B4FEB22002F0BDFE002088
:1030300002F0AEFE002002F0ABFE022002F0A8FE7D
:10304000002002F0A5FE032002F0A2FE002002F004
:103050009FFEB32002F0A8FE002002F099FE00209F
:1030600002F096FE002002F093FE002002F090FE97
:10307000002002F08DFE002002F08AFE002002F007
:1030800087FE002002F084FE002002F081FE002076
:1030900002F07EFE002002F07BFE002002F078FEAF
:1030A000002002F075FE002002F072FE002002F007
:1030B0006FFE002002F06CFE002002F069FE00208E
:1030C00002F066FE002002F063FE002002F060FEC7
:1030D000002002F05DFE002002F05AFE002002F007
:1030E00057FE002002F054FEB42002F05DFE8B205B
:1030F00002F04EFE002002F04BFE962002F048FE49
:10310000002002F045FEA12002F042FE002002F065
:103110003FFEB52002F048FE022002F039FE0020FA
:1031200002F036FE032002F033FE002002F030FEF3
:10313000042002F02DFE002002F02AFEB62002F04C
:1031400033FE002002F024FE002002F021FEB72012
:1031500002F02AFE002002F01BFE002002F018FE02
:103160003F2002F015FE002002F012FE5E2002F069
:103170000FFE002002F00CFE642002F009FE002089
:1031800002F006FE8C2002F003FE002002F000FE9A
:10319000AC2002F0FDFD002002F0FAFDDC2002F080
:1031A000F7FD002002F0F4FD702002F0F1FD002098
:1031B00002F0EEFD902002F0EBFD002002F0E8FDB1
:1031C000EB2002F0E5FD002002F0E2FDDC2002F041
:1031D000DFFD002002F0DCFDB82002F0E5FD00205C
:1031E00002F0D6FD002002F0D3FD002002F0D0FD59
:1031F000002002F0CDFD002002F0CAFD002002F008
:10320000C7FD002002F0C4FD002002F0C1FDBA207D
:1032100002F0CAFD242002F0BBFD002002F0B8FD40
:10322000002002F0B5FD002002F0B2FDC12002F046
:10323000BBFD202002F0ACFD002002F0A9FD5420CF
:1032400002F0A6FD002002F0A3FDFF2002F0A0FD89
:10325000002002F09DFDC22002F0A6FD0A2002F02F
:1032600097FD002002F094FD042002F091FD002063
:1032700002F08EFDC32002F097FD3C2002F088FD95
:10328000002002F085FD3A2002F082FD002002F0CD
:103290007FFD392002F07CFD002002F079FD37200F
:1032A00002F076FD002002F073FD3C2002F070FD7C
:1032B000002002F06DFD362002F06AFD002002F0D1
:1032C00067FD322002F064FD002002F061FD2F2036
:1032D00002F05EFD002002F05BFD2C2002F058FDA4
:1032E000002002F055FD292002F052FD002002F0DE
:1032F0004FFD262002F04CFD002002F049FD242065
:1033000002F046FD002002F043FD242002F040FDC3
:10331000002002F03DFD232002F03AFD002002F0E3
:1033200037FD3C2002F034FD002002F031FD362054
:1033300002F02EFD002002F02BFD322002F028FDCD
:10334000002002F025FD2F2002F022FD002002F0D7
:103350001FFD2C2002F01CFD002002F019FD292089
:1033600002F016FD002002F013FD262002F010FDF1
:10337000002002F00DFD242002F00AFD002002F0E2
:1033800007FD242002F004FD002002F001FD2320AF
:1033900002F0FEFC002002F0FBFCC42002F004FD61
:1033A000622002F0F5FC002002F0F2FC052002F0A1
:1033B000EFFC002002F0ECFC842002F0E9FC00208D
:1033C00002F0E6FCF02002F0E3FC002002F0E0FC5A
:1033D000182002F0DDFC002002F0DAFCA42002F04C
:1033E000D7FC002002F0D4FC182002F0D1FC002011
:1033F00002F0CEFC502002F0CBFC002002F0C8FC12
:103400000C2002F0C5FC002002F0C2FC172002F0E4
:10341000BFFC002002F0BCFC952002F0B9FC0020AB
:1034200002F0B6FCF32002F0B3FC002002F0B0FC86
:10343000E62002F0ADFC002002F0AAFCC52002F05C
:10344000B3FC322002F0A4FC002002F0A1FC4420D6
:1034500002F09EFC002002F09BFC652002F098FC2C
:10346000002002F095FC762002F092FC002002F091
:103470008FFC882002F08CFC002002F089FCC62022
:1034800002F092FC202002F083FC002002F080FC7D
:10349000172002F07DFC002002F07AFC012002F0EF
:1034A00077FC002002F074FCC72002F07DFC0020B5
:1034B00002F06EFC002002F06BFC002002F068FCC1
:1034C000002002F065FCC82002F06EFC002002F033
:1034D0005FFC002002F05CFC002002F059FC0020A0
:1034E00002F056FCC92002F05FFC002002F050FC04
:1034F000002002F04DFC002002F04AFC002002F007
:1035000047FC002002F044FC002002F041FC0020B7
:1035100002F03EFC002002F03BFC002002F038FCF0
:10352000002002F035FC002002F032FC002002F006
:103530002FFC002002F02CFC002002F029FC0020CF
:1035400002F026FC002002F023FCE02002F02CFC1C
:10355000162002F01DFC002002F01AFC1C2002F0D4
:1035600017FC002002F014FC212002F011FC0020C6
:1035700002F00EFC362002F00BFC002002F008FCEA
:10358000462002F005FC002002F002FC522002F06E
:10359000FFFB002002F0FCFB642002F0F9FB00209E
:1035A00002F0F6FB7A2002F0F3FB002002F0F0FBC1
:1035B0008B2002F0EDFB002002F0EAFB992002F0E4
:1035C000E7FB002002F0E4FBA82002F0E1FB002072
:1035D00002F0DEFBB92002F0DBFB002002F0D8FB9A
:1035E000C42002F0D5FB002002F0D2FBCA2002F07A
:1035F000CFFB002002F0CCFBD22002F0C9FB002060
:1036000002F0C6FBD92002F0C3FB002002F0C0FB91
:10361000E02002F0BDFB002002F0BAFBF32002F034
:10362000B7FB002002F0B4FBE12002F0BDFB162046
:1036300002F0AEFB002002F0ABFB1C2002F0A8FB66
:10364000002002F0A5FB222002F0A2FB002002F0E5
:103650009FFB362002F09CFB002002F099FB4520E6
:1036600002F096FB002002F093FB522002F090FB48
:10367000002002F08DFB642002F08AFB002002F0A3
:1036800087FB7A2002F084FB002002F081FB8B2074
:1036900002F07EFB002002F07BFB992002F078FB19
:1036A000002002F075FBA82002F072FB002002F05F
:1036B0006FFBB92002F06CFB002002F069FBC42014
:1036C00002F066FB002002F063FBCA2002F060FB00
:1036D000002002F05DFBD22002F05AFB002002F035
:1036E00057FBD82002F054FB002002F051FBE020F1
:1036F00002F04EFB002002F04BFBF32002F048FBEF
:10370000002002F045FBE22002F04EFB052002F013
:103710003FFB002002F03CFB0B2002F039FB0020B5
:1037200002F036FB1B2002F033FB002002F030FBDE
:10373000342002F02DFB002002F02AFB442002F08E
:1037400027FB002002F024FB4F2002F021FB002089
:1037500002F01EFB612002F01BFB002002F018FBB0
:10376000792002F015FB002002F012FB882002F005
:103770000FFB002002F00CFB972002F009FB002059
:1037800002F006FBA62002F003FB002002F000FB83
:10379000B72002F0FDFA002002F0FAFAC22002F08F
:1037A000F7FA002002F0F4FAC72002F0F1FA002044
:1037B00002F0EEFAD12002F0EBFA002002F0E8FA73
:1037C000D62002F0E5FA002002F0E2FADD2002F055
:1037D000DFFA002002F0DCFAF32002F0D9FA002030
:1037E00002F0D6FAE32002F0DFFA052002F0D0FA68
:1037F000002002F0CDFA0A2002F0CAFA002002F0FE
:10380000C7FA1C2002F0C4FA002002F0C1FA3320EB
:1038100002F0BEFA002002F0BBFA442002F0B8FA2F
:10382000002002F0B5FA502002F0B2FA002002F0B7
:10383000AFFA622002F0ACFA002002F0A9FA782078
:1038400002F0A6FA002002F0A3FA882002F0A0FA03
:10385000002002F09DFA972002F09AFA002002F070
:1038600097FAA62002F094FA002002F091FAB7200D
:1038700002F08EFA002002F08BFAC22002F088FAE1
:10388000002002F085FAC72002F082FA002002F040
:103890007FFAD12002F07CFA002002F079FAD520DC
:1038A00002F076FA002002F073FADD2002F070FADE
:1038B000002002F06DFAF32002F06AFA002002F014
:1038C00067FAE42002F070FA012002F061FA0020A9
:1038D00002F05EFA012002F05BFA002002F058FAD2
:1038E000022002F055FA002002F052FA2A2002F0DB
:1038F0004FFA002002F04CFA3C2002F049FA002076
:1039000002F046FA4B2002F043FA002002F040FA9F
:103910005D2002F03DFA002002F03AFA742002F035
:1039200037FA002002F034FA842002F031FA002045
:1039300002F02EFA932002F02BFA002002F028FA6F
:10394000A22002F025FA002002F022FAB32002F0B1
:103950001FFA002002F01CFABE2002F019FA002023
:1039600002F016FAC42002F013FA002002F010FA56
:10397000CD2002F00DFA002002F00AFAD32002F066
:1039800007FA002002F004FADD2002F001FA00201C
:1039900002F0FEF9F32002F0FBF9002002F0F8F942
:1039A000E52002F001FA002002F0F2F9002002F016
:1039B000EFF9002002F0ECF9002002F0E9F9022012
:1039C00002F0E6F9002002F0E3F9292002F0E0F924
:1039D000002002F0DDF93C2002F0DAF9002002F0CC
:1039E000D7F94B2002F0D4F9002002F0D1F95D2084
:1039F00002F0CEF9002002F0CBF9742002F0C8F9F1
:103A0000002002F0C5F9842002F0C2F9002002F083
:103A1000BFF9932002F0BCF9002002F0B9F9A2200E
:103A200002F0B6F9002002F0B3F9B32002F0B0F9C9
:103A3000002002F0ADF9BE2002F0AAF9002002F049
:103A4000A7F9C42002F0A4F9002002F0A1F9CD20CA
:103A500002F09EF9002002F09BF9D32002F098F9C1
:103A6000002002F095F9DC2002F092F9002002F02B
:103A70008FF9F32002F08CF9002002F089F9E6209A
:103A800002F092F9112002F083F9002002F080F98F
:103A9000342002F07DF9002002F07AF9562002F07D
:103AA00077F9002002F074F9762002F071F9002015
:103AB00002F06EF9772002F06BF9002002F068F94D
:103AC000662002F065F9002002F062F9882002F019
:103AD0005FF9002002F05CF9992002F059F900200A
:103AE00002F056F9BB2002F053F9002002F050F921
:103AF000992002F04DF9002002F04AF9662002F008
:103B000047F9002002F044F9552002F041F9002065
:103B100002F03EF9552002F03BF9002002F038F99E
:103B2000452002F035F9002002F032F9432002F07E
:103B30002FF9002002F02CF9442002F029F900208E
:103B400002F026F9E72002F02FF9322002F020F9E6
:103B5000002002F01DF9552002F01AF9002002F0B1
:103B600017F9762002F014F9002002F011F966200E
:103B700002F00EF9002002F00BF9672002F008F9BC
:103B8000002002F005F9672002F002F9002002F09F
:103B9000FFF8872002F0FCF8002002F0F9F89920E5
:103BA00002F0F6F8002002F0F3F8BB2002F0F0F883
:103BB000002002F0EDF8992002F0EAF8002002F06F
:103BC000E7F8772002F0E4F8002002F0E1F8442062
:103BD00002F0DEF8002002F0DBF8562002F0D8F800
:103BE000002002F0D5F8232002F0D2F8002002F0E5
:103BF000CFF8332002F0CCF8002002F0C9F84520BD
:103C000002F0C6F8002002F0C3F8E82002F0CCF879
:103C1000002002F0BDF8002002F0BAF8992002F06E
:103C2000B7F8002002F0B4F8872002F0B1F80020C5
:103C300002F0AEF8882002F0ABF8002002F0A8F8FD
:103C4000772002F0A5F8002002F0A2F8662002F02A
:103C50009FF8002002F09CF8882002F099F80020DC
:103C600002F096F8AA2002F093F8002002F090F8F3
:103C7000BB2002F08DF8002002F08AF8992002F0B3
:103C800087F8002002F084F8662002F081F8002016
:103C900002F07EF8552002F07BF8002002F078F860
:103CA000552002F075F8002002F072F8442002F06E
:103CB0006FF8002002F06CF8442002F069F8002050
:103CC00002F066F8552002F063F8002002F060F878
:103CD000E92002F069F8AA2002F05AF8002002F068
:103CE00057F8002002F054F8002002F051F80020AC
:103CF00002F05AF8AA2002F04BF8CF2002F054F854
:103D0000002002F045F8002002F042F8002002F006
:103D10003FF8002002F03CF8002002F039F80020C3
:103D200002F036F8002002F033F8002002F030F8FC
:103D3000002002F02DF8002002F02AF8002002F006
:103D400027F8002002F024F8002002F021F80020DB
:103D500002F01EF8002002F01BF8002002F018F814
:103D6000002002F015F8F02002F01EF8002002F00A
:103D70000FF8502002F00CF8002002F009F80020A3
:103D800002F006F8002002F003F8F32002F00CF82D
:103D9000002001F0FDFFF92002F006F8062001F0F6
:103DA000F7FF102001F0F4FF292001F0F1FF0020BF
:103DB00001F0EEFF3A2001F0F7FF552001F0E8FF97
:103DC000112001F0F1FF6420FEF7D4FC292001F05E
:103DD000EBFF352001F0E8FF002001F0D9FF512072
:103DE00001F0E2FFFF2001F0D3FF532001F0DCFFE0
:103DF0002C2001F0CDFF552001F0D6FF822001F0EC
:103E0000C7FF2C2001F0D0FF10BD10B555214FF495
:103E1000704001F0DFFFAA214FF2010001F0DAFF4C
:103E200052214FF2020001F0D5FF08214FF20300AA
:103E300001F0D0FF01214FF2040001F0CBFF0D2172
:103E40004FF4304001F0C6FF0D214BF2010001F0AC
:103E5000C1FF0D214BF2020001F0BCFF34214FF4F1
:103E6000364001F0B7FF34214BF2016001F0B2FFA0
:103E700034214BF2026001F0ADFF0D214FF43140CF
:103E800001F0A8FF0D214BF2011001F0A3FF0D215D
:103E90004BF2021001F09EFF34214FF4374001F045
:103EA00099FF34214BF2017001F094FF34214BF261
:103EB000027001F08FFF00214FF4324001F08AFFC1
:103EC00000214BF2012001F085FF00214BF202207E
:103ED00001F080FF24214FF4384001F07BFF2421C2
:103EE0004BF6010001F076FF24214BF6020001F0B1
:103EF00071FF01214FF43F4001F06CFF0F214FF49F
:103F0000334001F067FF0F214BF2013001F062FFF7
:103F10000F214BF2023001F05DFF34214FF43940A4
:103F200001F058FF34214BF6011001F053FF34210A
:103F30004BF6021001F04EFF08214FF4354001F01E
:103F400049FF08214BF2015001F044FF08214BF2D8
:103F5000025001F03FFF03214FF4424001F03AFFCD
:103F600024214FF43A4001F035FF24214BF6012083
:103F700001F030FF24214BF6022001F02BFF00213D
:103F80004FF43C4001F026FF78214BF6014001F050
:103F900021FF00214BF6024001F01CFF00214FF4ED
:103FA0003D4001F017FF78214BF6015001F012FF60
:103FB00000214BF6025001F00DFF00214FF43E406E
:103FC00001F008FF64214BF6016001F003FF0021BE
:103FD0004FF4514001F0FEFE33214DF2011001F08B
:103FE000F9FE00214DF2021001F0F4FE34214DF2F1
:103FF000031001F0EFFE00214DF2041001F0EAFE83
:104000003A214DF2051001F0E5FE00214DF20610B7
:1040100001F0E0FE4A214DF2071001F0DBFE002125
:104020004DF2081001F0D6FE5C214DF2091001F0AE
:10403000D1FE00214DF20A1001F0CCFE81214DF29B
:104040000B1001F0C7FE00214DF20C1001F0C2FE72
:10405000A6214DF20D1001F0BDFE00214DF20E1013
:1040600001F0B8FEE5214DF20F1001F0B3FE012181
:104070004DF2101001F0AEFE13214DF2111001F0BF
:10408000A9FE01214DF2121001F0A4FE54214DF2BF
:10409000131001F09FFE01214DF2141001F09AFE61
:1040A00082214DF2151001F095FE01214DF21610FE
:1040B00001F090FECA214DF2171001F08BFE022193
:1040C0004DF2181001F086FE00214DF2191001F09A
:1040D00081FE02214DF21A1001F07CFE01214DF209
:1040E0001B1001F077FE02214DF21C1001F072FE50
:1040F00034214DF21D1001F06DFE02214DF21E1013
:1041000001F068FE67214DF21F1001F063FE0221ED
:104110004DF2201001F05EFE84214DF2211001F0DD
:1041200059FE02214DF2221001F054FEA4214DF25D
:10413000231001F04FFE02214DF2241001F04AFE3F
:10414000B7214DF2251001F045FE02214DF2261057
:1041500001F040FECF214DF2271001F03BFE02217D
:104160004DF2281001F036FEDE214DF2291001F04B
:1041700031FE02214DF22A1001F02CFEF2214DF207
:104180002B1001F027FE02214DF22C1001F022FE2F
:10419000FE214DF22D1001F01DFE03214DF22E10D7
:1041A00001F018FE10214DF22F1001F013FE032133
:1041B0004DF2301001F00EFE33214DF2311001F0BE
:1041C00009FE03214DF2321001F004FE6D214DF283
:1041D000331001F0FFFD00214FF4524001F0FAFDD1
:1041E00033214DF2012001F0F5FD00214DF20220B6
:1041F00001F0F0FD34214DF2032001F0EBFD002130
:104200004DF2042001F0E6FD3A214DF2052001F0C7
:10421000E1FD00214DF2062001F0DCFD4A214DF2C6
:10422000072001F0D7FD00214DF2082001F0D2FD5A
:104230005C214DF2092001F0CDFD00214DF20A2054
:1042400001F0C8FD81214DF20B2001F0C3FD0021DA
:104250004DF20C2001F0BEFDA6214DF20D2001F023
:10426000B9FD00214DF20E2001F0B4FDE5214DF223
:104270000F2001F0AFFD01214DF2102001F0AAFD49
:1042800013214DF2112001F0A5FD01214DF2122064
:1042900001F0A0FD54214DF2132001F09BFD0121FE
:1042A0004DF2142001F096FD82214DF2152001F00F
:1042B00091FD01214DF2162001F08CFDCA214DF235
:1042C000172001F087FD02214DF2182001F082FD38
:1042D00000214DF2192001F07DFD02214DF21A203E
:1042E00001F078FD01214DF21B2001F073FD022148
:1042F0004DF21C2001F06EFD34214DF21D2001F025
:1043000069FD02214DF21E2001F064FD67214DF28E
:104310001F2001F05FFD02214DF2202001F05AFD27
:1043200084214DF2212001F055FD02214DF2222081
:1043300001F050FDA4214DF2232001F04BFD02219C
:104340004DF2242001F046FDB7214DF2252001F069
:1043500041FD02214DF2262001F03CFDCF214DF21E
:10436000272001F037FD02214DF2282001F032FD17
:10437000DE214DF2292001F02DFD02214DF22A20EF
:1043800001F028FDF2214DF22B2001F023FD022146
:104390004DF22C2001F01EFDFE214DF22D2001F0EA
:1043A00019FD03214DF22E2001F014FD10214DF2D4
:1043B0002F2001F00FFD03214DF2302001F00AFD06
:1043C00033214DF2312001F005FD03214DF2322061
:1043D00001F000FD6D214DF2332001F0FBFC0021C6
:1043E0004FF4534001F0F6FC33214DF2013001F05F
:1043F000F1FC00214DF2023001F0ECFC34214DF2D1
:10440000033001F0E7FC00214DF2043001F0E2FC42
:104410003A214DF2053001F0DDFC00214DF206306D
:1044200001F0D8FC4A214DF2073001F0D3FC002105
:104430004DF2083001F0CEFC5C214DF2093001F064
:10444000C9FC00214DF20A3001F0C4FC81214DF27B
:104450000B3001F0BFFC00214DF20C3001F0BAFC32
:10446000A6214DF20D3001F0B5FC00214DF20E30C9
:1044700001F0B0FCE5214DF20F3001F0ABFC012161
:104480004DF2103001F0A6FC13214DF2113001F075
:10449000A1FC01214DF2123001F09CFC54214DF29F
:1044A000133001F097FC01214DF2143001F092FC21
:1044B00082214DF2153001F08DFC01214DF21630B4
:1044C00001F088FCCA214DF2173001F083FC022173
:1044D0004DF2183001F07EFC00214DF2193001F050
:1044E00079FC02214DF21A3001F074FC01214DF2E9
:1044F0001B3001F06FFC02214DF21C3001F06AFC10
:1045000034214DF21D3001F065FC02214DF21E30C8
:1045100001F060FC67214DF21F3001F05BFC0221CD
:104520004DF2203001F056FC84214DF2213001F093
:1045300051FC02214DF2223001F04CFCA4214DF23D
:10454000233001F047FC02214DF2243001F042FCFF
:10455000B7214DF2253001F03DFC02214DF226300D
:1045600001F038FCCF214DF2273001F033FC02215D
:104570004DF2283001F02EFCDE214DF2293001F001
:1045800029FC02214DF22A3001F024FCF2214DF2E7
:104590002B3001F01FFC02214DF22C3001F01AFCEF
:1045A000FE214DF22D3001F015FC03214DF22E308D
:1045B00001F010FC10214DF22F3001F00BFC032113
:1045C0004DF2303001F006FC33214DF2313001F074
:1045D00001FC03214DF2323001F0FCFB6D214DF264
:1045E000333001F0F7FB00214FF4544001F0F2FBAF
:1045F00033214DF2014001F0EDFB00214DF202406C
:1046000001F0E8FB34214DF2034001F0E3FB00210F
:104610004DF2044001F0DEFB3A214DF2054001F07D
:10462000D9FB00214DF2064001F0D4FB4A214DF2A6
:10463000074001F0CFFB00214DF2084001F0CAFB1A
:104640005C214DF2094001F0C5FB00214DF20A400A
:1046500001F0C0FB81214DF20B4001F0BBFB0021BA
:104660004DF20C4001F0B6FBA6214DF20D4001F0D9
:10467000B1FB00214DF20E4001F0ACFBE5214DF203
:104680000F4001F0A7FB01214DF2104001F0A2FB09
:1046900013214DF2114001F09DFB01214DF212401A
:1046A00001F098FB54214DF2134001F093FB0121DE
:1046B0004DF2144001F08EFB82214DF2154001F0C5
:1046C00089FB01214DF2164001F084FBCA214DF215
:1046D000174001F07FFB02214DF2184001F07AFBF8
:1046E00000214DF2194001F075FB02214DF21A40F4
:1046F00001F070FB01214DF21B4001F06BFB022128
:104700004DF21C4001F066FB34214DF21D4001F0DA
:1047100061FB02214DF21E4001F05CFB67214DF26E
:104720001F4001F057FB02214DF2204001F052FBE7
:1047300084214DF2214001F04DFB02214DF2224037
:1047400001F048FBA4214DF2234001F043FB02217C
:104750004DF2244001F03EFBB7214DF2254001F01F
:1047600039FB02214DF2264001F034FBCF214DF2FE
:10477000274001F02FFB02214DF2284001F02AFBD7
:10478000DE214DF2294001F025FB02214DF22A40A5
:1047900001F020FBF2214DF22B4001F01BFB022126
:1047A0004DF22C4001F016FBFE214DF22D4001F0A0
:1047B00011FB03214DF22E4001F00CFB10214DF2B4
:1047C0002F4001F007FB03214DF2304001F002FBC6
:1047D00033214DF2314001F0FDFA03214DF2324018
:1047E00001F0F8FA6D214DF2334001F0F3FA0021A7
:1047F0004FF4554001F0EEFA33214DF2015001F033
:10480000E9FA00214DF2025001F0E4FA34214DF2B0
:10481000035001F0DFFA00214DF2045001F0DAFA02
:104820003A214DF2055001F0D5FA00214DF2065023
:1048300001F0D0FA4A214DF2075001F0CBFA0021E5
:104840004DF2085001F0C6FA5C214DF2095001F01A
:10485000C1FA00214DF20A5001F0BCFA81214DF25B
:104860000B5001F0B7FA00214DF20C5001F0B2FAF2
:10487000A6214DF20D5001F0ADFA00214DF20E507F
:1048800001F0A8FAE5214DF20F5001F0A3FA012141
:104890004DF2105001F09EFA13214DF2115001F02B
:1048A00099FA01214DF2125001F094FA54214DF27F
:1048B000135001F08FFA01214DF2145001F08AFAE1
:1048C00082214DF2155001F085FA01214DF216506A
:1048D00001F080FACA214DF2175001F07BFA022153
:1048E0004DF2185001F076FA00214DF2195001F006
:1048F00071FA02214DF21A5001F06CFA01214DF2C9
:104900001B5001F067FA02214DF21C5001F062FACF
:1049100034214DF21D5001F05DFA02214DF21E507E
:1049200001F058FA67214DF21F5001F053FA0221AD
:104930004DF2205001F04EFA84214DF2215001F049
:1049400049FA02214DF2225001F044FAA4214DF21D
:10495000235001F03FFA02214DF2245001F03AFABF
:10496000B7214DF2255001F035FA02214DF22650C3
:1049700001F030FACF214DF2275001F02BFA02213D
:104980004DF2285001F026FADE214DF2295001F0B7
:1049900021FA02214DF22A5001F01CFAF2214DF2C7
:1049A0002B5001F017FA02214DF22C5001F012FAAF
:1049B000FE214DF22D5001F00DFA03214DF22E5043
:1049C00001F008FA10214DF22F5001F003FA0321F3
:1049D0004DF2305001F0FEF933214DF2315001F02B
:1049E000F9F903214DF2325001F0F4F96D214DF245
:1049F000335001F0EFF900214FF4564001F0EAF98D
:104A000033214DF2016001F0E5F900214DF2026021
:104A100001F0E0F934214DF2036001F0DBF90021EF
:104A20004DF2046001F0D6F93A214DF2056001F033
:104A3000D1F900214DF2066001F0CCF94A214DF286
:104A4000076001F0C7F900214DF2086001F0C2F9DA
:104A50005C214DF2096001F0BDF900214DF20A60C0
:104A600001F0B8F981214DF20B6001F0B3F900219A
:104A70004DF20C6001F0AEF9A6214DF20D6001F08F
:104A8000A9F900214DF20E6001F0A4F9E5214DF2E3
:104A90000F6001F09FF901214DF2106001F09AF9C9
:104AA00013214DF2116001F095F901214DF21260D0
:104AB00001F090F954214DF2136001F08BF90121BE
:104AC0004DF2146001F086F982214DF2156001F07B
:104AD00081F901214DF2166001F07CF9CA214DF2F5
:104AE000176001F077F902214DF2186001F072F9B8
:104AF00000214DF2196001F06DF902214DF21A60AA
:104B000001F068F901214DF21B6001F063F9022107
:104B10004DF21C6001F05EF934214DF21D6001F090
:104B200059F902214DF21E6001F054F967214DF24E
:104B30001F6001F04FF902214DF2206001F04AF9A7
:104B400084214DF2216001F045F902214DF22260ED
:104B500001F040F9A4214DF2236001F03BF902215C
:104B60004DF2246001F036F9B7214DF2256001F0D5
:104B700031F902214DF2266001F02CF9CF214DF2DE
:104B8000276001F027F902214DF2286001F022F997
:104B9000DE214DF2296001F01DF902214DF22A605B
:104BA00001F018F9F2214DF22B6001F013F9022106
:104BB0004DF22C6001F00EF9FE214DF22D6001F056
:104BC00009F903214DF22E6001F004F910214DF294
:104BD0002F6001F0FFF803214DF2306001F0FAF888
:104BE00033214DF2316001F0F5F803214DF23260CE
:104BF00001F0F0F86D214DF2336001F0EBF8552132
:104C00004FF4704001F0E6F8AA214FF2010001F0E4
:104C1000E1F852214FF2020001F0DCF808214FF2D6
:104C2000030001F0D7F800214FF2040001F0D2F8A0
:104C3000CC214FF4314001F0CDF800214BF20110AE
:104C400001F0C8F805214FF4364001F0C3F8702197
:104C50004FF4374001F0BEF870214BF2017001F0C3
:104C6000B9F801214FF4384001F0B4F803214BF6B4
:104C7000010001F0AFF803214BF6020001F0AAF8A1
:104C800003214BF6030001F0A5F802214FF43C404C
:104C900001F0A0F800214BF6014001F09BF8002143
:104CA0004BF6024001F096F8D0214FF4494001F054
:104CB00091F802214CF6011001F08CF850214CF6CD
:104CC000021001F087F850214CF6031001F082F831
:104CD00050214CF6041001F07DF800214FF454509F
:104CE00001F078F855214FF4685001F073F84FF453
:104CF000885001F059F87820FDF746FD4FF4245014
:104D000001F052F810BD10B5E22001F04DF81D2061
:104D100001F03EF8022001F03BF8042001F038F8E1
:104D20006420FDF731FDE02001F03EF8012001F0A4
:104D30002FF80A20FDF71EFDE02001F035F80320D2
:104D400001F026F80C20FDF715FD012001F02CF8EC
:104D50000A20FDF70FFDE62001F026F82F2001F0D4
:104D600017F8FF2001F014F8FF2001F011F8B0202F
:104D700001F01AF8202001F00BF8002001F008F8EB
:104D8000032001F005F840F21F3001F001F8012086
:104D900000F0FEFF40F2DF1000F0FAFF002000F00C
:104DA000F7FFB42001F000F8042000F0F1FF40F21A
:104DB0001F4000F0EDFF002000F0EAFF2E2000F081
:104DC000E7FF002000F0E4FF002000F0E1FF0020FA
:104DD00000F0DEFF002000F0DBFFB62000F0E4FF73
:104DE000022000F0D5FF4FF4037000F0D1FF002047
:104DF00000F0CEFF172000F0CBFF152000F0C8FF19
:104E0000002000F0C5FF002000F0C2FFF02000F0FD
:104E1000CBFF032000F0BCFF292000F0C5FFD0200D
:104E200000F0C2FF002000F0B3FFBE2000F0BCFF86
:104E3000052000F0ADFFFE2000F0AAFF012000F0E9
:104E4000A7FF002000F0A4FF002000F0A1FF002039
:104E500000F09EFFB82000F0A7FF032000F098FFAD
:104E6000012000F095FFBA2000F09EFF012000F025
:104E70008FFF10BD10B5112000F096FF7820FDF7D0
:104E800079FC362000F090FF002000F081FF3A20EE
:104E900000F08AFF052000F07BFFB22000F084FFC5
:104EA0000C2000F075FF0C2000F072FF002000F0D5
:104EB0006FFF332000F06CFF332000F069FFB72054
:104EC00000F072FF352000F063FFBB2000F06CFFA4
:104ED000322000F05DFFC02000F066FF0C2000F0E3
:104EE00057FFC22000F060FF012000F051FFC320F7
:104EF00000F05AFF102000F04BFFC42000F054FFD8
:104F0000202000F045FFC62000F04EFF0F2000F0EB
:104F10003FFFD02000F048FFA42000F039FFA1207F
:104F200000F036FFE02000F03FFFD02000F030FF1F
:104F3000002000F02DFF022000F02AFF072000F0E3
:104F400027FF0A2000F024FF282000F021FF322054
:104F500000F01EFF442000F01BFF422000F018FF6D
:104F6000062000F015FF0E2000F012FF122000F0C6
:104F70000FFF142000F00CFF172000F009FFE120C4
:104F800000F012FFD02000F003FF002000F000FF2F
:104F9000022000F0FDFE072000F0FAFE0A2000F0DB
:104FA000F7FE282000F0F4FE312000F0F1FE54203E
:104FB00000F0EEFE472000F0EBFE0E2000F0E8FED1
:104FC0001C2000F0E5FE172000F0E2FE1B2000F0A0
:104FD000DFFE1E2000F0DCFE2A2000F0E5FE0020AF
:104FE00000F0D6FE002000F0D3FE002000F0D0FE3E
:104FF000EF2000F0CDFE2B2000F0D6FE002000F0C8
:10500000C7FE002000F0C4FE012000F0C1FE3F20DA
:1050100000F0BEFE292000F0C7FE10BD10B5112023
:1050200000F0C2FE7820FDF7A5FB362000F0BCFEA4
:10503000482000F0ADFE3A2000F0B6FE552000F00A
:10504000A7FEF02000F0B0FEC32000F0A1FEF0208B
:1050500000F0AAFE962000F09BFEB42000F0A4FE13
:10506000012000F095FEB62000F09EFE0A2000F020
:105070008FFEA22000F08CFEB72000F095FEC62027
:1050800000F086FEB92000F08FFE022000F080FEC6
:10509000E02000F07DFEC02000F086FE802000F0C1
:1050A00077FE162000F074FEC12000F07DFE19206E
:1050B00000F06EFEC22000F077FEA72000F068FE30
:1050C000C52000F071FE162000F062FEE82000F01E
:1050D0006BFE402000F05CFE8A2000F059FE0020AC
:1050E00000F056FE002000F053FE292000F050FE94
:1050F000192000F04DFEA52000F04AFE332000F0FC
:1051000047FEE02000F050FEF02000F041FE0720B6
:1051100000F03EFE0D2000F03BFE042000F038FEC3
:10512000052000F035FE142000F032FE362000F09D
:105130002FFE542000F02CFE4C2000F029FE3820D9
:1051400000F026FE132000F023FE142000F020FEC5
:105150002E2000F01DFE342000F01AFEE12000F0A9
:1051600023FEF02000F014FE102000F011FE1420A9
:1051700000F00EFE0E2000F00BFE0C2000F008FEEA
:10518000082000F005FE352000F002FE442000F06B
:10519000FFFD4C2000F0FCFD262000F0F9FD102062
:1051A00000F0F6FD122000F0F3FD2C2000F0F0FDE1
:1051B000322000F0EDFDF02000F0F6FD3C2000F084
:1051C000E7FDF02000F0F0FD692000F0E1FD78201F
:1051D000FDF7D0FA212000F0E7FD292000F0E4FDE2
:1051E00010BD00002DE9F04F05460E4617469846C3
:1051F000DDF824A04FF0000B781B401C1FFA80FB49
:10520000344613E02146284600F07AFB00F0D8FD32
:105210004FF0000906E00749A1F800A009F10100DC
:105220001FFA80F9D945F6DB601C84B24445E9DDFC
:10523000BDE8F08F0008006C00B593B000BF00BF60
:10524000F948806940F48070F749886108468069B0
:1052500000F48070009000BF00BF00BF00BF00BF1F
:105260000846806940F0200088610846806900F0A7
:105270002000009000BF00BF00BF00BF00BF084675
:10528000806940F0200088610846806900F02000B5
:10529000009000BF00BF00BF00BF00BF084680698C
:1052A00040F4807088610846806900F48070009046
:1052B00000BF00BF00BF00BF00BF0846806940F0CC
:1052C000080088610846806900F00800009000BF6F
:1052D00000BF00BF88140F90022010900120119091
:1052E000032012900FA9D148FBF7EEFA20200F906F
:1052F0000FA9CF48FBF7E8FA10200F900FA9CC4870
:10530000FBF7E2FA01200F900FA9C848FBF7DCFA7F
:1053100001200F9010900FA9C648FBF7D5FA4FF067
:105320002040C5490860C5484860062088600021C3
:10533000C148C1601021416100218161C1614162A8
:105340004FF4805181620021C1624FF480410163BA
:105350000021416381630020089009900F200A908A
:1053600000200E90019002900120039000200790F1
:1053700001AA08A9B048FCF777F83220FDF7FAF93E
:10538000D32000F011FD00F091F9AD49888000F0C4
:105390008DF9AB49888000F089F9A94988800846D1
:1053A00080884FF6FF7101EA0020A549888000F04F
:1053B0007DF9A34989880843A149888008468088E7
:1053C00049F2413188427CD0042000F0EDFC00F02D
:1053D0006DF99B49888000F069F99949888000F04F
:1053E00065F997498880084680884FF6FF7101EA81
:1053F00000209349888000F059F991498988084331
:105400008F4988800846808848F25251884203D1EB
:1054100047F289708A4988808948808847F2897173
:105420008842D0D0D42000F0BFFC00F03FF984497E
:10543000888000F03BF98249888000F037F9804984
:105440008880084680884FF6FF7101EA00207C4979
:10545000888000F02BF97A49898808437849888048
:105460000846808845F210318842ACD0D32000F045
:105470009BFC00F01BF97249888000F017F9704915
:10548000888000F013F96E498880084680884FF6BE
:10549000FF7101EA00206A49888000F007F9684935
:1054A00089880843664988800846808847F2967153
:1054B000884288D055214FF4704000F08BFCAA211F
:1054C00000E07EE04FF2010000F084FC52214FF238
:1054D000020000F07FFC08214FF2030000F07AFC8C
:1054E00001214FF2040000F075FC4FF4454000F03C
:1054F0005BFC00F0DBF852498880084680884FF654
:10550000FF7101EA00204E4988804CF2015000F002
:105510004BFC00F0CBF84A49898808434849888009
:105520000520FDF727F94648808845F2105188424A
:1055300047D0D32000F038FC00F0B8F8404988800C
:1055400000F0B4F83E49888000F0B0F83C4988800B
:10555000084680884FF6FF7101EA002038498880AC
:1055600000F0A4F836498988084335498880084600
:10557000808849F60601884223D0A12000F014FC5F
:1055800000F094F82E49888000F090F82C4988802B
:10559000084680884FF6FF7101EA0020284988807C
:1055A00000F084F826498988084325498880084600
:1055B000808845F26171884203D141F66310204929
:1055C00088801F4881881FA0FAF72AFE1C4880881F
:1055D00047F28971884202D1FFF74CFC4CE0184831
:1055E000808849F24131884202D1FDF7DFF943E07A
:1055F0001348808845F21031884202D1FDF78CFCB7
:105600003AE00F48808847F29671884202D1FFF74E
:1056100005FD31E00A48808845F21051884217D1D3
:10562000FEF7F3FB28E000000010024000200140DC
:1056300000140140000C014030010020040100A0D2
:10564000780100204C43442049443A25780D0A0053
:105650001148808849F60601884202D1FDF7BCFA5C
:105660000AE00D48808841F66311884204D1FFF7B3
:105670004AFB642000F062FB0020FDF7D1F800BF78
:10568000012211460548FBF7D1FA00BF4FF6FF7023
:10569000FDF7ACF813B000BD78010020000C01400C
:1056A00000BF011EA0F10100FBD1704708B5022028
:1056B000FFF7F6FF024800880090BDF8000008BD23
:1056C0000008006CF0B50546002400278B4880795F
:1056D000012805D18948808841F66311884208D1A4
:1056E00086488079F0B98548808841F66311884200
:1056F00018D1082D15D2DFE805F00406080A0C0EB3
:10570000101206250DE007250BE0042509E005250C
:1057100007E0012505E0002503E0032501E002255F
:1057200000BF00BF082D1CD2DFE805F00406090CFD
:105730000F12151800BF14E044F0800411E044F08B
:1057400040040EE044F0C0040BE044F0200408E004
:1057500044F0600405E044F0A00402E044F0E004FA
:1057600000BF00BF36276548808845F21051884247
:1057700000D13F026148808849F2413188420BD014
:105780005E48808847F28971884205D05B488088EE
:1057900047F29671884201D144F008042146384608
:1057A00000F018FB5548808841F6631188421DD0EF
:1057B00004F0200068B15148008850494988884267
:1057C00014DA4E48068840884C49088008464680CE
:1057D0000CE04A48008849494988884206DD474824
:1057E00006884088454908800846468043488088A6
:1057F00045F21051884252D14049488900F0D4FA0C
:10580000002000F0C5FA3D494989491C88B200F0E2
:10581000CBFA002000F0BCFA38494989891C88B2CB
:1058200000F0C2FA35490988491EC1F30F2000F083
:10583000AFFA32494989C91C88B200F0B5FA2F493C
:105840000978491EC8B200F0A3FA2C49888900F0F3
:10585000ABFA002000F09CFA28498989491C88B2DB
:1058600000F0A2FA002000F093FA24498989891CEB
:1058700088B200F099FA21494988491EC1F30F20E6
:1058800000F086FA1D498989C91C88B200F08CFA9B
:105890001A498978491EC8B200F07AFA2DE01749F2
:1058A000488900F081FA002000F072FA002000F030
:1058B0006FFA12490988491EC1F30F2000F068FAF7
:1058C0000E490978491EC8B200F062FA0B4988896E
:1058D00000F06AFA002000F05BFA002000F058FAAD
:1058E00006494988491EC1F30F2000F051FA0349C7
:1058F0008978491EC8B200F04BFAF0BD780100204B
:1059000010B502460C464548808841F6631188422E
:1059100047D142488079A8B940480088401E801A83
:1059200082B23E49488900F03FFA002000F030FA88
:10593000002000F02DFA101200F02AFAD0B200F088
:1059400027FA16E03549488900F02EFA101200F0C7
:105950001FFAD0B200F01CFA30490988491EC1F381
:105960000F2000F015FA2D490978491EC8B200F041
:105970000FFA2A49888900F017FA201200F008FA75
:10598000E0B200F005FA25494988491EC1F30F200D
:1059900000F0FEF921498978491EC8B200F0F8F9F3
:1059A0003AE01E48808845F21051884220D11B49B8
:1059B000488900F0F9F9101200F0EAF9174949890D
:1059C000491C88B200F0F0F9D0B200F0E1F91349B7
:1059D000888900F0E9F9201200F0DAF90F49898985
:1059E000491C88B200F0E0F9E0B200F0D1F913E010
:1059F0000A49488900F0D8F9101200F0C9F9D0B26C
:105A000000F0C6F90549888900F0CEF9201200F0AF
:105A1000BFF9E0B200F0BCF910BD00007801002031
:105A20002DE9F04104460D461E46A018401E87B2DF
:105A3000A819401E1FFA80F85448808841F6631167
:105A4000884231D15148807901282DD04F480088B3
:105A5000801A001B84B2A819401E86B24B4948899F
:105A600000F0A2F9201200F093F9E0B200F090F9F2
:105A7000A118491EC1F30F2000F08AF9A118491E90
:105A8000C8B200F085F94149888900F08DF92812E3
:105A900000F07EF9E8B200F07BF9301200F078F9FE
:105AA000F0B200F075F96EE03848808845F2105188
:105AB000884246D13549488900F076F9201200F035
:105AC00067F932494989491C88B200F06DF9E0B2A2
:105AD00000F05EF92D494989891C88B200F064F90B
